{
  "contractName": "Lottery",
  "abi": [
    {
      "inputs": [
        {
          "internalType": "contract IERC20",
          "name": "_token",
          "type": "address"
        }
      ],
      "stateMutability": "nonpayable",
      "type": "constructor"
    },
    {
      "anonymous": false,
      "inputs": [
        {
          "indexed": false,
          "internalType": "address",
          "name": "_from",
          "type": "address"
        },
        {
          "indexed": false,
          "internalType": "address",
          "name": "_destAddr",
          "type": "address"
        },
        {
          "indexed": false,
          "internalType": "uint256",
          "name": "_amount",
          "type": "uint256"
        }
      ],
      "name": "Transfer",
      "type": "event"
    },
    {
      "inputs": [],
      "name": "owner",
      "outputs": [
        {
          "internalType": "address",
          "name": "",
          "type": "address"
        }
      ],
      "stateMutability": "view",
      "type": "function",
      "constant": true
    },
    {
      "inputs": [
        {
          "internalType": "uint256",
          "name": "",
          "type": "uint256"
        }
      ],
      "name": "playerAccounts",
      "outputs": [
        {
          "internalType": "address",
          "name": "",
          "type": "address"
        }
      ],
      "stateMutability": "view",
      "type": "function",
      "constant": true
    },
    {
      "inputs": [],
      "name": "playerId",
      "outputs": [
        {
          "internalType": "uint256",
          "name": "",
          "type": "uint256"
        }
      ],
      "stateMutability": "view",
      "type": "function",
      "constant": true
    },
    {
      "inputs": [],
      "name": "token",
      "outputs": [
        {
          "internalType": "contract IERC20",
          "name": "",
          "type": "address"
        }
      ],
      "stateMutability": "view",
      "type": "function",
      "constant": true
    },
    {
      "inputs": [],
      "name": "getPlayers",
      "outputs": [
        {
          "internalType": "address[]",
          "name": "",
          "type": "address[]"
        }
      ],
      "stateMutability": "view",
      "type": "function",
      "constant": true
    },
    {
      "inputs": [
        {
          "internalType": "address",
          "name": "_address",
          "type": "address"
        }
      ],
      "name": "getPlayerByAddress",
      "outputs": [
        {
          "internalType": "uint256",
          "name": "",
          "type": "uint256"
        },
        {
          "internalType": "string",
          "name": "",
          "type": "string"
        },
        {
          "internalType": "address",
          "name": "",
          "type": "address"
        },
        {
          "internalType": "uint256",
          "name": "",
          "type": "uint256"
        },
        {
          "internalType": "uint256",
          "name": "",
          "type": "uint256"
        },
        {
          "internalType": "string",
          "name": "",
          "type": "string"
        }
      ],
      "stateMutability": "view",
      "type": "function",
      "constant": true
    },
    {
      "inputs": [
        {
          "internalType": "string",
          "name": "_date",
          "type": "string"
        },
        {
          "internalType": "uint256",
          "name": "_amount",
          "type": "uint256"
        },
        {
          "internalType": "uint256",
          "name": "_entry",
          "type": "uint256"
        },
        {
          "internalType": "string",
          "name": "_status",
          "type": "string"
        }
      ],
      "name": "acceptToken",
      "outputs": [],
      "stateMutability": "nonpayable",
      "type": "function"
    },
    {
      "inputs": [
        {
          "internalType": "address",
          "name": "addr",
          "type": "address"
        }
      ],
      "name": "getTokenBalanceOf",
      "outputs": [
        {
          "internalType": "uint256",
          "name": "",
          "type": "uint256"
        }
      ],
      "stateMutability": "view",
      "type": "function",
      "constant": true
    },
    {
      "inputs": [],
      "name": "getBalance",
      "outputs": [
        {
          "internalType": "uint256",
          "name": "",
          "type": "uint256"
        }
      ],
      "stateMutability": "view",
      "type": "function",
      "constant": true
    },
    {
      "inputs": [],
      "name": "pickWinner",
      "outputs": [],
      "stateMutability": "nonpayable",
      "type": "function"
    }
  ],
  "bytecode": "0x60806040523480156200001157600080fd5b5060405162001b2138038062001b218339818101604052810190620000379190620000d6565b806000806101000a81548173ffffffffffffffffffffffffffffffffffffffff021916908373ffffffffffffffffffffffffffffffffffffffff16021790555033600460006101000a81548173ffffffffffffffffffffffffffffffffffffffff021916908373ffffffffffffffffffffffffffffffffffffffff1602179055505062000164565b600081519050620000d0816200014a565b92915050565b600060208284031215620000e957600080fd5b6000620000f984828501620000bf565b91505092915050565b60006200010f826200012a565b9050919050565b6000620001238262000102565b9050919050565b600073ffffffffffffffffffffffffffffffffffffffff82169050919050565b620001558162000116565b81146200016157600080fd5b50565b6119ad80620001746000396000f3fe608060405234801561001057600080fd5b506004361061009e5760003560e01c80638b5b9ccc116100665780638b5b9ccc146101355780638da5cb5b146101535780639d214bcf14610171578063d4d51269146101a1578063fc0c546a146101d65761009e565b806312065fe0146100a3578063548a34e9146100c15780635d495aea146100dd578063713c0e1a146100e75780638389454814610105575b600080fd5b6100ab6101f4565b6040516100b891906114be565b60405180910390f35b6100db60048036038101906100d6919061115c565b61028c565b005b6100e56106c3565b005b6100ef6109a7565b6040516100fc91906114be565b60405180910390f35b61011f600480360381019061011a919061110a565b6109ad565b60405161012c91906114be565b60405180910390f35b61013d610a60565b60405161014a9190611441565b60405180910390f35b61015b610aee565b60405161016891906113c6565b60405180910390f35b61018b600480360381019061018691906111ef565b610b14565b60405161019891906113c6565b60405180910390f35b6101bb60048036038101906101b6919061110a565b610b53565b6040516101cd969594939291906114d9565b60405180910390f35b6101de610e3b565b6040516101eb9190611463565b60405180910390f35b60003373ffffffffffffffffffffffffffffffffffffffff16600460009054906101000a900473ffffffffffffffffffffffffffffffffffffffff1673ffffffffffffffffffffffffffffffffffffffff1614610286576040517f08c379a000000000000000000000000000000000000000000000000000000000815260040161027d9061147e565b60405180910390fd5b47905090565b60003390506000309050600460009054906101000a900473ffffffffffffffffffffffffffffffffffffffff1673ffffffffffffffffffffffffffffffffffffffff168273ffffffffffffffffffffffffffffffffffffffff1614156102f157600080fd5b60008511610334576040517f08c379a000000000000000000000000000000000000000000000000000000000815260040161032b9061149e565b60405180910390fd5b60008054906101000a900473ffffffffffffffffffffffffffffffffffffffff1673ffffffffffffffffffffffffffffffffffffffff166323b872dd8383886040518463ffffffff1660e01b8152600401610391939291906113e1565b602060405180830381600087803b1580156103ab57600080fd5b505af11580156103bf573d6000803e3d6000fd5b505050506040513d601f19601f820116820180604052508101906103e39190611133565b50600260008154809291906103f79061178f565b91905055600160008473ffffffffffffffffffffffffffffffffffffffff1673ffffffffffffffffffffffffffffffffffffffff1681526020019081526020016000206000018190555085600160008473ffffffffffffffffffffffffffffffffffffffff1673ffffffffffffffffffffffffffffffffffffffff1681526020019081526020016000206001019080519060200190610497929190610f21565b5081600160008473ffffffffffffffffffffffffffffffffffffffff1673ffffffffffffffffffffffffffffffffffffffff16815260200190815260200160002060020160006101000a81548173ffffffffffffffffffffffffffffffffffffffff021916908373ffffffffffffffffffffffffffffffffffffffff16021790555084600160008473ffffffffffffffffffffffffffffffffffffffff1673ffffffffffffffffffffffffffffffffffffffff1681526020019081526020016000206003018190555083600160008473ffffffffffffffffffffffffffffffffffffffff1673ffffffffffffffffffffffffffffffffffffffff1681526020019081526020016000206004018190555082600160008473ffffffffffffffffffffffffffffffffffffffff1673ffffffffffffffffffffffffffffffffffffffff16815260200190815260200160002060050190805190602001906105fd929190610f21565b5060005b8481101561067f576003839080600181540180825580915050600190039060005260206000200160009091909190916101000a81548173ffffffffffffffffffffffffffffffffffffffff021916908373ffffffffffffffffffffffffffffffffffffffff16021790555080806106779061178f565b915050610601565b507fddf252ad1be2c89b69c2b068fc378daa952ba7f163c4a11628f55a4df523b3ef8282876040516106b3939291906113e1565b60405180910390a1505050505050565b3373ffffffffffffffffffffffffffffffffffffffff16600460009054906101000a900473ffffffffffffffffffffffffffffffffffffffff1673ffffffffffffffffffffffffffffffffffffffff1614610753576040517f08c379a000000000000000000000000000000000000000000000000000000000815260040161074a9061147e565b60405180910390fd5b600060038080549050610764610e5f565b61076e91906117e2565b815481106107a5577f4e487b7100000000000000000000000000000000000000000000000000000000600052603260045260246000fd5b9060005260206000200160009054906101000a900473ffffffffffffffffffffffffffffffffffffffff1690506000606460466107e1306109ad565b6107eb9190611624565b6107f591906115f3565b905060006064601e610806306109ad565b6108109190611624565b61081a91906115f3565b905060008054906101000a900473ffffffffffffffffffffffffffffffffffffffff1673ffffffffffffffffffffffffffffffffffffffff1663a9059cbb84846040518363ffffffff1660e01b8152600401610877929190611418565b602060405180830381600087803b15801561089157600080fd5b505af11580156108a5573d6000803e3d6000fd5b505050506040513d601f19601f820116820180604052508101906108c99190611133565b5060008054906101000a900473ffffffffffffffffffffffffffffffffffffffff1673ffffffffffffffffffffffffffffffffffffffff1663a9059cbb600460009054906101000a900473ffffffffffffffffffffffffffffffffffffffff16836040518363ffffffff1660e01b8152600401610947929190611418565b602060405180830381600087803b15801561096157600080fd5b505af1158015610975573d6000803e3d6000fd5b505050506040513d601f19601f820116820180604052508101906109999190611133565b506109a2610e99565b505050565b60025481565b60008060009054906101000a900473ffffffffffffffffffffffffffffffffffffffff1673ffffffffffffffffffffffffffffffffffffffff166370a08231836040518263ffffffff1660e01b8152600401610a0991906113c6565b60206040518083038186803b158015610a2157600080fd5b505afa158015610a35573d6000803e3d6000fd5b505050506040513d601f19601f82011682018060405250810190610a599190611218565b9050919050565b60606003805480602002602001604051908101604052809291908181526020018280548015610ae457602002820191906000526020600020905b8160009054906101000a900473ffffffffffffffffffffffffffffffffffffffff1673ffffffffffffffffffffffffffffffffffffffff1681526020019060010190808311610a9a575b5050505050905090565b600460009054906101000a900473ffffffffffffffffffffffffffffffffffffffff1681565b60038181548110610b2457600080fd5b906000526020600020016000915054906101000a900473ffffffffffffffffffffffffffffffffffffffff1681565b6000606060008060006060600160008873ffffffffffffffffffffffffffffffffffffffff1673ffffffffffffffffffffffffffffffffffffffff16815260200190815260200160002060000154600160008973ffffffffffffffffffffffffffffffffffffffff1673ffffffffffffffffffffffffffffffffffffffff168152602001908152602001600020600101600160008a73ffffffffffffffffffffffffffffffffffffffff1673ffffffffffffffffffffffffffffffffffffffff16815260200190815260200160002060020160009054906101000a900473ffffffffffffffffffffffffffffffffffffffff16600160008b73ffffffffffffffffffffffffffffffffffffffff1673ffffffffffffffffffffffffffffffffffffffff16815260200190815260200160002060030154600160008c73ffffffffffffffffffffffffffffffffffffffff1673ffffffffffffffffffffffffffffffffffffffff16815260200190815260200160002060040154600160008d73ffffffffffffffffffffffffffffffffffffffff1673ffffffffffffffffffffffffffffffffffffffff168152602001908152602001600020600501848054610d1a9061172c565b80601f0160208091040260200160405190810160405280929190818152602001828054610d469061172c565b8015610d935780601f10610d6857610100808354040283529160200191610d93565b820191906000526020600020905b815481529060010190602001808311610d7657829003601f168201915b50505050509450808054610da69061172c565b80601f0160208091040260200160405190810160405280929190818152602001828054610dd29061172c565b8015610e1f5780601f10610df457610100808354040283529160200191610e1f565b820191906000526020600020905b815481529060010190602001808311610e0257829003601f168201915b5050505050905095509550955095509550955091939550919395565b60008054906101000a900473ffffffffffffffffffffffffffffffffffffffff1681565b60004442600380549050604051602001610e7b93929190611389565b6040516020818303038152906040528051906020012060001c905090565b600067ffffffffffffffff811115610eda577f4e487b7100000000000000000000000000000000000000000000000000000000600052604160045260246000fd5b604051908082528060200260200182016040528015610f085781602001602082028036833780820191505090505b5060039080519060200190610f1e929190610fa7565b50565b828054610f2d9061172c565b90600052602060002090601f016020900481019282610f4f5760008555610f96565b82601f10610f6857805160ff1916838001178555610f96565b82800160010185558215610f96579182015b82811115610f95578251825591602001919060010190610f7a565b5b509050610fa39190611031565b5090565b828054828255906000526020600020908101928215611020579160200282015b8281111561101f5782518260006101000a81548173ffffffffffffffffffffffffffffffffffffffff021916908373ffffffffffffffffffffffffffffffffffffffff16021790555091602001919060010190610fc7565b5b50905061102d9190611031565b5090565b5b8082111561104a576000816000905550600101611032565b5090565b600061106161105c8461156d565b611548565b90508281526020810184848401111561107957600080fd5b6110848482856116ea565b509392505050565b60008135905061109b81611932565b92915050565b6000815190506110b081611949565b92915050565b600082601f8301126110c757600080fd5b81356110d784826020860161104e565b91505092915050565b6000813590506110ef81611960565b92915050565b60008151905061110481611960565b92915050565b60006020828403121561111c57600080fd5b600061112a8482850161108c565b91505092915050565b60006020828403121561114557600080fd5b6000611153848285016110a1565b91505092915050565b6000806000806080858703121561117257600080fd5b600085013567ffffffffffffffff81111561118c57600080fd5b611198878288016110b6565b94505060206111a9878288016110e0565b93505060406111ba878288016110e0565b925050606085013567ffffffffffffffff8111156111d757600080fd5b6111e3878288016110b6565b91505092959194509250565b60006020828403121561120157600080fd5b600061120f848285016110e0565b91505092915050565b60006020828403121561122a57600080fd5b6000611238848285016110f5565b91505092915050565b600061124d8383611259565b60208301905092915050565b6112628161167e565b82525050565b6112718161167e565b82525050565b6000611282826115ae565b61128c81856115d1565b93506112978361159e565b8060005b838110156112c85781516112af8882611241565b97506112ba836115c4565b92505060018101905061129b565b5085935050505092915050565b6112de816116c6565b82525050565b60006112ef826115b9565b6112f981856115e2565b93506113098185602086016116f9565b611312816118cf565b840191505092915050565b600061132a6015836115e2565b9150611335826118e0565b602082019050919050565b600061134d6013836115e2565b915061135882611909565b602082019050919050565b61136c816116bc565b82525050565b61138361137e826116bc565b6117d8565b82525050565b60006113958286611372565b6020820191506113a58285611372565b6020820191506113b58284611372565b602082019150819050949350505050565b60006020820190506113db6000830184611268565b92915050565b60006060820190506113f66000830186611268565b6114036020830185611268565b6114106040830184611363565b949350505050565b600060408201905061142d6000830185611268565b61143a6020830184611363565b9392505050565b6000602082019050818103600083015261145b8184611277565b905092915050565b600060208201905061147860008301846112d5565b92915050565b600060208201905081810360008301526114978161131d565b9050919050565b600060208201905081810360008301526114b781611340565b9050919050565b60006020820190506114d36000830184611363565b92915050565b600060c0820190506114ee6000830189611363565b818103602083015261150081886112e4565b905061150f6040830187611268565b61151c6060830186611363565b6115296080830185611363565b81810360a083015261153b81846112e4565b9050979650505050505050565b6000611552611563565b905061155e828261175e565b919050565b6000604051905090565b600067ffffffffffffffff821115611588576115876118a0565b5b611591826118cf565b9050602081019050919050565b6000819050602082019050919050565b600081519050919050565b600081519050919050565b6000602082019050919050565b600082825260208201905092915050565b600082825260208201905092915050565b60006115fe826116bc565b9150611609836116bc565b92508261161957611618611842565b5b828204905092915050565b600061162f826116bc565b915061163a836116bc565b9250817fffffffffffffffffffffffffffffffffffffffffffffffffffffffffffffffff048311821515161561167357611672611813565b5b828202905092915050565b60006116898261169c565b9050919050565b60008115159050919050565b600073ffffffffffffffffffffffffffffffffffffffff82169050919050565b6000819050919050565b60006116d1826116d8565b9050919050565b60006116e38261169c565b9050919050565b82818337600083830152505050565b60005b838110156117175780820151818401526020810190506116fc565b83811115611726576000848401525b50505050565b6000600282049050600182168061174457607f821691505b6020821081141561175857611757611871565b5b50919050565b611767826118cf565b810181811067ffffffffffffffff82111715611786576117856118a0565b5b80604052505050565b600061179a826116bc565b91507fffffffffffffffffffffffffffffffffffffffffffffffffffffffffffffffff8214156117cd576117cc611813565b5b600182019050919050565b6000819050919050565b60006117ed826116bc565b91506117f8836116bc565b92508261180857611807611842565b5b828206905092915050565b7f4e487b7100000000000000000000000000000000000000000000000000000000600052601160045260246000fd5b7f4e487b7100000000000000000000000000000000000000000000000000000000600052601260045260246000fd5b7f4e487b7100000000000000000000000000000000000000000000000000000000600052602260045260246000fd5b7f4e487b7100000000000000000000000000000000000000000000000000000000600052604160045260246000fd5b6000601f19601f8301169050919050565b7f596f7520617265206e6f7420746865206f776e65720000000000000000000000600082015250565b7f4265742061746c65617374203120746f6b656e00000000000000000000000000600082015250565b61193b8161167e565b811461194657600080fd5b50565b61195281611690565b811461195d57600080fd5b50565b611969816116bc565b811461197457600080fd5b5056fea26469706673582212203ae79ab7b7153ac674e4eb2b4fe24cced9965527881732329c3ba5a8249605f364736f6c63430008010033",
  "immutableReferences": {},
  "source": "pragma solidity ^0.8.0;\r\n\r\nimport \"./SampleToken.sol\";\r\n\r\ncontract Lottery {\r\n\r\n  IERC20 public token;\r\n\r\n  event Transfer(address _from, address _destAddr, uint _amount);\r\n\r\n  struct Player {\r\n    uint id;\r\n    string date;\r\n    address wallet_address;\r\n    uint amount;\r\n    uint entry;\r\n    string status;\r\n  }\r\n\r\n  mapping (address => Player) players;\r\n\r\n  // List of players registered in lottery\r\n  uint public playerId;\r\n  address[] public playerAccounts;\r\n  address public owner;\r\n\r\n  constructor(IERC20 _token) public {\r\n    token = _token;\r\n    owner = msg.sender;\r\n  }\r\n\r\n  modifier onlyOwner() {\r\n    require(owner == msg.sender, \"You are not the owner\");\r\n    _;\r\n  }\r\n\r\n  function getPlayers() public view returns (address[] memory) {\r\n    return playerAccounts;\r\n  }\r\n\r\n  function getPlayerByAddress(address _address) view public returns (uint, string memory, address, uint, uint, string memory) {\r\n     return (players[_address].id, players[_address].date, players[_address].wallet_address, players[_address].amount, players[_address].entry, players[_address].status);\r\n  }\r\n\r\n  function acceptToken(string memory _date, uint _amount, uint _entry, string memory _status) external {\r\n\r\n    address _from = msg.sender;\r\n    address _to = address(this);\r\n\r\n    // makes sure that the owner cannot participate in Lottery\r\n    require(_from != owner);\r\n    require(_amount > 0, \"Bet atleast 1 token\");\r\n\r\n    // transfer token from player to contract\r\n    token.transferFrom(_from, _to, _amount);\r\n\r\n    // sending participant details on array\r\n    players[_from].id = playerId++;\r\n    players[_from].date = _date;\r\n    players[_from].wallet_address = _from;\r\n    players[_from].amount = _amount;\r\n    players[_from].entry = _entry;\r\n    players[_from].status = _status;\r\n\r\n    // pushing the account conducting the transaction onto the players array as a payable address\r\n    for (uint count; count < _entry; count++) {\r\n      playerAccounts.push(_from);\r\n    }\r\n\r\n    emit Transfer(_from, _to, _amount);\r\n  }\r\n\r\n  function getTokenBalanceOf(address addr) public view returns (uint) {\r\n    return token.balanceOf(addr);\r\n  }\r\n\r\n  function getBalance() public view onlyOwner returns(uint) {\r\n    // returns the contract balance\r\n    return address(this).balance;\r\n  }\r\n\r\n  function random() internal view returns(uint) {\r\n    return uint(keccak256(abi.encodePacked(block.difficulty, block.timestamp, playerAccounts.length)));\r\n  }\r\n\r\n  function pickWinner() public onlyOwner {\r\n    // makes sure that we have enough players in the lottery\r\n    // require(players.length >= 3, \"Not enough players in the lottery\");\r\n\r\n    address _winner;\r\n\r\n    // selects the winner with the random number\r\n    _winner = playerAccounts[random() % playerAccounts.length];\r\n    uint _prize = (getTokenBalanceOf(address(this)) * 70) / 100;\r\n    uint _burn_token = (getTokenBalanceOf(address(this)) * 30) / 100;\r\n\r\n    // transfers balance to winner => 70% of lottery pool\r\n    token.transfer(_winner, _prize);\r\n\r\n    // burn the rest of the pool => 30% of lottery pool\r\n    token.transfer(owner, _burn_token);\r\n\r\n    // resets the players array once someone is picked\r\n    resetLottery();\r\n  }\r\n\r\n  function resetLottery() internal {\r\n    playerAccounts = new address[](0);\r\n  }\r\n\r\n}\r\n",
  "sourcePath": "C:\\Users\\lloyd.montero\\Documents\\blckchn\\lottery\\practice_apps\\lottery-v3\\src\\contracts\\Lottery.sol",
  "compiler": {
    "name": "solc",
    "version": "0.8.1+commit.df193b15.Emscripten.clang"
  },
  "schemaVersion": "3.4.3",
  "updatedAt": "2022-01-10T09:59:19.600Z",
  "networkType": "ethereum",
  "devdoc": {
    "kind": "dev",
    "methods": {},
    "version": 1
  },
  "userdoc": {
    "kind": "user",
    "methods": {},
    "version": 1
  }
}