{
  "contractName": "Lottery",
  "abi": [
    {
      "inputs": [
        {
          "internalType": "contract IERC20",
          "name": "_token",
          "type": "address"
        }
      ],
      "stateMutability": "nonpayable",
      "type": "constructor"
    },
    {
      "anonymous": false,
      "inputs": [
        {
          "indexed": false,
          "internalType": "address",
          "name": "_from",
          "type": "address"
        },
        {
          "indexed": false,
          "internalType": "address",
          "name": "_destAddr",
          "type": "address"
        },
        {
          "indexed": false,
          "internalType": "uint256",
          "name": "_amount",
          "type": "uint256"
        }
      ],
      "name": "Transfer",
      "type": "event"
    },
    {
      "inputs": [],
      "name": "owner",
      "outputs": [
        {
          "internalType": "address",
          "name": "",
          "type": "address"
        }
      ],
      "stateMutability": "view",
      "type": "function",
      "constant": true
    },
    {
      "inputs": [
        {
          "internalType": "uint256",
          "name": "",
          "type": "uint256"
        }
      ],
      "name": "playerAccounts",
      "outputs": [
        {
          "internalType": "address",
          "name": "",
          "type": "address"
        }
      ],
      "stateMutability": "view",
      "type": "function",
      "constant": true
    },
    {
      "inputs": [],
      "name": "token",
      "outputs": [
        {
          "internalType": "contract IERC20",
          "name": "",
          "type": "address"
        }
      ],
      "stateMutability": "view",
      "type": "function",
      "constant": true
    },
    {
      "inputs": [],
      "name": "getPlayers",
      "outputs": [
        {
          "internalType": "address[]",
          "name": "",
          "type": "address[]"
        }
      ],
      "stateMutability": "view",
      "type": "function",
      "constant": true
    },
    {
      "inputs": [
        {
          "internalType": "address",
          "name": "_address",
          "type": "address"
        }
      ],
      "name": "getPlayerByAddress",
      "outputs": [
        {
          "internalType": "uint256",
          "name": "",
          "type": "uint256"
        },
        {
          "internalType": "string",
          "name": "",
          "type": "string"
        },
        {
          "internalType": "address",
          "name": "",
          "type": "address"
        },
        {
          "internalType": "uint256",
          "name": "",
          "type": "uint256"
        },
        {
          "internalType": "uint256",
          "name": "",
          "type": "uint256"
        },
        {
          "internalType": "string",
          "name": "",
          "type": "string"
        }
      ],
      "stateMutability": "view",
      "type": "function",
      "constant": true
    },
    {
      "inputs": [
        {
          "internalType": "uint256",
          "name": "_id",
          "type": "uint256"
        },
        {
          "internalType": "string",
          "name": "_date",
          "type": "string"
        },
        {
          "internalType": "uint256",
          "name": "_amount",
          "type": "uint256"
        },
        {
          "internalType": "uint256",
          "name": "_entry",
          "type": "uint256"
        },
        {
          "internalType": "string",
          "name": "_status",
          "type": "string"
        }
      ],
      "name": "acceptToken",
      "outputs": [],
      "stateMutability": "nonpayable",
      "type": "function"
    },
    {
      "inputs": [
        {
          "internalType": "address",
          "name": "addr",
          "type": "address"
        }
      ],
      "name": "getTokenBalanceOf",
      "outputs": [
        {
          "internalType": "uint256",
          "name": "",
          "type": "uint256"
        }
      ],
      "stateMutability": "view",
      "type": "function",
      "constant": true
    },
    {
      "inputs": [],
      "name": "getBalance",
      "outputs": [
        {
          "internalType": "uint256",
          "name": "",
          "type": "uint256"
        }
      ],
      "stateMutability": "view",
      "type": "function",
      "constant": true
    },
    {
      "inputs": [],
      "name": "pickWinner",
      "outputs": [],
      "stateMutability": "nonpayable",
      "type": "function"
    }
  ],
  "bytecode": "0x60806040523480156200001157600080fd5b5060405162001a8938038062001a898339818101604052810190620000379190620000d6565b806000806101000a81548173ffffffffffffffffffffffffffffffffffffffff021916908373ffffffffffffffffffffffffffffffffffffffff16021790555033600360006101000a81548173ffffffffffffffffffffffffffffffffffffffff021916908373ffffffffffffffffffffffffffffffffffffffff1602179055505062000164565b600081519050620000d0816200014a565b92915050565b600060208284031215620000e957600080fd5b6000620000f984828501620000bf565b91505092915050565b60006200010f826200012a565b9050919050565b6000620001238262000102565b9050919050565b600073ffffffffffffffffffffffffffffffffffffffff82169050919050565b620001558162000116565b81146200016157600080fd5b50565b61191580620001746000396000f3fe608060405234801561001057600080fd5b50600436106100935760003560e01c80638da5cb5b116100665780638da5cb5b1461010e57806390c5eda61461012c5780639d214bcf14610148578063d4d5126914610178578063fc0c546a146101ad57610093565b806312065fe0146100985780635d495aea146100b657806383894548146100c05780638b5b9ccc146100f0575b600080fd5b6100a06101cb565b6040516100ad919061146f565b60405180910390f35b6100be610263565b005b6100da60048036038101906100d591906110a7565b610547565b6040516100e7919061146f565b60405180910390f35b6100f86105fa565b60405161010591906113f2565b60405180910390f35b610116610688565b6040516101239190611377565b60405180910390f35b6101466004803603810190610141919061114b565b6106ae565b005b610162600480360381019061015d91906110f9565b610ab1565b60405161016f9190611377565b60405180910390f35b610192600480360381019061018d91906110a7565b610af0565b6040516101a49695949392919061148a565b60405180910390f35b6101b5610dd8565b6040516101c29190611414565b60405180910390f35b60003373ffffffffffffffffffffffffffffffffffffffff16600360009054906101000a900473ffffffffffffffffffffffffffffffffffffffff1673ffffffffffffffffffffffffffffffffffffffff161461025d576040517f08c379a00000000000000000000000000000000000000000000000000000000081526004016102549061142f565b60405180910390fd5b47905090565b3373ffffffffffffffffffffffffffffffffffffffff16600360009054906101000a900473ffffffffffffffffffffffffffffffffffffffff1673ffffffffffffffffffffffffffffffffffffffff16146102f3576040517f08c379a00000000000000000000000000000000000000000000000000000000081526004016102ea9061142f565b60405180910390fd5b600060028080549050610304610dfc565b61030e919061174a565b81548110610345577f4e487b7100000000000000000000000000000000000000000000000000000000600052603260045260246000fd5b9060005260206000200160009054906101000a900473ffffffffffffffffffffffffffffffffffffffff16905060006064604661038130610547565b61038b91906115d5565b61039591906115a4565b905060006064601e6103a630610547565b6103b091906115d5565b6103ba91906115a4565b905060008054906101000a900473ffffffffffffffffffffffffffffffffffffffff1673ffffffffffffffffffffffffffffffffffffffff1663a9059cbb84846040518363ffffffff1660e01b81526004016104179291906113c9565b602060405180830381600087803b15801561043157600080fd5b505af1158015610445573d6000803e3d6000fd5b505050506040513d601f19601f8201168201806040525081019061046991906110d0565b5060008054906101000a900473ffffffffffffffffffffffffffffffffffffffff1673ffffffffffffffffffffffffffffffffffffffff1663a9059cbb600360009054906101000a900473ffffffffffffffffffffffffffffffffffffffff16836040518363ffffffff1660e01b81526004016104e79291906113c9565b602060405180830381600087803b15801561050157600080fd5b505af1158015610515573d6000803e3d6000fd5b505050506040513d601f19601f8201168201806040525081019061053991906110d0565b50610542610e36565b505050565b60008060009054906101000a900473ffffffffffffffffffffffffffffffffffffffff1673ffffffffffffffffffffffffffffffffffffffff166370a08231836040518263ffffffff1660e01b81526004016105a39190611377565b60206040518083038186803b1580156105bb57600080fd5b505afa1580156105cf573d6000803e3d6000fd5b505050506040513d601f19601f820116820180604052508101906105f39190611122565b9050919050565b6060600280548060200260200160405190810160405280929190818152602001828054801561067e57602002820191906000526020600020905b8160009054906101000a900473ffffffffffffffffffffffffffffffffffffffff1673ffffffffffffffffffffffffffffffffffffffff1681526020019060010190808311610634575b5050505050905090565b600360009054906101000a900473ffffffffffffffffffffffffffffffffffffffff1681565b60003390506000309050600360009054906101000a900473ffffffffffffffffffffffffffffffffffffffff1673ffffffffffffffffffffffffffffffffffffffff168273ffffffffffffffffffffffffffffffffffffffff16141561071357600080fd5b60008511610756576040517f08c379a000000000000000000000000000000000000000000000000000000000815260040161074d9061144f565b60405180910390fd5b60008054906101000a900473ffffffffffffffffffffffffffffffffffffffff1673ffffffffffffffffffffffffffffffffffffffff166323b872dd8383886040518463ffffffff1660e01b81526004016107b393929190611392565b602060405180830381600087803b1580156107cd57600080fd5b505af11580156107e1573d6000803e3d6000fd5b505050506040513d601f19601f8201168201806040525081019061080591906110d0565b5086600160008473ffffffffffffffffffffffffffffffffffffffff1673ffffffffffffffffffffffffffffffffffffffff1681526020019081526020016000206000018190555085600160008473ffffffffffffffffffffffffffffffffffffffff1673ffffffffffffffffffffffffffffffffffffffff16815260200190815260200160002060010190805190602001906108a3929190610ebe565b5081600160008473ffffffffffffffffffffffffffffffffffffffff1673ffffffffffffffffffffffffffffffffffffffff16815260200190815260200160002060020160006101000a81548173ffffffffffffffffffffffffffffffffffffffff021916908373ffffffffffffffffffffffffffffffffffffffff16021790555084600160008473ffffffffffffffffffffffffffffffffffffffff1673ffffffffffffffffffffffffffffffffffffffff1681526020019081526020016000206003018190555083600160008473ffffffffffffffffffffffffffffffffffffffff1673ffffffffffffffffffffffffffffffffffffffff1681526020019081526020016000206004018190555082600160008473ffffffffffffffffffffffffffffffffffffffff1673ffffffffffffffffffffffffffffffffffffffff1681526020019081526020016000206005019080519060200190610a09929190610ebe565b506002829080600181540180825580915050600190039060005260206000200160009091909190916101000a81548173ffffffffffffffffffffffffffffffffffffffff021916908373ffffffffffffffffffffffffffffffffffffffff1602179055507fddf252ad1be2c89b69c2b068fc378daa952ba7f163c4a11628f55a4df523b3ef828287604051610aa093929190611392565b60405180910390a150505050505050565b60028181548110610ac157600080fd5b906000526020600020016000915054906101000a900473ffffffffffffffffffffffffffffffffffffffff1681565b6000606060008060006060600160008873ffffffffffffffffffffffffffffffffffffffff1673ffffffffffffffffffffffffffffffffffffffff16815260200190815260200160002060000154600160008973ffffffffffffffffffffffffffffffffffffffff1673ffffffffffffffffffffffffffffffffffffffff168152602001908152602001600020600101600160008a73ffffffffffffffffffffffffffffffffffffffff1673ffffffffffffffffffffffffffffffffffffffff16815260200190815260200160002060020160009054906101000a900473ffffffffffffffffffffffffffffffffffffffff16600160008b73ffffffffffffffffffffffffffffffffffffffff1673ffffffffffffffffffffffffffffffffffffffff16815260200190815260200160002060030154600160008c73ffffffffffffffffffffffffffffffffffffffff1673ffffffffffffffffffffffffffffffffffffffff16815260200190815260200160002060040154600160008d73ffffffffffffffffffffffffffffffffffffffff1673ffffffffffffffffffffffffffffffffffffffff168152602001908152602001600020600501848054610cb7906116dd565b80601f0160208091040260200160405190810160405280929190818152602001828054610ce3906116dd565b8015610d305780601f10610d0557610100808354040283529160200191610d30565b820191906000526020600020905b815481529060010190602001808311610d1357829003601f168201915b50505050509450808054610d43906116dd565b80601f0160208091040260200160405190810160405280929190818152602001828054610d6f906116dd565b8015610dbc5780601f10610d9157610100808354040283529160200191610dbc565b820191906000526020600020905b815481529060010190602001808311610d9f57829003601f168201915b5050505050905095509550955095509550955091939550919395565b60008054906101000a900473ffffffffffffffffffffffffffffffffffffffff1681565b60004442600280549050604051602001610e189392919061133a565b6040516020818303038152906040528051906020012060001c905090565b600067ffffffffffffffff811115610e77577f4e487b7100000000000000000000000000000000000000000000000000000000600052604160045260246000fd5b604051908082528060200260200182016040528015610ea55781602001602082028036833780820191505090505b5060029080519060200190610ebb929190610f44565b50565b828054610eca906116dd565b90600052602060002090601f016020900481019282610eec5760008555610f33565b82601f10610f0557805160ff1916838001178555610f33565b82800160010185558215610f33579182015b82811115610f32578251825591602001919060010190610f17565b5b509050610f409190610fce565b5090565b828054828255906000526020600020908101928215610fbd579160200282015b82811115610fbc5782518260006101000a81548173ffffffffffffffffffffffffffffffffffffffff021916908373ffffffffffffffffffffffffffffffffffffffff16021790555091602001919060010190610f64565b5b509050610fca9190610fce565b5090565b5b80821115610fe7576000816000905550600101610fcf565b5090565b6000610ffe610ff98461151e565b6114f9565b90508281526020810184848401111561101657600080fd5b61102184828561169b565b509392505050565b6000813590506110388161189a565b92915050565b60008151905061104d816118b1565b92915050565b600082601f83011261106457600080fd5b8135611074848260208601610feb565b91505092915050565b60008135905061108c816118c8565b92915050565b6000815190506110a1816118c8565b92915050565b6000602082840312156110b957600080fd5b60006110c784828501611029565b91505092915050565b6000602082840312156110e257600080fd5b60006110f08482850161103e565b91505092915050565b60006020828403121561110b57600080fd5b60006111198482850161107d565b91505092915050565b60006020828403121561113457600080fd5b600061114284828501611092565b91505092915050565b600080600080600060a0868803121561116357600080fd5b60006111718882890161107d565b955050602086013567ffffffffffffffff81111561118e57600080fd5b61119a88828901611053565b94505060406111ab8882890161107d565b93505060606111bc8882890161107d565b925050608086013567ffffffffffffffff8111156111d957600080fd5b6111e588828901611053565b9150509295509295909350565b60006111fe838361120a565b60208301905092915050565b6112138161162f565b82525050565b6112228161162f565b82525050565b60006112338261155f565b61123d8185611582565b93506112488361154f565b8060005b8381101561127957815161126088826111f2565b975061126b83611575565b92505060018101905061124c565b5085935050505092915050565b61128f81611677565b82525050565b60006112a08261156a565b6112aa8185611593565b93506112ba8185602086016116aa565b6112c381611837565b840191505092915050565b60006112db601583611593565b91506112e682611848565b602082019050919050565b60006112fe601383611593565b915061130982611871565b602082019050919050565b61131d8161166d565b82525050565b61133461132f8261166d565b611740565b82525050565b60006113468286611323565b6020820191506113568285611323565b6020820191506113668284611323565b602082019150819050949350505050565b600060208201905061138c6000830184611219565b92915050565b60006060820190506113a76000830186611219565b6113b46020830185611219565b6113c16040830184611314565b949350505050565b60006040820190506113de6000830185611219565b6113eb6020830184611314565b9392505050565b6000602082019050818103600083015261140c8184611228565b905092915050565b60006020820190506114296000830184611286565b92915050565b60006020820190508181036000830152611448816112ce565b9050919050565b60006020820190508181036000830152611468816112f1565b9050919050565b60006020820190506114846000830184611314565b92915050565b600060c08201905061149f6000830189611314565b81810360208301526114b18188611295565b90506114c06040830187611219565b6114cd6060830186611314565b6114da6080830185611314565b81810360a08301526114ec8184611295565b9050979650505050505050565b6000611503611514565b905061150f828261170f565b919050565b6000604051905090565b600067ffffffffffffffff82111561153957611538611808565b5b61154282611837565b9050602081019050919050565b6000819050602082019050919050565b600081519050919050565b600081519050919050565b6000602082019050919050565b600082825260208201905092915050565b600082825260208201905092915050565b60006115af8261166d565b91506115ba8361166d565b9250826115ca576115c96117aa565b5b828204905092915050565b60006115e08261166d565b91506115eb8361166d565b9250817fffffffffffffffffffffffffffffffffffffffffffffffffffffffffffffffff04831182151516156116245761162361177b565b5b828202905092915050565b600061163a8261164d565b9050919050565b60008115159050919050565b600073ffffffffffffffffffffffffffffffffffffffff82169050919050565b6000819050919050565b600061168282611689565b9050919050565b60006116948261164d565b9050919050565b82818337600083830152505050565b60005b838110156116c85780820151818401526020810190506116ad565b838111156116d7576000848401525b50505050565b600060028204905060018216806116f557607f821691505b60208210811415611709576117086117d9565b5b50919050565b61171882611837565b810181811067ffffffffffffffff8211171561173757611736611808565b5b80604052505050565b6000819050919050565b60006117558261166d565b91506117608361166d565b9250826117705761176f6117aa565b5b828206905092915050565b7f4e487b7100000000000000000000000000000000000000000000000000000000600052601160045260246000fd5b7f4e487b7100000000000000000000000000000000000000000000000000000000600052601260045260246000fd5b7f4e487b7100000000000000000000000000000000000000000000000000000000600052602260045260246000fd5b7f4e487b7100000000000000000000000000000000000000000000000000000000600052604160045260246000fd5b6000601f19601f8301169050919050565b7f596f7520617265206e6f7420746865206f776e65720000000000000000000000600082015250565b7f4265742061746c65617374203120746f6b656e00000000000000000000000000600082015250565b6118a38161162f565b81146118ae57600080fd5b50565b6118ba81611641565b81146118c557600080fd5b50565b6118d18161166d565b81146118dc57600080fd5b5056fea2646970667358221220b48499d97d887a532938592b12b6a68d91b5a6d286a46392afff6f83b7ef4cc564736f6c63430008010033",
  "immutableReferences": {},
  "source": "pragma solidity ^0.8.0;\r\n\r\nimport \"./SampleToken.sol\";\r\n\r\ncontract Lottery {\r\n\r\n  IERC20 public token;\r\n\r\n  event Transfer(address _from, address _destAddr, uint _amount);\r\n\r\n  struct Player {\r\n    uint id;\r\n    string date;\r\n    address wallet_address;\r\n    uint amount;\r\n    uint entry;\r\n    string status;\r\n  }\r\n\r\n  mapping (address => Player) players;\r\n\r\n  // List of players registered in lottery\r\n  address[] public playerAccounts;\r\n  address public owner;\r\n\r\n  constructor(IERC20 _token) public {\r\n    token = _token;\r\n    owner = msg.sender;\r\n  }\r\n\r\n  modifier onlyOwner() {\r\n    require(owner == msg.sender, \"You are not the owner\");\r\n    _;\r\n  }\r\n\r\n  function getPlayers() public view returns (address[] memory) {\r\n    return playerAccounts;\r\n  }\r\n\r\n  function getPlayerByAddress(address _address) view public returns (uint, string memory, address, uint, uint, string memory) {\r\n     return (players[_address].id, players[_address].date, players[_address].wallet_address, players[_address].amount, players[_address].entry, players[_address].status);\r\n  }\r\n\r\n  function acceptToken(uint _id, string memory _date, uint _amount, uint _entry, string memory _status) external {\r\n\r\n    address _from = msg.sender;\r\n    address _to = address(this);\r\n\r\n    // makes sure that the owner cannot participate in Lottery\r\n    require(_from != owner);\r\n    require(_amount > 0, \"Bet atleast 1 token\");\r\n\r\n    // transfer token from player to contract\r\n    token.transferFrom(_from, _to, _amount);\r\n\r\n    // sending participant details on array\r\n    players[_from].id = _id;\r\n    players[_from].date = _date;\r\n    players[_from].wallet_address = _from;\r\n    players[_from].amount = _amount;\r\n    players[_from].entry = _entry;\r\n    players[_from].status = _status;\r\n\r\n    // pushing the account conducting the transaction onto the players array as a payable address\r\n    playerAccounts.push(_from);\r\n\r\n    emit Transfer(_from, _to, _amount);\r\n  }\r\n\r\n  function getTokenBalanceOf(address addr) public view returns (uint) {\r\n    return token.balanceOf(addr);\r\n  }\r\n\r\n  function getBalance() public view onlyOwner returns(uint) {\r\n    // returns the contract balance\r\n    return address(this).balance;\r\n  }\r\n\r\n  function random() internal view returns(uint) {\r\n    return uint(keccak256(abi.encodePacked(block.difficulty, block.timestamp, playerAccounts.length)));\r\n  }\r\n\r\n  function pickWinner() public onlyOwner {\r\n    // makes sure that we have enough players in the lottery\r\n    // require(players.length >= 3, \"Not enough players in the lottery\");\r\n\r\n    address _winner;\r\n\r\n    // selects the winner with the random number\r\n    _winner = playerAccounts[random() % playerAccounts.length];\r\n    uint _prize = (getTokenBalanceOf(address(this)) * 70) / 100;\r\n    uint _burn_token = (getTokenBalanceOf(address(this)) * 30) / 100;\r\n\r\n    // transfers balance to winner => 70% of lottery pool\r\n    token.transfer(_winner, _prize);\r\n\r\n    // burn the rest of the pool => 30% of lottery pool\r\n    token.transfer(owner, _burn_token);\r\n\r\n    // resets the players array once someone is picked\r\n    resetLottery();\r\n  }\r\n\r\n  function resetLottery() internal {\r\n    playerAccounts = new address[](0);\r\n  }\r\n\r\n}\r\n",
  "sourcePath": "D:\\programming\\blockchain\\dapp\\project\\lottery-v3\\src\\contracts\\Lottery.sol",
  "compiler": {
    "name": "solc",
    "version": "0.8.1+commit.df193b15.Emscripten.clang"
  },
  "schemaVersion": "3.4.4",
  "updatedAt": "2022-01-10T12:06:53.387Z",
  "networkType": "ethereum",
  "devdoc": {
    "kind": "dev",
    "methods": {},
    "version": 1
  },
  "userdoc": {
    "kind": "user",
    "methods": {},
    "version": 1
  }
}