{
  "contractName": "Lottery",
  "abi": [
    {
      "inputs": [
        {
          "internalType": "contract IERC20",
          "name": "_token",
          "type": "address"
        }
      ],
      "stateMutability": "nonpayable",
      "type": "constructor"
    },
    {
      "anonymous": false,
      "inputs": [
        {
          "indexed": false,
          "internalType": "address",
          "name": "_from",
          "type": "address"
        },
        {
          "indexed": false,
          "internalType": "address",
          "name": "_destAddr",
          "type": "address"
        },
        {
          "indexed": false,
          "internalType": "uint256",
          "name": "_amount",
          "type": "uint256"
        }
      ],
      "name": "Transfer",
      "type": "event"
    },
    {
      "inputs": [],
      "name": "owner",
      "outputs": [
        {
          "internalType": "address",
          "name": "",
          "type": "address"
        }
      ],
      "stateMutability": "view",
      "type": "function",
      "constant": true
    },
    {
      "inputs": [
        {
          "internalType": "uint256",
          "name": "",
          "type": "uint256"
        }
      ],
      "name": "players",
      "outputs": [
        {
          "internalType": "address payable",
          "name": "",
          "type": "address"
        }
      ],
      "stateMutability": "view",
      "type": "function",
      "constant": true
    },
    {
      "inputs": [],
      "name": "token",
      "outputs": [
        {
          "internalType": "contract IERC20",
          "name": "",
          "type": "address"
        }
      ],
      "stateMutability": "view",
      "type": "function",
      "constant": true
    },
    {
      "inputs": [
        {
          "internalType": "uint256",
          "name": "amount",
          "type": "uint256"
        }
      ],
      "name": "acceptToken",
      "outputs": [],
      "stateMutability": "nonpayable",
      "type": "function"
    },
    {
      "inputs": [
        {
          "internalType": "address",
          "name": "addr",
          "type": "address"
        }
      ],
      "name": "getTokenBalanceOf",
      "outputs": [
        {
          "internalType": "uint256",
          "name": "",
          "type": "uint256"
        }
      ],
      "stateMutability": "view",
      "type": "function",
      "constant": true
    },
    {
      "inputs": [],
      "name": "getBalance",
      "outputs": [
        {
          "internalType": "uint256",
          "name": "",
          "type": "uint256"
        }
      ],
      "stateMutability": "view",
      "type": "function",
      "constant": true
    },
    {
      "inputs": [],
      "name": "pickWinner",
      "outputs": [],
      "stateMutability": "nonpayable",
      "type": "function"
    }
  ],
  "bytecode": "0x60806040523480156200001157600080fd5b50604051620010ba380380620010ba8339818101604052810190620000379190620000d6565b806000806101000a81548173ffffffffffffffffffffffffffffffffffffffff021916908373ffffffffffffffffffffffffffffffffffffffff16021790555033600260006101000a81548173ffffffffffffffffffffffffffffffffffffffff021916908373ffffffffffffffffffffffffffffffffffffffff1602179055505062000164565b600081519050620000d0816200014a565b92915050565b600060208284031215620000e957600080fd5b6000620000f984828501620000bf565b91505092915050565b60006200010f826200012a565b9050919050565b6000620001238262000102565b9050919050565b600073ffffffffffffffffffffffffffffffffffffffff82169050919050565b620001558162000116565b81146200016157600080fd5b50565b610f4680620001746000396000f3fe608060405234801561001057600080fd5b506004361061007d5760003560e01c80638da5cb5b1161005b5780638da5cb5b146100da578063aa3907ea146100f8578063f71d96cb14610114578063fc0c546a146101445761007d565b806312065fe0146100825780635d495aea146100a057806383894548146100aa575b600080fd5b61008a610162565b6040516100979190610c75565b60405180910390f35b6100a86101fa565b005b6100c460048036038101906100bf91906109d2565b6104de565b6040516100d19190610c75565b60405180910390f35b6100e2610591565b6040516100ef9190610b5b565b60405180910390f35b610112600480360381019061010d9190610a24565b6105b7565b005b61012e60048036038101906101299190610a24565b6107b2565b60405161013b9190610b76565b60405180910390f35b61014c6107f1565b6040516101599190610c1a565b60405180910390f35b60003373ffffffffffffffffffffffffffffffffffffffff16600260009054906101000a900473ffffffffffffffffffffffffffffffffffffffff1673ffffffffffffffffffffffffffffffffffffffff16146101f4576040517f08c379a00000000000000000000000000000000000000000000000000000000081526004016101eb90610c35565b60405180910390fd5b47905090565b3373ffffffffffffffffffffffffffffffffffffffff16600260009054906101000a900473ffffffffffffffffffffffffffffffffffffffff1673ffffffffffffffffffffffffffffffffffffffff161461028a576040517f08c379a000000000000000000000000000000000000000000000000000000000815260040161028190610c35565b60405180910390fd5b60006001808054905061029b610815565b6102a59190610dea565b815481106102dc577f4e487b7100000000000000000000000000000000000000000000000000000000600052603260045260246000fd5b9060005260206000200160009054906101000a900473ffffffffffffffffffffffffffffffffffffffff169050600060646046610318306104de565b6103229190610cd2565b61032c9190610ca1565b905060006064601e61033d306104de565b6103479190610cd2565b6103519190610ca1565b905060008054906101000a900473ffffffffffffffffffffffffffffffffffffffff1673ffffffffffffffffffffffffffffffffffffffff1663a9059cbb84846040518363ffffffff1660e01b81526004016103ae929190610b91565b602060405180830381600087803b1580156103c857600080fd5b505af11580156103dc573d6000803e3d6000fd5b505050506040513d601f19601f8201168201806040525081019061040091906109fb565b5060008054906101000a900473ffffffffffffffffffffffffffffffffffffffff1673ffffffffffffffffffffffffffffffffffffffff1663a9059cbb600260009054906101000a900473ffffffffffffffffffffffffffffffffffffffff16836040518363ffffffff1660e01b815260040161047e929190610bf1565b602060405180830381600087803b15801561049857600080fd5b505af11580156104ac573d6000803e3d6000fd5b505050506040513d601f19601f820116820180604052508101906104d091906109fb565b506104d961084f565b505050565b60008060009054906101000a900473ffffffffffffffffffffffffffffffffffffffff1673ffffffffffffffffffffffffffffffffffffffff166370a08231836040518263ffffffff1660e01b815260040161053a9190610b5b565b60206040518083038186803b15801561055257600080fd5b505afa158015610566573d6000803e3d6000fd5b505050506040513d601f19601f8201168201806040525081019061058a9190610a4d565b9050919050565b600260009054906101000a900473ffffffffffffffffffffffffffffffffffffffff1681565b60003390506000309050600260009054906101000a900473ffffffffffffffffffffffffffffffffffffffff1673ffffffffffffffffffffffffffffffffffffffff168273ffffffffffffffffffffffffffffffffffffffff16141561061c57600080fd5b6000831161065f576040517f08c379a000000000000000000000000000000000000000000000000000000000815260040161065690610c55565b60405180910390fd5b60008054906101000a900473ffffffffffffffffffffffffffffffffffffffff1673ffffffffffffffffffffffffffffffffffffffff166323b872dd8383866040518463ffffffff1660e01b81526004016106bc93929190610bba565b602060405180830381600087803b1580156106d657600080fd5b505af11580156106ea573d6000803e3d6000fd5b505050506040513d601f19601f8201168201806040525081019061070e91906109fb565b506001829080600181540180825580915050600190039060005260206000200160009091909190916101000a81548173ffffffffffffffffffffffffffffffffffffffff021916908373ffffffffffffffffffffffffffffffffffffffff1602179055507fddf252ad1be2c89b69c2b068fc378daa952ba7f163c4a11628f55a4df523b3ef8282856040516107a593929190610bba565b60405180910390a1505050565b600181815481106107c257600080fd5b906000526020600020016000915054906101000a900473ffffffffffffffffffffffffffffffffffffffff1681565b60008054906101000a900473ffffffffffffffffffffffffffffffffffffffff1681565b6000444260018054905060405160200161083193929190610b1e565b6040516020818303038152906040528051906020012060001c905090565b600067ffffffffffffffff811115610890577f4e487b7100000000000000000000000000000000000000000000000000000000600052604160045260246000fd5b6040519080825280602002602001820160405280156108be5781602001602082028036833780820191505090505b50600190805190602001906108d49291906108d7565b50565b828054828255906000526020600020908101928215610950579160200282015b8281111561094f5782518260006101000a81548173ffffffffffffffffffffffffffffffffffffffff021916908373ffffffffffffffffffffffffffffffffffffffff160217905550916020019190600101906108f7565b5b50905061095d9190610961565b5090565b5b8082111561097a576000816000905550600101610962565b5090565b60008135905061098d81610ecb565b92915050565b6000815190506109a281610ee2565b92915050565b6000813590506109b781610ef9565b92915050565b6000815190506109cc81610ef9565b92915050565b6000602082840312156109e457600080fd5b60006109f28482850161097e565b91505092915050565b600060208284031215610a0d57600080fd5b6000610a1b84828501610993565b91505092915050565b600060208284031215610a3657600080fd5b6000610a44848285016109a8565b91505092915050565b600060208284031215610a5f57600080fd5b6000610a6d848285016109bd565b91505092915050565b610a7f81610d86565b82525050565b610a8e81610d3e565b82525050565b610a9d81610d2c565b82525050565b610aac81610d98565b82525050565b6000610abf601583610c90565b9150610aca82610e79565b602082019050919050565b6000610ae2601383610c90565b9150610aed82610ea2565b602082019050919050565b610b0181610d7c565b82525050565b610b18610b1382610d7c565b610de0565b82525050565b6000610b2a8286610b07565b602082019150610b3a8285610b07565b602082019150610b4a8284610b07565b602082019150819050949350505050565b6000602082019050610b706000830184610a94565b92915050565b6000602082019050610b8b6000830184610a85565b92915050565b6000604082019050610ba66000830185610a76565b610bb36020830184610af8565b9392505050565b6000606082019050610bcf6000830186610a94565b610bdc6020830185610a94565b610be96040830184610af8565b949350505050565b6000604082019050610c066000830185610a94565b610c136020830184610af8565b9392505050565b6000602082019050610c2f6000830184610aa3565b92915050565b60006020820190508181036000830152610c4e81610ab2565b9050919050565b60006020820190508181036000830152610c6e81610ad5565b9050919050565b6000602082019050610c8a6000830184610af8565b92915050565b600082825260208201905092915050565b6000610cac82610d7c565b9150610cb783610d7c565b925082610cc757610cc6610e4a565b5b828204905092915050565b6000610cdd82610d7c565b9150610ce883610d7c565b9250817fffffffffffffffffffffffffffffffffffffffffffffffffffffffffffffffff0483118215151615610d2157610d20610e1b565b5b828202905092915050565b6000610d3782610d5c565b9050919050565b6000610d4982610d5c565b9050919050565b60008115159050919050565b600073ffffffffffffffffffffffffffffffffffffffff82169050919050565b6000819050919050565b6000610d9182610dbc565b9050919050565b6000610da382610daa565b9050919050565b6000610db582610d5c565b9050919050565b6000610dc782610dce565b9050919050565b6000610dd982610d5c565b9050919050565b6000819050919050565b6000610df582610d7c565b9150610e0083610d7c565b925082610e1057610e0f610e4a565b5b828206905092915050565b7f4e487b7100000000000000000000000000000000000000000000000000000000600052601160045260246000fd5b7f4e487b7100000000000000000000000000000000000000000000000000000000600052601260045260246000fd5b7f596f7520617265206e6f7420746865206f776e65720000000000000000000000600082015250565b7f4265742061746c65617374203120746f6b656e00000000000000000000000000600082015250565b610ed481610d2c565b8114610edf57600080fd5b50565b610eeb81610d50565b8114610ef657600080fd5b50565b610f0281610d7c565b8114610f0d57600080fd5b5056fea264697066735822122077676bc78efcc6b1ed034ee903fe242d7ccc48c11b71816e06a1249ab6bc670764736f6c63430008010033",
  "immutableReferences": {},
  "source": "pragma solidity ^0.8.0;\r\n\r\nimport \"./SampleToken.sol\";\r\n\r\ncontract Lottery {\r\n\r\n  IERC20 public token;\r\n\r\n  event Transfer(address _from, address _destAddr, uint _amount);\r\n\r\n  // List of players registered in lottery\r\n  address payable[] public players;\r\n  address public owner;\r\n\r\n  constructor(IERC20 _token) public {\r\n    token = _token;\r\n    owner = msg.sender;\r\n  }\r\n\r\n  modifier onlyOwner() {\r\n    require(owner == msg.sender, \"You are not the owner\");\r\n    _;\r\n  }\r\n\r\n  function acceptToken(uint amount) external {\r\n\r\n    address from = msg.sender;\r\n    address to = address(this);\r\n\r\n    // makes sure that the owner cannot participate in Lottery\r\n    require(from != owner);\r\n    require(amount > 0, \"Bet atleast 1 token\");\r\n\r\n    // transfer token from player to contract\r\n    token.transferFrom(from, to, amount);\r\n\r\n    // pushing the account conducting the transaction onto the players array as a payable address\r\n    players.push(payable(from));\r\n\r\n    emit Transfer(from, to, amount);\r\n  }\r\n\r\n  function getTokenBalanceOf(address addr) public view returns (uint) {\r\n    return token.balanceOf(addr);\r\n  }\r\n\r\n  function getBalance() public view onlyOwner returns(uint) {\r\n    // returns the contract balance\r\n    return address(this).balance;\r\n  }\r\n\r\n  function random() internal view returns(uint) {\r\n    return uint(keccak256(abi.encodePacked(block.difficulty, block.timestamp, players.length)));\r\n  }\r\n\r\n  function pickWinner() public onlyOwner {\r\n    // makes sure that we have enough players in the lottery\r\n    // require(players.length >= 3, \"Not enough players in the lottery\");\r\n\r\n    address payable winner;\r\n\r\n    // selects the winner with the random number\r\n    winner = players[random() % players.length];\r\n    uint prize = (getTokenBalanceOf(address(this)) * 70) / 100;\r\n    uint burn_token = (getTokenBalanceOf(address(this)) * 30) / 100;\r\n\r\n    // transfers balance to winner => 70% of lottery pool\r\n    token.transfer(winner, prize);\r\n\r\n    // burn the rest of the pool => 30% of lottery pool\r\n    token.transfer(owner, burn_token);\r\n\r\n    // resets the players array once someone is picked\r\n    resetLottery();\r\n  }\r\n\r\n  function resetLottery() internal {\r\n    players = new address payable[](0);\r\n  }\r\n\r\n}\r\n",
  "sourcePath": "C:\\Users\\lloyd.montero\\Documents\\blckchn\\lottery\\practice_apps\\lottery-v3\\src\\contracts\\Lottery.sol",
  "compiler": {
    "name": "solc",
    "version": "0.8.1+commit.df193b15.Emscripten.clang"
  },
  "schemaVersion": "3.4.3",
  "updatedAt": "2022-01-04T12:02:47.102Z",
  "networkType": "ethereum",
  "devdoc": {
    "kind": "dev",
    "methods": {},
    "version": 1
  },
  "userdoc": {
    "kind": "user",
    "methods": {},
    "version": 1
  }
}