{
  "contractName": "Lottery",
  "abi": [
    {
      "inputs": [
        {
          "internalType": "contract IERC20",
          "name": "_token",
          "type": "address"
        }
      ],
      "stateMutability": "nonpayable",
      "type": "constructor"
    },
    {
      "anonymous": false,
      "inputs": [
        {
          "indexed": false,
          "internalType": "address",
          "name": "_from",
          "type": "address"
        },
        {
          "indexed": false,
          "internalType": "address",
          "name": "_destAddr",
          "type": "address"
        },
        {
          "indexed": false,
          "internalType": "uint256",
          "name": "_amount",
          "type": "uint256"
        }
      ],
      "name": "Transfer",
      "type": "event"
    },
    {
      "inputs": [],
      "name": "owner",
      "outputs": [
        {
          "internalType": "address",
          "name": "",
          "type": "address"
        }
      ],
      "stateMutability": "view",
      "type": "function",
      "constant": true
    },
    {
      "inputs": [
        {
          "internalType": "uint256",
          "name": "",
          "type": "uint256"
        }
      ],
      "name": "playerAccounts",
      "outputs": [
        {
          "internalType": "address",
          "name": "",
          "type": "address"
        }
      ],
      "stateMutability": "view",
      "type": "function",
      "constant": true
    },
    {
      "inputs": [],
      "name": "playerId",
      "outputs": [
        {
          "internalType": "uint256",
          "name": "",
          "type": "uint256"
        }
      ],
      "stateMutability": "view",
      "type": "function",
      "constant": true
    },
    {
      "inputs": [],
      "name": "token",
      "outputs": [
        {
          "internalType": "contract IERC20",
          "name": "",
          "type": "address"
        }
      ],
      "stateMutability": "view",
      "type": "function",
      "constant": true
    },
    {
      "inputs": [],
      "name": "getPlayers",
      "outputs": [
        {
          "internalType": "address[]",
          "name": "",
          "type": "address[]"
        }
      ],
      "stateMutability": "view",
      "type": "function",
      "constant": true
    },
    {
      "inputs": [
        {
          "internalType": "address",
          "name": "_address",
          "type": "address"
        }
      ],
      "name": "getPlayerByAddress",
      "outputs": [
        {
          "internalType": "uint256",
          "name": "",
          "type": "uint256"
        },
        {
          "internalType": "string",
          "name": "",
          "type": "string"
        },
        {
          "internalType": "address",
          "name": "",
          "type": "address"
        },
        {
          "internalType": "uint256",
          "name": "",
          "type": "uint256"
        },
        {
          "internalType": "uint256",
          "name": "",
          "type": "uint256"
        },
        {
          "internalType": "string",
          "name": "",
          "type": "string"
        }
      ],
      "stateMutability": "view",
      "type": "function",
      "constant": true
    },
    {
      "inputs": [
        {
          "internalType": "uint256",
          "name": "_id",
          "type": "uint256"
        },
        {
          "internalType": "string",
          "name": "_date",
          "type": "string"
        },
        {
          "internalType": "uint256",
          "name": "_amount",
          "type": "uint256"
        },
        {
          "internalType": "uint256",
          "name": "_entry",
          "type": "uint256"
        },
        {
          "internalType": "string",
          "name": "_status",
          "type": "string"
        }
      ],
      "name": "acceptToken",
      "outputs": [],
      "stateMutability": "nonpayable",
      "type": "function"
    },
    {
      "inputs": [
        {
          "internalType": "address",
          "name": "addr",
          "type": "address"
        }
      ],
      "name": "getTokenBalanceOf",
      "outputs": [
        {
          "internalType": "uint256",
          "name": "",
          "type": "uint256"
        }
      ],
      "stateMutability": "view",
      "type": "function",
      "constant": true
    },
    {
      "inputs": [],
      "name": "getBalance",
      "outputs": [
        {
          "internalType": "uint256",
          "name": "",
          "type": "uint256"
        }
      ],
      "stateMutability": "view",
      "type": "function",
      "constant": true
    },
    {
      "inputs": [],
      "name": "pickWinner",
      "outputs": [],
      "stateMutability": "nonpayable",
      "type": "function"
    }
  ],
  "bytecode": "0x60806040523480156200001157600080fd5b5060405162001b2038038062001b208339818101604052810190620000379190620000d6565b806000806101000a81548173ffffffffffffffffffffffffffffffffffffffff021916908373ffffffffffffffffffffffffffffffffffffffff16021790555033600460006101000a81548173ffffffffffffffffffffffffffffffffffffffff021916908373ffffffffffffffffffffffffffffffffffffffff1602179055505062000164565b600081519050620000d0816200014a565b92915050565b600060208284031215620000e957600080fd5b6000620000f984828501620000bf565b91505092915050565b60006200010f826200012a565b9050919050565b6000620001238262000102565b9050919050565b600073ffffffffffffffffffffffffffffffffffffffff82169050919050565b620001558162000116565b81146200016157600080fd5b50565b6119ac80620001746000396000f3fe608060405234801561001057600080fd5b506004361061009e5760003560e01c80638da5cb5b116100665780638da5cb5b1461013757806390c5eda6146101555780639d214bcf14610171578063d4d51269146101a1578063fc0c546a146101d65761009e565b806312065fe0146100a35780635d495aea146100c1578063713c0e1a146100cb57806383894548146100e95780638b5b9ccc14610119575b600080fd5b6100ab6101f4565b6040516100b891906114bd565b60405180910390f35b6100c961028c565b005b6100d3610570565b6040516100e091906114bd565b60405180910390f35b61010360048036038101906100fe91906110f5565b610576565b60405161011091906114bd565b60405180910390f35b610121610629565b60405161012e9190611440565b60405180910390f35b61013f6106b7565b60405161014c91906113c5565b60405180910390f35b61016f600480360381019061016a9190611199565b6106dd565b005b61018b60048036038101906101869190611147565b610aff565b60405161019891906113c5565b60405180910390f35b6101bb60048036038101906101b691906110f5565b610b3e565b6040516101cd969594939291906114d8565b60405180910390f35b6101de610e26565b6040516101eb9190611462565b60405180910390f35b60003373ffffffffffffffffffffffffffffffffffffffff16600460009054906101000a900473ffffffffffffffffffffffffffffffffffffffff1673ffffffffffffffffffffffffffffffffffffffff1614610286576040517f08c379a000000000000000000000000000000000000000000000000000000000815260040161027d9061147d565b60405180910390fd5b47905090565b3373ffffffffffffffffffffffffffffffffffffffff16600460009054906101000a900473ffffffffffffffffffffffffffffffffffffffff1673ffffffffffffffffffffffffffffffffffffffff161461031c576040517f08c379a00000000000000000000000000000000000000000000000000000000081526004016103139061147d565b60405180910390fd5b60006003808054905061032d610e4a565b61033791906117e1565b8154811061036e577f4e487b7100000000000000000000000000000000000000000000000000000000600052603260045260246000fd5b9060005260206000200160009054906101000a900473ffffffffffffffffffffffffffffffffffffffff1690506000606460466103aa30610576565b6103b49190611623565b6103be91906115f2565b905060006064601e6103cf30610576565b6103d99190611623565b6103e391906115f2565b905060008054906101000a900473ffffffffffffffffffffffffffffffffffffffff1673ffffffffffffffffffffffffffffffffffffffff1663a9059cbb84846040518363ffffffff1660e01b8152600401610440929190611417565b602060405180830381600087803b15801561045a57600080fd5b505af115801561046e573d6000803e3d6000fd5b505050506040513d601f19601f82011682018060405250810190610492919061111e565b5060008054906101000a900473ffffffffffffffffffffffffffffffffffffffff1673ffffffffffffffffffffffffffffffffffffffff1663a9059cbb600460009054906101000a900473ffffffffffffffffffffffffffffffffffffffff16836040518363ffffffff1660e01b8152600401610510929190611417565b602060405180830381600087803b15801561052a57600080fd5b505af115801561053e573d6000803e3d6000fd5b505050506040513d601f19601f82011682018060405250810190610562919061111e565b5061056b610e84565b505050565b60025481565b60008060009054906101000a900473ffffffffffffffffffffffffffffffffffffffff1673ffffffffffffffffffffffffffffffffffffffff166370a08231836040518263ffffffff1660e01b81526004016105d291906113c5565b60206040518083038186803b1580156105ea57600080fd5b505afa1580156105fe573d6000803e3d6000fd5b505050506040513d601f19601f820116820180604052508101906106229190611170565b9050919050565b606060038054806020026020016040519081016040528092919081815260200182805480156106ad57602002820191906000526020600020905b8160009054906101000a900473ffffffffffffffffffffffffffffffffffffffff1673ffffffffffffffffffffffffffffffffffffffff1681526020019060010190808311610663575b5050505050905090565b600460009054906101000a900473ffffffffffffffffffffffffffffffffffffffff1681565b60003390506000309050600460009054906101000a900473ffffffffffffffffffffffffffffffffffffffff1673ffffffffffffffffffffffffffffffffffffffff168273ffffffffffffffffffffffffffffffffffffffff16141561074257600080fd5b60008511610785576040517f08c379a000000000000000000000000000000000000000000000000000000000815260040161077c9061149d565b60405180910390fd5b60008054906101000a900473ffffffffffffffffffffffffffffffffffffffff1673ffffffffffffffffffffffffffffffffffffffff166323b872dd8383886040518463ffffffff1660e01b81526004016107e2939291906113e0565b602060405180830381600087803b1580156107fc57600080fd5b505af1158015610810573d6000803e3d6000fd5b505050506040513d601f19601f82011682018060405250810190610834919061111e565b5086600160008473ffffffffffffffffffffffffffffffffffffffff1673ffffffffffffffffffffffffffffffffffffffff1681526020019081526020016000206000018190555085600160008473ffffffffffffffffffffffffffffffffffffffff1673ffffffffffffffffffffffffffffffffffffffff16815260200190815260200160002060010190805190602001906108d2929190610f0c565b5081600160008473ffffffffffffffffffffffffffffffffffffffff1673ffffffffffffffffffffffffffffffffffffffff16815260200190815260200160002060020160006101000a81548173ffffffffffffffffffffffffffffffffffffffff021916908373ffffffffffffffffffffffffffffffffffffffff16021790555084600160008473ffffffffffffffffffffffffffffffffffffffff1673ffffffffffffffffffffffffffffffffffffffff1681526020019081526020016000206003018190555083600160008473ffffffffffffffffffffffffffffffffffffffff1673ffffffffffffffffffffffffffffffffffffffff1681526020019081526020016000206004018190555082600160008473ffffffffffffffffffffffffffffffffffffffff1673ffffffffffffffffffffffffffffffffffffffff1681526020019081526020016000206005019080519060200190610a38929190610f0c565b5060005b84811015610aba576003839080600181540180825580915050600190039060005260206000200160009091909190916101000a81548173ffffffffffffffffffffffffffffffffffffffff021916908373ffffffffffffffffffffffffffffffffffffffff1602179055508080610ab29061178e565b915050610a3c565b507fddf252ad1be2c89b69c2b068fc378daa952ba7f163c4a11628f55a4df523b3ef828287604051610aee939291906113e0565b60405180910390a150505050505050565b60038181548110610b0f57600080fd5b906000526020600020016000915054906101000a900473ffffffffffffffffffffffffffffffffffffffff1681565b6000606060008060006060600160008873ffffffffffffffffffffffffffffffffffffffff1673ffffffffffffffffffffffffffffffffffffffff16815260200190815260200160002060000154600160008973ffffffffffffffffffffffffffffffffffffffff1673ffffffffffffffffffffffffffffffffffffffff168152602001908152602001600020600101600160008a73ffffffffffffffffffffffffffffffffffffffff1673ffffffffffffffffffffffffffffffffffffffff16815260200190815260200160002060020160009054906101000a900473ffffffffffffffffffffffffffffffffffffffff16600160008b73ffffffffffffffffffffffffffffffffffffffff1673ffffffffffffffffffffffffffffffffffffffff16815260200190815260200160002060030154600160008c73ffffffffffffffffffffffffffffffffffffffff1673ffffffffffffffffffffffffffffffffffffffff16815260200190815260200160002060040154600160008d73ffffffffffffffffffffffffffffffffffffffff1673ffffffffffffffffffffffffffffffffffffffff168152602001908152602001600020600501848054610d059061172b565b80601f0160208091040260200160405190810160405280929190818152602001828054610d319061172b565b8015610d7e5780601f10610d5357610100808354040283529160200191610d7e565b820191906000526020600020905b815481529060010190602001808311610d6157829003601f168201915b50505050509450808054610d919061172b565b80601f0160208091040260200160405190810160405280929190818152602001828054610dbd9061172b565b8015610e0a5780601f10610ddf57610100808354040283529160200191610e0a565b820191906000526020600020905b815481529060010190602001808311610ded57829003601f168201915b5050505050905095509550955095509550955091939550919395565b60008054906101000a900473ffffffffffffffffffffffffffffffffffffffff1681565b60004442600380549050604051602001610e6693929190611388565b6040516020818303038152906040528051906020012060001c905090565b600067ffffffffffffffff811115610ec5577f4e487b7100000000000000000000000000000000000000000000000000000000600052604160045260246000fd5b604051908082528060200260200182016040528015610ef35781602001602082028036833780820191505090505b5060039080519060200190610f09929190610f92565b50565b828054610f189061172b565b90600052602060002090601f016020900481019282610f3a5760008555610f81565b82601f10610f5357805160ff1916838001178555610f81565b82800160010185558215610f81579182015b82811115610f80578251825591602001919060010190610f65565b5b509050610f8e919061101c565b5090565b82805482825590600052602060002090810192821561100b579160200282015b8281111561100a5782518260006101000a81548173ffffffffffffffffffffffffffffffffffffffff021916908373ffffffffffffffffffffffffffffffffffffffff16021790555091602001919060010190610fb2565b5b509050611018919061101c565b5090565b5b8082111561103557600081600090555060010161101d565b5090565b600061104c6110478461156c565b611547565b90508281526020810184848401111561106457600080fd5b61106f8482856116e9565b509392505050565b60008135905061108681611931565b92915050565b60008151905061109b81611948565b92915050565b600082601f8301126110b257600080fd5b81356110c2848260208601611039565b91505092915050565b6000813590506110da8161195f565b92915050565b6000815190506110ef8161195f565b92915050565b60006020828403121561110757600080fd5b600061111584828501611077565b91505092915050565b60006020828403121561113057600080fd5b600061113e8482850161108c565b91505092915050565b60006020828403121561115957600080fd5b6000611167848285016110cb565b91505092915050565b60006020828403121561118257600080fd5b6000611190848285016110e0565b91505092915050565b600080600080600060a086880312156111b157600080fd5b60006111bf888289016110cb565b955050602086013567ffffffffffffffff8111156111dc57600080fd5b6111e8888289016110a1565b94505060406111f9888289016110cb565b935050606061120a888289016110cb565b925050608086013567ffffffffffffffff81111561122757600080fd5b611233888289016110a1565b9150509295509295909350565b600061124c8383611258565b60208301905092915050565b6112618161167d565b82525050565b6112708161167d565b82525050565b6000611281826115ad565b61128b81856115d0565b93506112968361159d565b8060005b838110156112c75781516112ae8882611240565b97506112b9836115c3565b92505060018101905061129a565b5085935050505092915050565b6112dd816116c5565b82525050565b60006112ee826115b8565b6112f881856115e1565b93506113088185602086016116f8565b611311816118ce565b840191505092915050565b60006113296015836115e1565b9150611334826118df565b602082019050919050565b600061134c6013836115e1565b915061135782611908565b602082019050919050565b61136b816116bb565b82525050565b61138261137d826116bb565b6117d7565b82525050565b60006113948286611371565b6020820191506113a48285611371565b6020820191506113b48284611371565b602082019150819050949350505050565b60006020820190506113da6000830184611267565b92915050565b60006060820190506113f56000830186611267565b6114026020830185611267565b61140f6040830184611362565b949350505050565b600060408201905061142c6000830185611267565b6114396020830184611362565b9392505050565b6000602082019050818103600083015261145a8184611276565b905092915050565b600060208201905061147760008301846112d4565b92915050565b600060208201905081810360008301526114968161131c565b9050919050565b600060208201905081810360008301526114b68161133f565b9050919050565b60006020820190506114d26000830184611362565b92915050565b600060c0820190506114ed6000830189611362565b81810360208301526114ff81886112e3565b905061150e6040830187611267565b61151b6060830186611362565b6115286080830185611362565b81810360a083015261153a81846112e3565b9050979650505050505050565b6000611551611562565b905061155d828261175d565b919050565b6000604051905090565b600067ffffffffffffffff8211156115875761158661189f565b5b611590826118ce565b9050602081019050919050565b6000819050602082019050919050565b600081519050919050565b600081519050919050565b6000602082019050919050565b600082825260208201905092915050565b600082825260208201905092915050565b60006115fd826116bb565b9150611608836116bb565b92508261161857611617611841565b5b828204905092915050565b600061162e826116bb565b9150611639836116bb565b9250817fffffffffffffffffffffffffffffffffffffffffffffffffffffffffffffffff048311821515161561167257611671611812565b5b828202905092915050565b60006116888261169b565b9050919050565b60008115159050919050565b600073ffffffffffffffffffffffffffffffffffffffff82169050919050565b6000819050919050565b60006116d0826116d7565b9050919050565b60006116e28261169b565b9050919050565b82818337600083830152505050565b60005b838110156117165780820151818401526020810190506116fb565b83811115611725576000848401525b50505050565b6000600282049050600182168061174357607f821691505b6020821081141561175757611756611870565b5b50919050565b611766826118ce565b810181811067ffffffffffffffff821117156117855761178461189f565b5b80604052505050565b6000611799826116bb565b91507fffffffffffffffffffffffffffffffffffffffffffffffffffffffffffffffff8214156117cc576117cb611812565b5b600182019050919050565b6000819050919050565b60006117ec826116bb565b91506117f7836116bb565b92508261180757611806611841565b5b828206905092915050565b7f4e487b7100000000000000000000000000000000000000000000000000000000600052601160045260246000fd5b7f4e487b7100000000000000000000000000000000000000000000000000000000600052601260045260246000fd5b7f4e487b7100000000000000000000000000000000000000000000000000000000600052602260045260246000fd5b7f4e487b7100000000000000000000000000000000000000000000000000000000600052604160045260246000fd5b6000601f19601f8301169050919050565b7f596f7520617265206e6f7420746865206f776e65720000000000000000000000600082015250565b7f4265742061746c65617374203120746f6b656e00000000000000000000000000600082015250565b61193a8161167d565b811461194557600080fd5b50565b6119518161168f565b811461195c57600080fd5b50565b611968816116bb565b811461197357600080fd5b5056fea26469706673582212207f0a370702bf63be5636cc50a72190d117c0f941d66cf81e7a0e57049a99fbd564736f6c63430008010033",
  "immutableReferences": {},
  "source": "pragma solidity ^0.8.0;\r\n\r\nimport \"./SampleToken.sol\";\r\n\r\ncontract Lottery {\r\n\r\n  IERC20 public token;\r\n\r\n  event Transfer(address _from, address _destAddr, uint _amount);\r\n\r\n  struct Player {\r\n    uint id;\r\n    string date;\r\n    address wallet_address;\r\n    uint amount;\r\n    uint entry;\r\n    string status;\r\n  }\r\n\r\n  mapping (address => Player) players;\r\n\r\n  // List of players registered in lottery\r\n  uint public playerId;\r\n  address[] public playerAccounts;\r\n  address public owner;\r\n\r\n  constructor(IERC20 _token) public {\r\n    token = _token;\r\n    owner = msg.sender;\r\n  }\r\n\r\n  modifier onlyOwner() {\r\n    require(owner == msg.sender, \"You are not the owner\");\r\n    _;\r\n  }\r\n\r\n  function getPlayers() public view returns (address[] memory) {\r\n    return playerAccounts;\r\n  }\r\n\r\n  function getPlayerByAddress(address _address) view public returns (uint, string memory, address, uint, uint, string memory) {\r\n     return (players[_address].id, players[_address].date, players[_address].wallet_address, players[_address].amount, players[_address].entry, players[_address].status);\r\n  }\r\n\r\n  function acceptToken(uint _id, string memory _date, uint _amount, uint _entry, string memory _status) external {\r\n\r\n    address _from = msg.sender;\r\n    address _to = address(this);\r\n\r\n    // makes sure that the owner cannot participate in Lottery\r\n    require(_from != owner);\r\n    require(_amount > 0, \"Bet atleast 1 token\");\r\n\r\n    // transfer token from player to contract\r\n    token.transferFrom(_from, _to, _amount);\r\n\r\n    // sending participant details on array\r\n    players[_from].id = _id;\r\n    players[_from].date = _date;\r\n    players[_from].wallet_address = _from;\r\n    players[_from].amount = _amount;\r\n    players[_from].entry = _entry;\r\n    players[_from].status = _status;\r\n\r\n    // pushing the account conducting the transaction onto the players array as a payable address\r\n    for (uint count; count < _entry; count++) {\r\n      playerAccounts.push(_from);\r\n    }\r\n\r\n    emit Transfer(_from, _to, _amount);\r\n  }\r\n\r\n  function getTokenBalanceOf(address addr) public view returns (uint) {\r\n    return token.balanceOf(addr);\r\n  }\r\n\r\n  function getBalance() public view onlyOwner returns(uint) {\r\n    // returns the contract balance\r\n    return address(this).balance;\r\n  }\r\n\r\n  function random() internal view returns(uint) {\r\n    return uint(keccak256(abi.encodePacked(block.difficulty, block.timestamp, playerAccounts.length)));\r\n  }\r\n\r\n  function pickWinner() public onlyOwner {\r\n    // makes sure that we have enough players in the lottery\r\n    // require(players.length >= 3, \"Not enough players in the lottery\");\r\n\r\n    address _winner;\r\n\r\n    // selects the winner with the random number\r\n    _winner = playerAccounts[random() % playerAccounts.length];\r\n    uint _prize = (getTokenBalanceOf(address(this)) * 70) / 100;\r\n    uint _burn_token = (getTokenBalanceOf(address(this)) * 30) / 100;\r\n\r\n    // transfers balance to winner => 70% of lottery pool\r\n    token.transfer(_winner, _prize);\r\n\r\n    // burn the rest of the pool => 30% of lottery pool\r\n    token.transfer(owner, _burn_token);\r\n\r\n    // resets the players array once someone is picked\r\n    resetLottery();\r\n  }\r\n\r\n  function resetLottery() internal {\r\n    playerAccounts = new address[](0);\r\n  }\r\n\r\n}\r\n",
  "sourcePath": "D:\\programming\\blockchain\\dapp\\project\\lottery-v3\\src\\contracts\\Lottery.sol",
  "compiler": {
    "name": "solc",
    "version": "0.8.1+commit.df193b15.Emscripten.clang"
  },
  "schemaVersion": "3.4.4",
  "updatedAt": "2022-01-11T10:41:01.319Z",
  "networkType": "ethereum",
  "devdoc": {
    "kind": "dev",
    "methods": {},
    "version": 1
  },
  "userdoc": {
    "kind": "user",
    "methods": {},
    "version": 1
  }
}