{
  "contractName": "Lottery",
  "abi": [
    {
      "inputs": [
        {
          "internalType": "contract IERC20",
          "name": "_token",
          "type": "address"
        }
      ],
      "stateMutability": "nonpayable",
      "type": "constructor"
    },
    {
      "anonymous": false,
      "inputs": [
        {
          "indexed": false,
          "internalType": "address",
          "name": "_from",
          "type": "address"
        },
        {
          "indexed": false,
          "internalType": "address",
          "name": "_destAddr",
          "type": "address"
        },
        {
          "indexed": false,
          "internalType": "uint256",
          "name": "_amount",
          "type": "uint256"
        }
      ],
      "name": "Transfer",
      "type": "event"
    },
    {
      "inputs": [
        {
          "internalType": "uint256",
          "name": "",
          "type": "uint256"
        }
      ],
      "name": "allPlayerIds",
      "outputs": [
        {
          "internalType": "string",
          "name": "",
          "type": "string"
        }
      ],
      "stateMutability": "view",
      "type": "function",
      "constant": true
    },
    {
      "inputs": [],
      "name": "owner",
      "outputs": [
        {
          "internalType": "address",
          "name": "",
          "type": "address"
        }
      ],
      "stateMutability": "view",
      "type": "function",
      "constant": true
    },
    {
      "inputs": [
        {
          "internalType": "uint256",
          "name": "",
          "type": "uint256"
        }
      ],
      "name": "playerEntry",
      "outputs": [
        {
          "internalType": "address",
          "name": "",
          "type": "address"
        }
      ],
      "stateMutability": "view",
      "type": "function",
      "constant": true
    },
    {
      "inputs": [],
      "name": "playerId",
      "outputs": [
        {
          "internalType": "uint256",
          "name": "",
          "type": "uint256"
        }
      ],
      "stateMutability": "view",
      "type": "function",
      "constant": true
    },
    {
      "inputs": [
        {
          "internalType": "uint256",
          "name": "",
          "type": "uint256"
        }
      ],
      "name": "playerIds",
      "outputs": [
        {
          "internalType": "string",
          "name": "",
          "type": "string"
        }
      ],
      "stateMutability": "view",
      "type": "function",
      "constant": true
    },
    {
      "inputs": [],
      "name": "token",
      "outputs": [
        {
          "internalType": "contract IERC20",
          "name": "",
          "type": "address"
        }
      ],
      "stateMutability": "view",
      "type": "function",
      "constant": true
    },
    {
      "inputs": [],
      "name": "getPlayerEntries",
      "outputs": [
        {
          "internalType": "address[]",
          "name": "",
          "type": "address[]"
        }
      ],
      "stateMutability": "view",
      "type": "function",
      "constant": true
    },
    {
      "inputs": [],
      "name": "getPlayers",
      "outputs": [
        {
          "internalType": "string[]",
          "name": "",
          "type": "string[]"
        }
      ],
      "stateMutability": "view",
      "type": "function",
      "constant": true
    },
    {
      "inputs": [],
      "name": "getAllPlayers",
      "outputs": [
        {
          "internalType": "string[]",
          "name": "",
          "type": "string[]"
        }
      ],
      "stateMutability": "view",
      "type": "function",
      "constant": true
    },
    {
      "inputs": [
        {
          "internalType": "string",
          "name": "_id",
          "type": "string"
        }
      ],
      "name": "getPlayerById",
      "outputs": [
        {
          "internalType": "string",
          "name": "",
          "type": "string"
        },
        {
          "internalType": "string",
          "name": "",
          "type": "string"
        },
        {
          "internalType": "address",
          "name": "",
          "type": "address"
        },
        {
          "internalType": "uint256",
          "name": "",
          "type": "uint256"
        },
        {
          "internalType": "uint256",
          "name": "",
          "type": "uint256"
        },
        {
          "internalType": "string",
          "name": "",
          "type": "string"
        }
      ],
      "stateMutability": "view",
      "type": "function",
      "constant": true
    },
    {
      "inputs": [
        {
          "internalType": "string",
          "name": "_id",
          "type": "string"
        },
        {
          "internalType": "string",
          "name": "_date",
          "type": "string"
        },
        {
          "internalType": "uint256",
          "name": "_amount",
          "type": "uint256"
        },
        {
          "internalType": "uint256",
          "name": "_entry",
          "type": "uint256"
        },
        {
          "internalType": "string",
          "name": "_status",
          "type": "string"
        }
      ],
      "name": "acceptToken",
      "outputs": [],
      "stateMutability": "nonpayable",
      "type": "function"
    },
    {
      "inputs": [
        {
          "internalType": "address",
          "name": "_addr",
          "type": "address"
        }
      ],
      "name": "getTokenBalanceOf",
      "outputs": [
        {
          "internalType": "uint256",
          "name": "",
          "type": "uint256"
        }
      ],
      "stateMutability": "view",
      "type": "function",
      "constant": true
    },
    {
      "inputs": [],
      "name": "getBalance",
      "outputs": [
        {
          "internalType": "uint256",
          "name": "",
          "type": "uint256"
        }
      ],
      "stateMutability": "view",
      "type": "function",
      "constant": true
    },
    {
      "inputs": [
        {
          "internalType": "address",
          "name": "_winner",
          "type": "address"
        },
        {
          "internalType": "uint256",
          "name": "_prize",
          "type": "uint256"
        },
        {
          "internalType": "uint256",
          "name": "_burn",
          "type": "uint256"
        },
        {
          "internalType": "uint256",
          "name": "_guild",
          "type": "uint256"
        }
      ],
      "name": "pickWinner",
      "outputs": [],
      "stateMutability": "nonpayable",
      "type": "function"
    }
  ],
  "bytecode": "0x60806040523480156200001157600080fd5b506040516200220d3803806200220d8339818101604052810190620000379190620000d6565b806000806101000a81548173ffffffffffffffffffffffffffffffffffffffff021916908373ffffffffffffffffffffffffffffffffffffffff16021790555033600660006101000a81548173ffffffffffffffffffffffffffffffffffffffff021916908373ffffffffffffffffffffffffffffffffffffffff1602179055505062000164565b600081519050620000d0816200014a565b92915050565b600060208284031215620000e957600080fd5b6000620000f984828501620000bf565b91505092915050565b60006200010f826200012a565b9050919050565b6000620001238262000102565b9050919050565b600073ffffffffffffffffffffffffffffffffffffffff82169050919050565b620001558162000116565b81146200016157600080fd5b50565b61209980620001746000396000f3fe608060405234801561001057600080fd5b50600436106100ea5760003560e01c8063b150fc401161008c578063cae21b7b11610066578063cae21b7b14610266578063cc17c9b714610296578063efa1c482146102b2578063fc0c546a146102d0576100ea565b8063b150fc40146101e3578063b6c857ab14610201578063c012b11214610236576100ea565b8063713c0e1a116100c8578063713c0e1a1461015957806383894548146101775780638b5b9ccc146101a75780638da5cb5b146101c5576100ea565b80630f4f915f146100ef57806312065fe01461011f5780631b3834571461013d575b600080fd5b610109600480360381019061010491906117c0565b6102ee565b6040516101169190611a4d565b60405180910390f35b61012761032d565b6040516101349190611bff565b60405180910390f35b61015760048036038101906101529190611701565b6103c5565b005b6101616107a9565b60405161016e9190611bff565b60405180910390f35b610191600480360381019061018c919061160b565b6107af565b60405161019e9190611bff565b60405180910390f35b6101af610862565b6040516101bc9190611aea565b60405180910390f35b6101cd61093b565b6040516101da9190611a4d565b60405180910390f35b6101eb610961565b6040516101f89190611ac8565b60405180910390f35b61021b600480360381019061021691906116c0565b6109ef565b60405161022d96959493929190611b49565b60405180910390f35b610250600480360381019061024b91906117c0565b610c9b565b60405161025d9190611b27565b60405180910390f35b610280600480360381019061027b91906117c0565b610d47565b60405161028d9190611b27565b60405180910390f35b6102b060048036038101906102ab9190611634565b610df3565b005b6102ba61114e565b6040516102c79190611aea565b60405180910390f35b6102d8611227565b6040516102e59190611b0c565b60405180910390f35b600581815481106102fe57600080fd5b906000526020600020016000915054906101000a900473ffffffffffffffffffffffffffffffffffffffff1681565b60003373ffffffffffffffffffffffffffffffffffffffff16600660009054906101000a900473ffffffffffffffffffffffffffffffffffffffff1673ffffffffffffffffffffffffffffffffffffffff16146103bf576040517f08c379a00000000000000000000000000000000000000000000000000000000081526004016103b690611bbf565b60405180910390fd5b47905090565b60003390506000309050600660009054906101000a900473ffffffffffffffffffffffffffffffffffffffff1673ffffffffffffffffffffffffffffffffffffffff168273ffffffffffffffffffffffffffffffffffffffff16141561042a57600080fd5b6000851161046d576040517f08c379a000000000000000000000000000000000000000000000000000000000815260040161046490611bdf565b60405180910390fd5b60008054906101000a900473ffffffffffffffffffffffffffffffffffffffff1673ffffffffffffffffffffffffffffffffffffffff166323b872dd8383886040518463ffffffff1660e01b81526004016104ca93929190611a68565b602060405180830381600087803b1580156104e457600080fd5b505af11580156104f8573d6000803e3d6000fd5b505050506040513d601f19601f8201168201806040525081019061051c9190611697565b508660018860405161052e9190611a36565b9081526020016040518091039020600001908051906020019061055292919061135e565b50856001886040516105649190611a36565b9081526020016040518091039020600101908051906020019061058892919061135e565b508160018860405161059a9190611a36565b908152602001604051809103902060020160006101000a81548173ffffffffffffffffffffffffffffffffffffffff021916908373ffffffffffffffffffffffffffffffffffffffff160217905550846001886040516105fa9190611a36565b908152602001604051809103902060030181905550836001886040516106209190611a36565b908152602001604051809103902060040181905550826001886040516106469190611a36565b9081526020016040518091039020600501908051906020019061066a92919061135e565b506003879080600181540180825580915050600190039060005260206000200160009091909190915090805190602001906106a692919061135e565b506004879080600181540180825580915050600190039060005260206000200160009091909190915090805190602001906106e292919061135e565b5060005b84811015610764576005839080600181540180825580915050600190039060005260206000200160009091909190916101000a81548173ffffffffffffffffffffffffffffffffffffffff021916908373ffffffffffffffffffffffffffffffffffffffff160217905550808061075c90611eb6565b9150506106e6565b507fddf252ad1be2c89b69c2b068fc378daa952ba7f163c4a11628f55a4df523b3ef82828760405161079893929190611a68565b60405180910390a150505050505050565b60025481565b60008060009054906101000a900473ffffffffffffffffffffffffffffffffffffffff1673ffffffffffffffffffffffffffffffffffffffff166370a08231836040518263ffffffff1660e01b815260040161080b9190611a4d565b60206040518083038186803b15801561082357600080fd5b505afa158015610837573d6000803e3d6000fd5b505050506040513d601f19601f8201168201806040525081019061085b91906117e9565b9050919050565b60606003805480602002602001604051908101604052809291908181526020016000905b828210156109325783829060005260206000200180546108a590611e53565b80601f01602080910402602001604051908101604052809291908181526020018280546108d190611e53565b801561091e5780601f106108f35761010080835404028352916020019161091e565b820191906000526020600020905b81548152906001019060200180831161090157829003601f168201915b505050505081526020019060010190610886565b50505050905090565b600660009054906101000a900473ffffffffffffffffffffffffffffffffffffffff1681565b606060058054806020026020016040519081016040528092919081815260200182805480156109e557602002820191906000526020600020905b8160009054906101000a900473ffffffffffffffffffffffffffffffffffffffff1673ffffffffffffffffffffffffffffffffffffffff168152602001906001019080831161099b575b5050505050905090565b60608060008060006060600187604051610a099190611a36565b9081526020016040518091039020600001600188604051610a2a9190611a36565b9081526020016040518091039020600101600189604051610a4b9190611a36565b908152602001604051809103902060020160009054906101000a900473ffffffffffffffffffffffffffffffffffffffff1660018a604051610a8d9190611a36565b90815260200160405180910390206003015460018b604051610aaf9190611a36565b90815260200160405180910390206004015460018c604051610ad19190611a36565b9081526020016040518091039020600501858054610aee90611e53565b80601f0160208091040260200160405190810160405280929190818152602001828054610b1a90611e53565b8015610b675780601f10610b3c57610100808354040283529160200191610b67565b820191906000526020600020905b815481529060010190602001808311610b4a57829003601f168201915b50505050509550848054610b7a90611e53565b80601f0160208091040260200160405190810160405280929190818152602001828054610ba690611e53565b8015610bf35780601f10610bc857610100808354040283529160200191610bf3565b820191906000526020600020905b815481529060010190602001808311610bd657829003601f168201915b50505050509450808054610c0690611e53565b80601f0160208091040260200160405190810160405280929190818152602001828054610c3290611e53565b8015610c7f5780601f10610c5457610100808354040283529160200191610c7f565b820191906000526020600020905b815481529060010190602001808311610c6257829003601f168201915b5050505050905095509550955095509550955091939550919395565b60038181548110610cab57600080fd5b906000526020600020016000915090508054610cc690611e53565b80601f0160208091040260200160405190810160405280929190818152602001828054610cf290611e53565b8015610d3f5780601f10610d1457610100808354040283529160200191610d3f565b820191906000526020600020905b815481529060010190602001808311610d2257829003601f168201915b505050505081565b60048181548110610d5757600080fd5b906000526020600020016000915090508054610d7290611e53565b80601f0160208091040260200160405190810160405280929190818152602001828054610d9e90611e53565b8015610deb5780601f10610dc057610100808354040283529160200191610deb565b820191906000526020600020905b815481529060010190602001808311610dce57829003601f168201915b505050505081565b3373ffffffffffffffffffffffffffffffffffffffff16600660009054906101000a900473ffffffffffffffffffffffffffffffffffffffff1673ffffffffffffffffffffffffffffffffffffffff1614610e83576040517f08c379a0000000000000000000000000000000000000000000000000000000008152600401610e7a90611bbf565b60405180910390fd5b6000606484610e91306107af565b610e9b9190611d4b565b610ea59190611d1a565b90506000606484610eb5306107af565b610ebf9190611d4b565b610ec99190611d1a565b90506000606484610ed9306107af565b610ee39190611d4b565b610eed9190611d1a565b905060008054906101000a900473ffffffffffffffffffffffffffffffffffffffff1673ffffffffffffffffffffffffffffffffffffffff1663a9059cbb88856040518363ffffffff1660e01b8152600401610f4a929190611a9f565b602060405180830381600087803b158015610f6457600080fd5b505af1158015610f78573d6000803e3d6000fd5b505050506040513d601f19601f82011682018060405250810190610f9c9190611697565b5060008054906101000a900473ffffffffffffffffffffffffffffffffffffffff1673ffffffffffffffffffffffffffffffffffffffff1663a9059cbb600660009054906101000a900473ffffffffffffffffffffffffffffffffffffffff16846040518363ffffffff1660e01b815260040161101a929190611a9f565b602060405180830381600087803b15801561103457600080fd5b505af1158015611048573d6000803e3d6000fd5b505050506040513d601f19601f8201168201806040525081019061106c9190611697565b5060008054906101000a900473ffffffffffffffffffffffffffffffffffffffff1673ffffffffffffffffffffffffffffffffffffffff1663a9059cbb600660009054906101000a900473ffffffffffffffffffffffffffffffffffffffff16836040518363ffffffff1660e01b81526004016110ea929190611a9f565b602060405180830381600087803b15801561110457600080fd5b505af1158015611118573d6000803e3d6000fd5b505050506040513d601f19601f8201168201806040525081019061113c9190611697565b5061114561124b565b50505050505050565b60606004805480602002602001604051908101604052809291908181526020016000905b8282101561121e57838290600052602060002001805461119190611e53565b80601f01602080910402602001604051908101604052809291908181526020018280546111bd90611e53565b801561120a5780601f106111df5761010080835404028352916020019161120a565b820191906000526020600020905b8154815290600101906020018083116111ed57829003601f168201915b505050505081526020019060010190611172565b50505050905090565b60008054906101000a900473ffffffffffffffffffffffffffffffffffffffff1681565b600067ffffffffffffffff81111561128c577f4e487b7100000000000000000000000000000000000000000000000000000000600052604160045260246000fd5b6040519080825280602002602001820160405280156112bf57816020015b60608152602001906001900390816112aa5790505b50600390805190602001906112d59291906113e4565b50600067ffffffffffffffff811115611317577f4e487b7100000000000000000000000000000000000000000000000000000000600052604160045260246000fd5b6040519080825280602002602001820160405280156113455781602001602082028036833780820191505090505b506005908051906020019061135b929190611444565b50565b82805461136a90611e53565b90600052602060002090601f01602090048101928261138c57600085556113d3565b82601f106113a557805160ff19168380011785556113d3565b828001600101855582156113d3579182015b828111156113d25782518255916020019190600101906113b7565b5b5090506113e091906114ce565b5090565b828054828255906000526020600020908101928215611433579160200282015b8281111561143257825182908051906020019061142292919061135e565b5091602001919060010190611404565b5b50905061144091906114eb565b5090565b8280548282559060005260206000209081019282156114bd579160200282015b828111156114bc5782518260006101000a81548173ffffffffffffffffffffffffffffffffffffffff021916908373ffffffffffffffffffffffffffffffffffffffff16021790555091602001919060010190611464565b5b5090506114ca91906114ce565b5090565b5b808211156114e75760008160009055506001016114cf565b5090565b5b8082111561150b5760008181611502919061150f565b506001016114ec565b5090565b50805461151b90611e53565b6000825580601f1061152d575061154c565b601f01602090049060005260206000209081019061154b91906114ce565b5b50565b600061156261155d84611c3f565b611c1a565b90508281526020810184848401111561157a57600080fd5b611585848285611e11565b509392505050565b60008135905061159c8161201e565b92915050565b6000815190506115b181612035565b92915050565b600082601f8301126115c857600080fd5b81356115d884826020860161154f565b91505092915050565b6000813590506115f08161204c565b92915050565b6000815190506116058161204c565b92915050565b60006020828403121561161d57600080fd5b600061162b8482850161158d565b91505092915050565b6000806000806080858703121561164a57600080fd5b60006116588782880161158d565b9450506020611669878288016115e1565b935050604061167a878288016115e1565b925050606061168b878288016115e1565b91505092959194509250565b6000602082840312156116a957600080fd5b60006116b7848285016115a2565b91505092915050565b6000602082840312156116d257600080fd5b600082013567ffffffffffffffff8111156116ec57600080fd5b6116f8848285016115b7565b91505092915050565b600080600080600060a0868803121561171957600080fd5b600086013567ffffffffffffffff81111561173357600080fd5b61173f888289016115b7565b955050602086013567ffffffffffffffff81111561175c57600080fd5b611768888289016115b7565b9450506040611779888289016115e1565b935050606061178a888289016115e1565b925050608086013567ffffffffffffffff8111156117a757600080fd5b6117b3888289016115b7565b9150509295509295909350565b6000602082840312156117d257600080fd5b60006117e0848285016115e1565b91505092915050565b6000602082840312156117fb57600080fd5b6000611809848285016115f6565b91505092915050565b600061181e838361183e565b60208301905092915050565b6000611836838361193e565b905092915050565b61184781611da5565b82525050565b61185681611da5565b82525050565b600061186782611c90565b6118718185611ccb565b935061187c83611c70565b8060005b838110156118ad5781516118948882611812565b975061189f83611cb1565b925050600181019050611880565b5085935050505092915050565b60006118c582611c9b565b6118cf8185611cdc565b9350836020820285016118e185611c80565b8060005b8581101561191d57848403895281516118fe858261182a565b945061190983611cbe565b925060208a019950506001810190506118e5565b50829750879550505050505092915050565b61193881611ded565b82525050565b600061194982611ca6565b6119538185611ced565b9350611963818560208601611e20565b61196c81611fbb565b840191505092915050565b600061198282611ca6565b61198c8185611cfe565b935061199c818560208601611e20565b6119a581611fbb565b840191505092915050565b60006119bb82611ca6565b6119c58185611d0f565b93506119d5818560208601611e20565b80840191505092915050565b60006119ee601583611cfe565b91506119f982611fcc565b602082019050919050565b6000611a11601383611cfe565b9150611a1c82611ff5565b602082019050919050565b611a3081611de3565b82525050565b6000611a4282846119b0565b915081905092915050565b6000602082019050611a62600083018461184d565b92915050565b6000606082019050611a7d600083018661184d565b611a8a602083018561184d565b611a976040830184611a27565b949350505050565b6000604082019050611ab4600083018561184d565b611ac16020830184611a27565b9392505050565b60006020820190508181036000830152611ae2818461185c565b905092915050565b60006020820190508181036000830152611b0481846118ba565b905092915050565b6000602082019050611b21600083018461192f565b92915050565b60006020820190508181036000830152611b418184611977565b905092915050565b600060c0820190508181036000830152611b638189611977565b90508181036020830152611b778188611977565b9050611b86604083018761184d565b611b936060830186611a27565b611ba06080830185611a27565b81810360a0830152611bb28184611977565b9050979650505050505050565b60006020820190508181036000830152611bd8816119e1565b9050919050565b60006020820190508181036000830152611bf881611a04565b9050919050565b6000602082019050611c146000830184611a27565b92915050565b6000611c24611c35565b9050611c308282611e85565b919050565b6000604051905090565b600067ffffffffffffffff821115611c5a57611c59611f8c565b5b611c6382611fbb565b9050602081019050919050565b6000819050602082019050919050565b6000819050602082019050919050565b600081519050919050565b600081519050919050565b600081519050919050565b6000602082019050919050565b6000602082019050919050565b600082825260208201905092915050565b600082825260208201905092915050565b600082825260208201905092915050565b600082825260208201905092915050565b600081905092915050565b6000611d2582611de3565b9150611d3083611de3565b925082611d4057611d3f611f2e565b5b828204905092915050565b6000611d5682611de3565b9150611d6183611de3565b9250817fffffffffffffffffffffffffffffffffffffffffffffffffffffffffffffffff0483118215151615611d9a57611d99611eff565b5b828202905092915050565b6000611db082611dc3565b9050919050565b60008115159050919050565b600073ffffffffffffffffffffffffffffffffffffffff82169050919050565b6000819050919050565b6000611df882611dff565b9050919050565b6000611e0a82611dc3565b9050919050565b82818337600083830152505050565b60005b83811015611e3e578082015181840152602081019050611e23565b83811115611e4d576000848401525b50505050565b60006002820490506001821680611e6b57607f821691505b60208210811415611e7f57611e7e611f5d565b5b50919050565b611e8e82611fbb565b810181811067ffffffffffffffff82111715611ead57611eac611f8c565b5b80604052505050565b6000611ec182611de3565b91507fffffffffffffffffffffffffffffffffffffffffffffffffffffffffffffffff821415611ef457611ef3611eff565b5b600182019050919050565b7f4e487b7100000000000000000000000000000000000000000000000000000000600052601160045260246000fd5b7f4e487b7100000000000000000000000000000000000000000000000000000000600052601260045260246000fd5b7f4e487b7100000000000000000000000000000000000000000000000000000000600052602260045260246000fd5b7f4e487b7100000000000000000000000000000000000000000000000000000000600052604160045260246000fd5b6000601f19601f8301169050919050565b7f596f7520617265206e6f7420746865206f776e65720000000000000000000000600082015250565b7f4265742061746c65617374203120746f6b656e00000000000000000000000000600082015250565b61202781611da5565b811461203257600080fd5b50565b61203e81611db7565b811461204957600080fd5b50565b61205581611de3565b811461206057600080fd5b5056fea264697066735822122004b9ce48e3939331318f32cfbce803f950804075b522f19a5ba9157cd18cccf764736f6c63430008010033",
  "immutableReferences": {},
  "source": "pragma solidity ^0.8.0;\r\n\r\nimport \"./SampleToken.sol\";\r\n\r\ncontract Lottery {\r\n\r\n  IERC20 public token;\r\n\r\n  event Transfer(address _from, address _destAddr, uint _amount);\r\n\r\n  struct Player {\r\n    string id;\r\n    string date;\r\n    address wallet_address;\r\n    uint amount;\r\n    uint entry;\r\n    string status;\r\n  }\r\n\r\n  /* mapping (address => Player) players; */\r\n  mapping (string => Player) players;\r\n\r\n  // List of players registered in lottery\r\n  uint public playerId;\r\n  string[] public playerIds;\r\n  string[] public allPlayerIds;\r\n  address[] public playerEntry;\r\n  address public owner;\r\n\r\n  constructor(IERC20 _token) public {\r\n    token = _token;\r\n    owner = msg.sender;\r\n  }\r\n\r\n  modifier onlyOwner() {\r\n    require(owner == msg.sender, \"You are not the owner\");\r\n    _;\r\n  }\r\n\r\n  function getPlayerEntries() public view returns (address[] memory) {\r\n    return playerEntry;\r\n  }\r\n\r\n  function getPlayers() public view returns (string[] memory) {\r\n    return playerIds;\r\n  }\r\n\r\n  function getAllPlayers() public view returns (string[] memory) {\r\n    return allPlayerIds;\r\n  }\r\n\r\n  function getPlayerById(string memory _id) view public returns (string memory, string memory, address, uint, uint, string memory) {\r\n     return (players[_id].id, players[_id].date, players[_id].wallet_address, players[_id].amount, players[_id].entry, players[_id].status);\r\n  }\r\n\r\n  function acceptToken(string memory _id, string memory _date, uint _amount, uint _entry, string memory _status) external {\r\n\r\n    address _from = msg.sender;\r\n    address _to = address(this);\r\n\r\n    // makes sure that the owner cannot participate in Lottery\r\n    require(_from != owner);\r\n    require(_amount > 0, \"Bet atleast 1 token\");\r\n\r\n    // transfer token from player to contract\r\n    token.transferFrom(_from, _to, _amount);\r\n\r\n    // sending participant details on array\r\n    players[_id].id = _id;\r\n    players[_id].date = _date;\r\n    players[_id].wallet_address = _from;\r\n    players[_id].amount = _amount;\r\n    players[_id].entry = _entry;\r\n    players[_id].status = _status;\r\n\r\n    // pushing the account conducting the transaction onto the players array as a payable address\r\n    playerIds.push(_id);\r\n    allPlayerIds.push(_id);\r\n    for (uint count; count < _entry; count++) {\r\n      playerEntry.push(_from);\r\n    }\r\n\r\n    emit Transfer(_from, _to, _amount);\r\n  }\r\n\r\n  function getTokenBalanceOf(address _addr) public view returns (uint) {\r\n    return token.balanceOf(_addr);\r\n  }\r\n\r\n  function getBalance() public view onlyOwner returns(uint) {\r\n    // returns the contract balance\r\n    return address(this).balance;\r\n  }\r\n\r\n  function random() internal view returns(uint) {\r\n    return uint(keccak256(abi.encodePacked(block.difficulty, block.timestamp, playerIds.length)));\r\n  }\r\n\r\n  function pickWinner(address _winner, uint _prize, uint _burn, uint _guild) public onlyOwner {\r\n    // makes sure that we have enough players in the lottery\r\n    // require(players.length >= 3, \"Not enough players in the lottery\");\r\n\r\n    // selects the winner with the random number\r\n    // _winner = playerEntry[random() % playerEntry.length];\r\n    uint _prize_token = (getTokenBalanceOf(address(this)) * _prize) / 100;\r\n    uint _burn_token = (getTokenBalanceOf(address(this)) * _burn) / 100;\r\n    uint _guild_token = (getTokenBalanceOf(address(this)) * _guild) / 100;\r\n\r\n    // transfers balance to winner\r\n    token.transfer(_winner, _prize_token);\r\n\r\n    // burn the rest of the pool\r\n    token.transfer(owner, _burn_token);\r\n\r\n    // guild the rest of the pool\r\n    token.transfer(owner, _guild_token);\r\n\r\n    // resets the players array once someone is picked\r\n    resetLottery();\r\n  }\r\n\r\n  function resetLottery() internal {\r\n    playerIds = new string[](0);\r\n    playerEntry = new address[](0);\r\n  }\r\n\r\n}\r\n",
  "sourcePath": "D:\\programming\\blockchain\\dapp\\project\\lottery-v3\\src\\contracts\\Lottery.sol",
  "compiler": {
    "name": "solc",
    "version": "0.8.1+commit.df193b15.Emscripten.clang"
  },
  "schemaVersion": "3.4.4",
  "updatedAt": "2022-01-17T12:05:34.070Z",
  "networkType": "ethereum",
  "devdoc": {
    "kind": "dev",
    "methods": {},
    "version": 1
  },
  "userdoc": {
    "kind": "user",
    "methods": {},
    "version": 1
  }
}