{
  "contractName": "Lottery",
  "abi": [
    {
      "inputs": [
        {
          "internalType": "contract IERC20",
          "name": "_token",
          "type": "address"
        }
      ],
      "stateMutability": "nonpayable",
      "type": "constructor"
    },
    {
      "anonymous": false,
      "inputs": [
        {
          "indexed": false,
          "internalType": "address",
          "name": "_from",
          "type": "address"
        },
        {
          "indexed": false,
          "internalType": "address",
          "name": "_destAddr",
          "type": "address"
        },
        {
          "indexed": false,
          "internalType": "uint256",
          "name": "_amount",
          "type": "uint256"
        }
      ],
      "name": "Transfer",
      "type": "event"
    },
    {
      "inputs": [],
      "name": "owner",
      "outputs": [
        {
          "internalType": "address",
          "name": "",
          "type": "address"
        }
      ],
      "stateMutability": "view",
      "type": "function"
    },
    {
      "inputs": [
        {
          "internalType": "uint256",
          "name": "",
          "type": "uint256"
        }
      ],
      "name": "playerAccounts",
      "outputs": [
        {
          "internalType": "address",
          "name": "",
          "type": "address"
        }
      ],
      "stateMutability": "view",
      "type": "function"
    },
    {
      "inputs": [
        {
          "internalType": "uint256",
          "name": "",
          "type": "uint256"
        }
      ],
      "name": "playerEntry",
      "outputs": [
        {
          "internalType": "address",
          "name": "",
          "type": "address"
        }
      ],
      "stateMutability": "view",
      "type": "function"
    },
    {
      "inputs": [],
      "name": "playerId",
      "outputs": [
        {
          "internalType": "uint256",
          "name": "",
          "type": "uint256"
        }
      ],
      "stateMutability": "view",
      "type": "function"
    },
    {
      "inputs": [],
      "name": "token",
      "outputs": [
        {
          "internalType": "contract IERC20",
          "name": "",
          "type": "address"
        }
      ],
      "stateMutability": "view",
      "type": "function"
    },
    {
      "inputs": [],
      "name": "getPlayers",
      "outputs": [
        {
          "internalType": "address[]",
          "name": "",
          "type": "address[]"
        }
      ],
      "stateMutability": "view",
      "type": "function"
    },
    {
      "inputs": [
        {
          "internalType": "string",
          "name": "_address",
          "type": "string"
        }
      ],
      "name": "getPlayerByAddress",
      "outputs": [
        {
          "internalType": "string",
          "name": "",
          "type": "string"
        },
        {
          "internalType": "string",
          "name": "",
          "type": "string"
        },
        {
          "internalType": "address",
          "name": "",
          "type": "address"
        },
        {
          "internalType": "uint256",
          "name": "",
          "type": "uint256"
        },
        {
          "internalType": "uint256",
          "name": "",
          "type": "uint256"
        },
        {
          "internalType": "string",
          "name": "",
          "type": "string"
        }
      ],
      "stateMutability": "view",
      "type": "function"
    },
    {
      "inputs": [
        {
          "internalType": "string",
          "name": "_id",
          "type": "string"
        },
        {
          "internalType": "string",
          "name": "_date",
          "type": "string"
        },
        {
          "internalType": "uint256",
          "name": "_amount",
          "type": "uint256"
        },
        {
          "internalType": "uint256",
          "name": "_entry",
          "type": "uint256"
        },
        {
          "internalType": "string",
          "name": "_status",
          "type": "string"
        }
      ],
      "name": "acceptToken",
      "outputs": [],
      "stateMutability": "nonpayable",
      "type": "function"
    },
    {
      "inputs": [
        {
          "internalType": "address",
          "name": "addr",
          "type": "address"
        }
      ],
      "name": "getTokenBalanceOf",
      "outputs": [
        {
          "internalType": "uint256",
          "name": "",
          "type": "uint256"
        }
      ],
      "stateMutability": "view",
      "type": "function"
    },
    {
      "inputs": [],
      "name": "getBalance",
      "outputs": [
        {
          "internalType": "uint256",
          "name": "",
          "type": "uint256"
        }
      ],
      "stateMutability": "view",
      "type": "function"
    },
    {
      "inputs": [],
      "name": "pickWinner",
      "outputs": [],
      "stateMutability": "nonpayable",
      "type": "function"
    }
  ],
  "bytecode": "0x60806040523480156200001157600080fd5b5060405162001c4438038062001c448339818101604052810190620000379190620000d6565b806000806101000a81548173ffffffffffffffffffffffffffffffffffffffff021916908373ffffffffffffffffffffffffffffffffffffffff16021790555033600560006101000a81548173ffffffffffffffffffffffffffffffffffffffff021916908373ffffffffffffffffffffffffffffffffffffffff1602179055505062000164565b600081519050620000d0816200014a565b92915050565b600060208284031215620000e957600080fd5b6000620000f984828501620000bf565b91505092915050565b60006200010f826200012a565b9050919050565b6000620001238262000102565b9050919050565b600073ffffffffffffffffffffffffffffffffffffffff82169050919050565b620001558162000116565b81146200016157600080fd5b50565b611ad080620001746000396000f3fe608060405234801561001057600080fd5b50600436106100a95760003560e01c8063838945481161007157806383894548146101405780638b5b9ccc146101705780638da5cb5b1461018e5780639d214bcf146101ac578063ddddd5c2146101dc578063fc0c546a14610211576100a9565b80630f4f915f146100ae57806312065fe0146100de5780631b383457146100fc5780635d495aea14610118578063713c0e1a14610122575b600080fd5b6100c860048036038101906100c391906112b8565b61022f565b6040516100d591906114d7565b60405180910390f35b6100e661026e565b6040516100f39190611645565b60405180910390f35b610116600480360381019061011191906111f9565b610306565b005b6101206106d5565b005b61012a6109b9565b6040516101379190611645565b60405180910390f35b61015a60048036038101906101559190611166565b6109bf565b6040516101679190611645565b60405180910390f35b610178610a72565b6040516101859190611552565b60405180910390f35b610196610b00565b6040516101a391906114d7565b60405180910390f35b6101c660048036038101906101c191906112b8565b610b26565b6040516101d391906114d7565b60405180910390f35b6101f660048036038101906101f191906111b8565b610b65565b6040516102089695949392919061158f565b60405180910390f35b610219610e11565b6040516102269190611574565b60405180910390f35b6004818154811061023f57600080fd5b906000526020600020016000915054906101000a900473ffffffffffffffffffffffffffffffffffffffff1681565b60003373ffffffffffffffffffffffffffffffffffffffff16600560009054906101000a900473ffffffffffffffffffffffffffffffffffffffff1673ffffffffffffffffffffffffffffffffffffffff1614610300576040517f08c379a00000000000000000000000000000000000000000000000000000000081526004016102f790611605565b60405180910390fd5b47905090565b60003390506000309050600560009054906101000a900473ffffffffffffffffffffffffffffffffffffffff1673ffffffffffffffffffffffffffffffffffffffff168273ffffffffffffffffffffffffffffffffffffffff16141561036b57600080fd5b600085116103ae576040517f08c379a00000000000000000000000000000000000000000000000000000000081526004016103a590611625565b60405180910390fd5b60008054906101000a900473ffffffffffffffffffffffffffffffffffffffff1673ffffffffffffffffffffffffffffffffffffffff166323b872dd8383886040518463ffffffff1660e01b815260040161040b939291906114f2565b602060405180830381600087803b15801561042557600080fd5b505af1158015610439573d6000803e3d6000fd5b505050506040513d601f19601f8201168201806040525081019061045d919061118f565b508660018860405161046f9190611483565b90815260200160405180910390206000019080519060200190610493929190610f7d565b50856001886040516104a59190611483565b908152602001604051809103902060010190805190602001906104c9929190610f7d565b50816001886040516104db9190611483565b908152602001604051809103902060020160006101000a81548173ffffffffffffffffffffffffffffffffffffffff021916908373ffffffffffffffffffffffffffffffffffffffff1602179055508460018860405161053b9190611483565b908152602001604051809103902060030181905550836001886040516105619190611483565b908152602001604051809103902060040181905550826001886040516105879190611483565b908152602001604051809103902060050190805190602001906105ab929190610f7d565b506003829080600181540180825580915050600190039060005260206000200160009091909190916101000a81548173ffffffffffffffffffffffffffffffffffffffff021916908373ffffffffffffffffffffffffffffffffffffffff16021790555060005b84811015610690576004839080600181540180825580915050600190039060005260206000200160009091909190916101000a81548173ffffffffffffffffffffffffffffffffffffffff021916908373ffffffffffffffffffffffffffffffffffffffff1602179055508080610688906118b2565b915050610612565b507fddf252ad1be2c89b69c2b068fc378daa952ba7f163c4a11628f55a4df523b3ef8282876040516106c4939291906114f2565b60405180910390a150505050505050565b3373ffffffffffffffffffffffffffffffffffffffff16600560009054906101000a900473ffffffffffffffffffffffffffffffffffffffff1673ffffffffffffffffffffffffffffffffffffffff1614610765576040517f08c379a000000000000000000000000000000000000000000000000000000000815260040161075c90611605565b60405180910390fd5b600060038080549050610776610e35565b6107809190611905565b815481106107b7577f4e487b7100000000000000000000000000000000000000000000000000000000600052603260045260246000fd5b9060005260206000200160009054906101000a900473ffffffffffffffffffffffffffffffffffffffff1690506000606460466107f3306109bf565b6107fd9190611747565b6108079190611716565b905060006064601e610818306109bf565b6108229190611747565b61082c9190611716565b905060008054906101000a900473ffffffffffffffffffffffffffffffffffffffff1673ffffffffffffffffffffffffffffffffffffffff1663a9059cbb84846040518363ffffffff1660e01b8152600401610889929190611529565b602060405180830381600087803b1580156108a357600080fd5b505af11580156108b7573d6000803e3d6000fd5b505050506040513d601f19601f820116820180604052508101906108db919061118f565b5060008054906101000a900473ffffffffffffffffffffffffffffffffffffffff1673ffffffffffffffffffffffffffffffffffffffff1663a9059cbb600560009054906101000a900473ffffffffffffffffffffffffffffffffffffffff16836040518363ffffffff1660e01b8152600401610959929190611529565b602060405180830381600087803b15801561097357600080fd5b505af1158015610987573d6000803e3d6000fd5b505050506040513d601f19601f820116820180604052508101906109ab919061118f565b506109b4610e6f565b505050565b60025481565b60008060009054906101000a900473ffffffffffffffffffffffffffffffffffffffff1673ffffffffffffffffffffffffffffffffffffffff166370a08231836040518263ffffffff1660e01b8152600401610a1b91906114d7565b60206040518083038186803b158015610a3357600080fd5b505afa158015610a47573d6000803e3d6000fd5b505050506040513d601f19601f82011682018060405250810190610a6b91906112e1565b9050919050565b60606003805480602002602001604051908101604052809291908181526020018280548015610af657602002820191906000526020600020905b8160009054906101000a900473ffffffffffffffffffffffffffffffffffffffff1673ffffffffffffffffffffffffffffffffffffffff1681526020019060010190808311610aac575b5050505050905090565b600560009054906101000a900473ffffffffffffffffffffffffffffffffffffffff1681565b60038181548110610b3657600080fd5b906000526020600020016000915054906101000a900473ffffffffffffffffffffffffffffffffffffffff1681565b60608060008060006060600187604051610b7f9190611483565b9081526020016040518091039020600001600188604051610ba09190611483565b9081526020016040518091039020600101600189604051610bc19190611483565b908152602001604051809103902060020160009054906101000a900473ffffffffffffffffffffffffffffffffffffffff1660018a604051610c039190611483565b90815260200160405180910390206003015460018b604051610c259190611483565b90815260200160405180910390206004015460018c604051610c479190611483565b9081526020016040518091039020600501858054610c649061184f565b80601f0160208091040260200160405190810160405280929190818152602001828054610c909061184f565b8015610cdd5780601f10610cb257610100808354040283529160200191610cdd565b820191906000526020600020905b815481529060010190602001808311610cc057829003601f168201915b50505050509550848054610cf09061184f565b80601f0160208091040260200160405190810160405280929190818152602001828054610d1c9061184f565b8015610d695780601f10610d3e57610100808354040283529160200191610d69565b820191906000526020600020905b815481529060010190602001808311610d4c57829003601f168201915b50505050509450808054610d7c9061184f565b80601f0160208091040260200160405190810160405280929190818152602001828054610da89061184f565b8015610df55780601f10610dca57610100808354040283529160200191610df5565b820191906000526020600020905b815481529060010190602001808311610dd857829003601f168201915b5050505050905095509550955095509550955091939550919395565b60008054906101000a900473ffffffffffffffffffffffffffffffffffffffff1681565b60004442600380549050604051602001610e519392919061149a565b6040516020818303038152906040528051906020012060001c905090565b600067ffffffffffffffff811115610eb0577f4e487b7100000000000000000000000000000000000000000000000000000000600052604160045260246000fd5b604051908082528060200260200182016040528015610ede5781602001602082028036833780820191505090505b5060039080519060200190610ef4929190611003565b50600067ffffffffffffffff811115610f36577f4e487b7100000000000000000000000000000000000000000000000000000000600052604160045260246000fd5b604051908082528060200260200182016040528015610f645781602001602082028036833780820191505090505b5060049080519060200190610f7a929190611003565b50565b828054610f899061184f565b90600052602060002090601f016020900481019282610fab5760008555610ff2565b82601f10610fc457805160ff1916838001178555610ff2565b82800160010185558215610ff2579182015b82811115610ff1578251825591602001919060010190610fd6565b5b509050610fff919061108d565b5090565b82805482825590600052602060002090810192821561107c579160200282015b8281111561107b5782518260006101000a81548173ffffffffffffffffffffffffffffffffffffffff021916908373ffffffffffffffffffffffffffffffffffffffff16021790555091602001919060010190611023565b5b509050611089919061108d565b5090565b5b808211156110a657600081600090555060010161108e565b5090565b60006110bd6110b884611685565b611660565b9050828152602081018484840111156110d557600080fd5b6110e084828561180d565b509392505050565b6000813590506110f781611a55565b92915050565b60008151905061110c81611a6c565b92915050565b600082601f83011261112357600080fd5b81356111338482602086016110aa565b91505092915050565b60008135905061114b81611a83565b92915050565b60008151905061116081611a83565b92915050565b60006020828403121561117857600080fd5b6000611186848285016110e8565b91505092915050565b6000602082840312156111a157600080fd5b60006111af848285016110fd565b91505092915050565b6000602082840312156111ca57600080fd5b600082013567ffffffffffffffff8111156111e457600080fd5b6111f084828501611112565b91505092915050565b600080600080600060a0868803121561121157600080fd5b600086013567ffffffffffffffff81111561122b57600080fd5b61123788828901611112565b955050602086013567ffffffffffffffff81111561125457600080fd5b61126088828901611112565b94505060406112718882890161113c565b93505060606112828882890161113c565b925050608086013567ffffffffffffffff81111561129f57600080fd5b6112ab88828901611112565b9150509295509295909350565b6000602082840312156112ca57600080fd5b60006112d88482850161113c565b91505092915050565b6000602082840312156112f357600080fd5b600061130184828501611151565b91505092915050565b60006113168383611322565b60208301905092915050565b61132b816117a1565b82525050565b61133a816117a1565b82525050565b600061134b826116c6565b61135581856116e9565b9350611360836116b6565b8060005b83811015611391578151611378888261130a565b9750611383836116dc565b925050600181019050611364565b5085935050505092915050565b6113a7816117e9565b82525050565b60006113b8826116d1565b6113c281856116fa565b93506113d281856020860161181c565b6113db816119f2565b840191505092915050565b60006113f1826116d1565b6113fb818561170b565b935061140b81856020860161181c565b80840191505092915050565b60006114246015836116fa565b915061142f82611a03565b602082019050919050565b60006114476013836116fa565b915061145282611a2c565b602082019050919050565b611466816117df565b82525050565b61147d611478826117df565b6118fb565b82525050565b600061148f82846113e6565b915081905092915050565b60006114a6828661146c565b6020820191506114b6828561146c565b6020820191506114c6828461146c565b602082019150819050949350505050565b60006020820190506114ec6000830184611331565b92915050565b60006060820190506115076000830186611331565b6115146020830185611331565b611521604083018461145d565b949350505050565b600060408201905061153e6000830185611331565b61154b602083018461145d565b9392505050565b6000602082019050818103600083015261156c8184611340565b905092915050565b6000602082019050611589600083018461139e565b92915050565b600060c08201905081810360008301526115a981896113ad565b905081810360208301526115bd81886113ad565b90506115cc6040830187611331565b6115d9606083018661145d565b6115e6608083018561145d565b81810360a08301526115f881846113ad565b9050979650505050505050565b6000602082019050818103600083015261161e81611417565b9050919050565b6000602082019050818103600083015261163e8161143a565b9050919050565b600060208201905061165a600083018461145d565b92915050565b600061166a61167b565b90506116768282611881565b919050565b6000604051905090565b600067ffffffffffffffff8211156116a05761169f6119c3565b5b6116a9826119f2565b9050602081019050919050565b6000819050602082019050919050565b600081519050919050565b600081519050919050565b6000602082019050919050565b600082825260208201905092915050565b600082825260208201905092915050565b600081905092915050565b6000611721826117df565b915061172c836117df565b92508261173c5761173b611965565b5b828204905092915050565b6000611752826117df565b915061175d836117df565b9250817fffffffffffffffffffffffffffffffffffffffffffffffffffffffffffffffff048311821515161561179657611795611936565b5b828202905092915050565b60006117ac826117bf565b9050919050565b60008115159050919050565b600073ffffffffffffffffffffffffffffffffffffffff82169050919050565b6000819050919050565b60006117f4826117fb565b9050919050565b6000611806826117bf565b9050919050565b82818337600083830152505050565b60005b8381101561183a57808201518184015260208101905061181f565b83811115611849576000848401525b50505050565b6000600282049050600182168061186757607f821691505b6020821081141561187b5761187a611994565b5b50919050565b61188a826119f2565b810181811067ffffffffffffffff821117156118a9576118a86119c3565b5b80604052505050565b60006118bd826117df565b91507fffffffffffffffffffffffffffffffffffffffffffffffffffffffffffffffff8214156118f0576118ef611936565b5b600182019050919050565b6000819050919050565b6000611910826117df565b915061191b836117df565b92508261192b5761192a611965565b5b828206905092915050565b7f4e487b7100000000000000000000000000000000000000000000000000000000600052601160045260246000fd5b7f4e487b7100000000000000000000000000000000000000000000000000000000600052601260045260246000fd5b7f4e487b7100000000000000000000000000000000000000000000000000000000600052602260045260246000fd5b7f4e487b7100000000000000000000000000000000000000000000000000000000600052604160045260246000fd5b6000601f19601f8301169050919050565b7f596f7520617265206e6f7420746865206f776e65720000000000000000000000600082015250565b7f4265742061746c65617374203120746f6b656e00000000000000000000000000600082015250565b611a5e816117a1565b8114611a6957600080fd5b50565b611a75816117b3565b8114611a8057600080fd5b50565b611a8c816117df565b8114611a9757600080fd5b5056fea26469706673582212204ef3662f2ddaa1da20c8909bf5fe327b56e68dc2c0f9660899e6cd59437ffd0b64736f6c63430008010033",
  "immutableReferences": {},
  "source": "pragma solidity ^0.8.0;\r\n\r\nimport \"./SampleToken.sol\";\r\n\r\ncontract Lottery {\r\n\r\n  IERC20 public token;\r\n\r\n  event Transfer(address _from, address _destAddr, uint _amount);\r\n\r\n  struct Player {\r\n    string id;\r\n    string date;\r\n    address wallet_address;\r\n    uint amount;\r\n    uint entry;\r\n    string status;\r\n  }\r\n\r\n  /* mapping (address => Player) players; */\r\n  mapping (string => Player) players;\r\n\r\n  // List of players registered in lottery\r\n  uint public playerId;\r\n  address[] public playerAccounts;\r\n  address[] public playerEntry;\r\n  address public owner;\r\n\r\n  constructor(IERC20 _token) public {\r\n    token = _token;\r\n    owner = msg.sender;\r\n  }\r\n\r\n  modifier onlyOwner() {\r\n    require(owner == msg.sender, \"You are not the owner\");\r\n    _;\r\n  }\r\n\r\n  function getPlayers() public view returns (address[] memory) {\r\n    return playerAccounts;\r\n  }\r\n\r\n  function getPlayerByAddress(string memory _address) view public returns (string memory, string memory, address, uint, uint, string memory) {\r\n     return (players[_address].id, players[_address].date, players[_address].wallet_address, players[_address].amount, players[_address].entry, players[_address].status);\r\n  }\r\n\r\n  /* function getPlayerByAddress(address _address) view public returns (string memory, string memory, address, uint, uint, string memory) {\r\n     return (players[_address].id, players[_address].date, players[_address].wallet_address, players[_address].amount, players[_address].entry, players[_address].status);\r\n  } */\r\n\r\n  function acceptToken(string memory _id, string memory _date, uint _amount, uint _entry, string memory _status) external {\r\n\r\n    address _from = msg.sender;\r\n    address _to = address(this);\r\n\r\n    // makes sure that the owner cannot participate in Lottery\r\n    require(_from != owner);\r\n    require(_amount > 0, \"Bet atleast 1 token\");\r\n\r\n    // transfer token from player to contract\r\n    token.transferFrom(_from, _to, _amount);\r\n\r\n    // sending participant details on array\r\n    players[_id].id = _id;\r\n    players[_id].date = _date;\r\n    players[_id].wallet_address = _from;\r\n    players[_id].amount = _amount;\r\n    players[_id].entry = _entry;\r\n    players[_id].status = _status;\r\n\r\n    // pushing the account conducting the transaction onto the players array as a payable address\r\n    playerAccounts.push(_from);\r\n    for (uint count; count < _entry; count++) {\r\n      playerEntry.push(_from);\r\n    }\r\n\r\n    emit Transfer(_from, _to, _amount);\r\n  }\r\n\r\n  function getTokenBalanceOf(address addr) public view returns (uint) {\r\n    return token.balanceOf(addr);\r\n  }\r\n\r\n  function getBalance() public view onlyOwner returns(uint) {\r\n    // returns the contract balance\r\n    return address(this).balance;\r\n  }\r\n\r\n  function random() internal view returns(uint) {\r\n    return uint(keccak256(abi.encodePacked(block.difficulty, block.timestamp, playerAccounts.length)));\r\n  }\r\n\r\n  function pickWinner() public onlyOwner {\r\n    // makes sure that we have enough players in the lottery\r\n    // require(players.length >= 3, \"Not enough players in the lottery\");\r\n\r\n    address _winner;\r\n\r\n    // selects the winner with the random number\r\n    _winner = playerAccounts[random() % playerAccounts.length];\r\n    uint _prize = (getTokenBalanceOf(address(this)) * 70) / 100;\r\n    uint _burn_token = (getTokenBalanceOf(address(this)) * 30) / 100;\r\n\r\n    // transfers balance to winner => 70% of lottery pool\r\n    token.transfer(_winner, _prize);\r\n\r\n    // burn the rest of the pool => 30% of lottery pool\r\n    token.transfer(owner, _burn_token);\r\n\r\n    // resets the players array once someone is picked\r\n    resetLottery();\r\n  }\r\n\r\n  function resetLottery() internal {\r\n    playerAccounts = new address[](0);\r\n    playerEntry = new address[](0);\r\n  }\r\n\r\n}\r\n",
  "sourcePath": "C:\\Users\\lloyd.montero\\Documents\\blckchn\\lottery\\practice_apps\\lottery-v3\\src\\contracts\\Lottery.sol",
  "compiler": {
    "name": "solc",
    "version": "0.8.1+commit.df193b15.Emscripten.clang"
  },
  "schemaVersion": "3.4.3",
  "updatedAt": "2022-01-11T10:03:51.755Z",
  "devdoc": {
    "kind": "dev",
    "methods": {},
    "version": 1
  },
  "userdoc": {
    "kind": "user",
    "methods": {},
    "version": 1
  }
}