{
  "contractName": "Lottery",
  "abi": [
    {
      "inputs": [
        {
          "internalType": "contract IERC20",
          "name": "_token",
          "type": "address"
        }
      ],
      "stateMutability": "nonpayable",
      "type": "constructor"
    },
    {
      "anonymous": false,
      "inputs": [
        {
          "indexed": false,
          "internalType": "address",
          "name": "_from",
          "type": "address"
        },
        {
          "indexed": false,
          "internalType": "address",
          "name": "_destAddr",
          "type": "address"
        },
        {
          "indexed": false,
          "internalType": "uint256",
          "name": "_amount",
          "type": "uint256"
        }
      ],
      "name": "Transfer",
      "type": "event"
    },
    {
      "inputs": [],
      "name": "owner",
      "outputs": [
        {
          "internalType": "address",
          "name": "",
          "type": "address"
        }
      ],
      "stateMutability": "view",
      "type": "function",
      "constant": true
    },
    {
      "inputs": [
        {
          "internalType": "uint256",
          "name": "",
          "type": "uint256"
        }
      ],
      "name": "playerEntry",
      "outputs": [
        {
          "internalType": "address",
          "name": "",
          "type": "address"
        }
      ],
      "stateMutability": "view",
      "type": "function",
      "constant": true
    },
    {
      "inputs": [],
      "name": "playerId",
      "outputs": [
        {
          "internalType": "uint256",
          "name": "",
          "type": "uint256"
        }
      ],
      "stateMutability": "view",
      "type": "function",
      "constant": true
    },
    {
      "inputs": [
        {
          "internalType": "uint256",
          "name": "",
          "type": "uint256"
        }
      ],
      "name": "playerIds",
      "outputs": [
        {
          "internalType": "string",
          "name": "",
          "type": "string"
        }
      ],
      "stateMutability": "view",
      "type": "function",
      "constant": true
    },
    {
      "inputs": [],
      "name": "token",
      "outputs": [
        {
          "internalType": "contract IERC20",
          "name": "",
          "type": "address"
        }
      ],
      "stateMutability": "view",
      "type": "function",
      "constant": true
    },
    {
      "inputs": [],
      "name": "getPlayers",
      "outputs": [
        {
          "internalType": "string[]",
          "name": "",
          "type": "string[]"
        }
      ],
      "stateMutability": "view",
      "type": "function",
      "constant": true
    },
    {
      "inputs": [
        {
          "internalType": "string",
          "name": "_id",
          "type": "string"
        }
      ],
      "name": "getPlayerById",
      "outputs": [
        {
          "internalType": "string",
          "name": "",
          "type": "string"
        },
        {
          "internalType": "string",
          "name": "",
          "type": "string"
        },
        {
          "internalType": "address",
          "name": "",
          "type": "address"
        },
        {
          "internalType": "uint256",
          "name": "",
          "type": "uint256"
        },
        {
          "internalType": "uint256",
          "name": "",
          "type": "uint256"
        },
        {
          "internalType": "string",
          "name": "",
          "type": "string"
        }
      ],
      "stateMutability": "view",
      "type": "function",
      "constant": true
    },
    {
      "inputs": [
        {
          "internalType": "string",
          "name": "_id",
          "type": "string"
        },
        {
          "internalType": "string",
          "name": "_date",
          "type": "string"
        },
        {
          "internalType": "uint256",
          "name": "_amount",
          "type": "uint256"
        },
        {
          "internalType": "uint256",
          "name": "_entry",
          "type": "uint256"
        },
        {
          "internalType": "string",
          "name": "_status",
          "type": "string"
        }
      ],
      "name": "acceptToken",
      "outputs": [],
      "stateMutability": "nonpayable",
      "type": "function"
    },
    {
      "inputs": [
        {
          "internalType": "address",
          "name": "addr",
          "type": "address"
        }
      ],
      "name": "getTokenBalanceOf",
      "outputs": [
        {
          "internalType": "uint256",
          "name": "",
          "type": "uint256"
        }
      ],
      "stateMutability": "view",
      "type": "function",
      "constant": true
    },
    {
      "inputs": [],
      "name": "getBalance",
      "outputs": [
        {
          "internalType": "uint256",
          "name": "",
          "type": "uint256"
        }
      ],
      "stateMutability": "view",
      "type": "function",
      "constant": true
    },
    {
      "inputs": [],
      "name": "pickWinner",
      "outputs": [],
      "stateMutability": "nonpayable",
      "type": "function"
    }
  ],
  "bytecode": "0x60806040523480156200001157600080fd5b5060405162001e0e38038062001e0e8339818101604052810190620000379190620000d6565b806000806101000a81548173ffffffffffffffffffffffffffffffffffffffff021916908373ffffffffffffffffffffffffffffffffffffffff16021790555033600560006101000a81548173ffffffffffffffffffffffffffffffffffffffff021916908373ffffffffffffffffffffffffffffffffffffffff1602179055505062000164565b600081519050620000d0816200014a565b92915050565b600060208284031215620000e957600080fd5b6000620000f984828501620000bf565b91505092915050565b60006200010f826200012a565b9050919050565b6000620001238262000102565b9050919050565b600073ffffffffffffffffffffffffffffffffffffffff82169050919050565b620001558162000116565b81146200016157600080fd5b50565b611c9a80620001746000396000f3fe608060405234801561001057600080fd5b50600436106100a95760003560e01c8063838945481161007157806383894548146101405780638b5b9ccc146101705780638da5cb5b1461018e578063b6c857ab146101ac578063c012b112146101e1578063fc0c546a14610211576100a9565b80630f4f915f146100ae57806312065fe0146100de5780631b383457146100fc5780635d495aea14610118578063713c0e1a14610122575b600080fd5b6100c860048036038101906100c39190611412565b61022f565b6040516100d5919061166e565b60405180910390f35b6100e661026e565b6040516100f391906117fe565b60405180910390f35b61011660048036038101906101119190611353565b610306565b005b6101206106ae565b005b61012a610992565b60405161013791906117fe565b60405180910390f35b61015a600480360381019061015591906112c0565b610998565b60405161016791906117fe565b60405180910390f35b610178610a4b565b60405161018591906116e9565b60405180910390f35b610196610b24565b6040516101a3919061166e565b60405180910390f35b6101c660048036038101906101c19190611312565b610b4a565b6040516101d896959493929190611748565b60405180910390f35b6101fb60048036038101906101f69190611412565b610df6565b6040516102089190611726565b60405180910390f35b610219610ea2565b604051610226919061170b565b60405180910390f35b6004818154811061023f57600080fd5b906000526020600020016000915054906101000a900473ffffffffffffffffffffffffffffffffffffffff1681565b60003373ffffffffffffffffffffffffffffffffffffffff16600560009054906101000a900473ffffffffffffffffffffffffffffffffffffffff1673ffffffffffffffffffffffffffffffffffffffff1614610300576040517f08c379a00000000000000000000000000000000000000000000000000000000081526004016102f7906117be565b60405180910390fd5b47905090565b60003390506000309050600560009054906101000a900473ffffffffffffffffffffffffffffffffffffffff1673ffffffffffffffffffffffffffffffffffffffff168273ffffffffffffffffffffffffffffffffffffffff16141561036b57600080fd5b600085116103ae576040517f08c379a00000000000000000000000000000000000000000000000000000000081526004016103a5906117de565b60405180910390fd5b60008054906101000a900473ffffffffffffffffffffffffffffffffffffffff1673ffffffffffffffffffffffffffffffffffffffff166323b872dd8383886040518463ffffffff1660e01b815260040161040b93929190611689565b602060405180830381600087803b15801561042557600080fd5b505af1158015610439573d6000803e3d6000fd5b505050506040513d601f19601f8201168201806040525081019061045d91906112e9565b508660018860405161046f919061161a565b90815260200160405180910390206000019080519060200190610493929190611013565b50856001886040516104a5919061161a565b908152602001604051809103902060010190805190602001906104c9929190611013565b50816001886040516104db919061161a565b908152602001604051809103902060020160006101000a81548173ffffffffffffffffffffffffffffffffffffffff021916908373ffffffffffffffffffffffffffffffffffffffff1602179055508460018860405161053b919061161a565b90815260200160405180910390206003018190555083600188604051610561919061161a565b90815260200160405180910390206004018190555082600188604051610587919061161a565b908152602001604051809103902060050190805190602001906105ab929190611013565b506003879080600181540180825580915050600190039060005260206000200160009091909190915090805190602001906105e7929190611013565b5060005b84811015610669576004839080600181540180825580915050600190039060005260206000200160009091909190916101000a81548173ffffffffffffffffffffffffffffffffffffffff021916908373ffffffffffffffffffffffffffffffffffffffff160217905550808061066190611a7c565b9150506105eb565b507fddf252ad1be2c89b69c2b068fc378daa952ba7f163c4a11628f55a4df523b3ef82828760405161069d93929190611689565b60405180910390a150505050505050565b3373ffffffffffffffffffffffffffffffffffffffff16600560009054906101000a900473ffffffffffffffffffffffffffffffffffffffff1673ffffffffffffffffffffffffffffffffffffffff161461073e576040517f08c379a0000000000000000000000000000000000000000000000000000000008152600401610735906117be565b60405180910390fd5b60006004808054905061074f610ec6565b6107599190611acf565b81548110610790577f4e487b7100000000000000000000000000000000000000000000000000000000600052603260045260246000fd5b9060005260206000200160009054906101000a900473ffffffffffffffffffffffffffffffffffffffff1690506000606460466107cc30610998565b6107d69190611911565b6107e091906118e0565b905060006064601e6107f130610998565b6107fb9190611911565b61080591906118e0565b905060008054906101000a900473ffffffffffffffffffffffffffffffffffffffff1673ffffffffffffffffffffffffffffffffffffffff1663a9059cbb84846040518363ffffffff1660e01b81526004016108629291906116c0565b602060405180830381600087803b15801561087c57600080fd5b505af1158015610890573d6000803e3d6000fd5b505050506040513d601f19601f820116820180604052508101906108b491906112e9565b5060008054906101000a900473ffffffffffffffffffffffffffffffffffffffff1673ffffffffffffffffffffffffffffffffffffffff1663a9059cbb600560009054906101000a900473ffffffffffffffffffffffffffffffffffffffff16836040518363ffffffff1660e01b81526004016109329291906116c0565b602060405180830381600087803b15801561094c57600080fd5b505af1158015610960573d6000803e3d6000fd5b505050506040513d601f19601f8201168201806040525081019061098491906112e9565b5061098d610f00565b505050565b60025481565b60008060009054906101000a900473ffffffffffffffffffffffffffffffffffffffff1673ffffffffffffffffffffffffffffffffffffffff166370a08231836040518263ffffffff1660e01b81526004016109f4919061166e565b60206040518083038186803b158015610a0c57600080fd5b505afa158015610a20573d6000803e3d6000fd5b505050506040513d601f19601f82011682018060405250810190610a44919061143b565b9050919050565b60606003805480602002602001604051908101604052809291908181526020016000905b82821015610b1b578382906000526020600020018054610a8e90611a19565b80601f0160208091040260200160405190810160405280929190818152602001828054610aba90611a19565b8015610b075780601f10610adc57610100808354040283529160200191610b07565b820191906000526020600020905b815481529060010190602001808311610aea57829003601f168201915b505050505081526020019060010190610a6f565b50505050905090565b600560009054906101000a900473ffffffffffffffffffffffffffffffffffffffff1681565b60608060008060006060600187604051610b64919061161a565b9081526020016040518091039020600001600188604051610b85919061161a565b9081526020016040518091039020600101600189604051610ba6919061161a565b908152602001604051809103902060020160009054906101000a900473ffffffffffffffffffffffffffffffffffffffff1660018a604051610be8919061161a565b90815260200160405180910390206003015460018b604051610c0a919061161a565b90815260200160405180910390206004015460018c604051610c2c919061161a565b9081526020016040518091039020600501858054610c4990611a19565b80601f0160208091040260200160405190810160405280929190818152602001828054610c7590611a19565b8015610cc25780601f10610c9757610100808354040283529160200191610cc2565b820191906000526020600020905b815481529060010190602001808311610ca557829003601f168201915b50505050509550848054610cd590611a19565b80601f0160208091040260200160405190810160405280929190818152602001828054610d0190611a19565b8015610d4e5780601f10610d2357610100808354040283529160200191610d4e565b820191906000526020600020905b815481529060010190602001808311610d3157829003601f168201915b50505050509450808054610d6190611a19565b80601f0160208091040260200160405190810160405280929190818152602001828054610d8d90611a19565b8015610dda5780601f10610daf57610100808354040283529160200191610dda565b820191906000526020600020905b815481529060010190602001808311610dbd57829003601f168201915b5050505050905095509550955095509550955091939550919395565b60038181548110610e0657600080fd5b906000526020600020016000915090508054610e2190611a19565b80601f0160208091040260200160405190810160405280929190818152602001828054610e4d90611a19565b8015610e9a5780601f10610e6f57610100808354040283529160200191610e9a565b820191906000526020600020905b815481529060010190602001808311610e7d57829003601f168201915b505050505081565b60008054906101000a900473ffffffffffffffffffffffffffffffffffffffff1681565b60004442600380549050604051602001610ee293929190611631565b6040516020818303038152906040528051906020012060001c905090565b600067ffffffffffffffff811115610f41577f4e487b7100000000000000000000000000000000000000000000000000000000600052604160045260246000fd5b604051908082528060200260200182016040528015610f7457816020015b6060815260200190600190039081610f5f5790505b5060039080519060200190610f8a929190611099565b50600067ffffffffffffffff811115610fcc577f4e487b7100000000000000000000000000000000000000000000000000000000600052604160045260246000fd5b604051908082528060200260200182016040528015610ffa5781602001602082028036833780820191505090505b50600490805190602001906110109291906110f9565b50565b82805461101f90611a19565b90600052602060002090601f0160209004810192826110415760008555611088565b82601f1061105a57805160ff1916838001178555611088565b82800160010185558215611088579182015b8281111561108757825182559160200191906001019061106c565b5b5090506110959190611183565b5090565b8280548282559060005260206000209081019282156110e8579160200282015b828111156110e75782518290805190602001906110d7929190611013565b50916020019190600101906110b9565b5b5090506110f591906111a0565b5090565b828054828255906000526020600020908101928215611172579160200282015b828111156111715782518260006101000a81548173ffffffffffffffffffffffffffffffffffffffff021916908373ffffffffffffffffffffffffffffffffffffffff16021790555091602001919060010190611119565b5b50905061117f9190611183565b5090565b5b8082111561119c576000816000905550600101611184565b5090565b5b808211156111c057600081816111b791906111c4565b506001016111a1565b5090565b5080546111d090611a19565b6000825580601f106111e25750611201565b601f0160209004906000526020600020908101906112009190611183565b5b50565b60006112176112128461183e565b611819565b90508281526020810184848401111561122f57600080fd5b61123a8482856119d7565b509392505050565b60008135905061125181611c1f565b92915050565b60008151905061126681611c36565b92915050565b600082601f83011261127d57600080fd5b813561128d848260208601611204565b91505092915050565b6000813590506112a581611c4d565b92915050565b6000815190506112ba81611c4d565b92915050565b6000602082840312156112d257600080fd5b60006112e084828501611242565b91505092915050565b6000602082840312156112fb57600080fd5b600061130984828501611257565b91505092915050565b60006020828403121561132457600080fd5b600082013567ffffffffffffffff81111561133e57600080fd5b61134a8482850161126c565b91505092915050565b600080600080600060a0868803121561136b57600080fd5b600086013567ffffffffffffffff81111561138557600080fd5b6113918882890161126c565b955050602086013567ffffffffffffffff8111156113ae57600080fd5b6113ba8882890161126c565b94505060406113cb88828901611296565b93505060606113dc88828901611296565b925050608086013567ffffffffffffffff8111156113f957600080fd5b6114058882890161126c565b9150509295509295909350565b60006020828403121561142457600080fd5b600061143284828501611296565b91505092915050565b60006020828403121561144d57600080fd5b600061145b848285016112ab565b91505092915050565b6000611470838361150b565b905092915050565b6114818161196b565b82525050565b60006114928261187f565b61149c81856118a2565b9350836020820285016114ae8561186f565b8060005b858110156114ea57848403895281516114cb8582611464565b94506114d683611895565b925060208a019950506001810190506114b2565b50829750879550505050505092915050565b611505816119b3565b82525050565b60006115168261188a565b61152081856118b3565b93506115308185602086016119e6565b61153981611bbc565b840191505092915050565b600061154f8261188a565b61155981856118c4565b93506115698185602086016119e6565b61157281611bbc565b840191505092915050565b60006115888261188a565b61159281856118d5565b93506115a28185602086016119e6565b80840191505092915050565b60006115bb6015836118c4565b91506115c682611bcd565b602082019050919050565b60006115de6013836118c4565b91506115e982611bf6565b602082019050919050565b6115fd816119a9565b82525050565b61161461160f826119a9565b611ac5565b82525050565b6000611626828461157d565b915081905092915050565b600061163d8286611603565b60208201915061164d8285611603565b60208201915061165d8284611603565b602082019150819050949350505050565b60006020820190506116836000830184611478565b92915050565b600060608201905061169e6000830186611478565b6116ab6020830185611478565b6116b860408301846115f4565b949350505050565b60006040820190506116d56000830185611478565b6116e260208301846115f4565b9392505050565b600060208201905081810360008301526117038184611487565b905092915050565b600060208201905061172060008301846114fc565b92915050565b600060208201905081810360008301526117408184611544565b905092915050565b600060c08201905081810360008301526117628189611544565b905081810360208301526117768188611544565b90506117856040830187611478565b61179260608301866115f4565b61179f60808301856115f4565b81810360a08301526117b18184611544565b9050979650505050505050565b600060208201905081810360008301526117d7816115ae565b9050919050565b600060208201905081810360008301526117f7816115d1565b9050919050565b600060208201905061181360008301846115f4565b92915050565b6000611823611834565b905061182f8282611a4b565b919050565b6000604051905090565b600067ffffffffffffffff82111561185957611858611b8d565b5b61186282611bbc565b9050602081019050919050565b6000819050602082019050919050565b600081519050919050565b600081519050919050565b6000602082019050919050565b600082825260208201905092915050565b600082825260208201905092915050565b600082825260208201905092915050565b600081905092915050565b60006118eb826119a9565b91506118f6836119a9565b92508261190657611905611b2f565b5b828204905092915050565b600061191c826119a9565b9150611927836119a9565b9250817fffffffffffffffffffffffffffffffffffffffffffffffffffffffffffffffff04831182151516156119605761195f611b00565b5b828202905092915050565b600061197682611989565b9050919050565b60008115159050919050565b600073ffffffffffffffffffffffffffffffffffffffff82169050919050565b6000819050919050565b60006119be826119c5565b9050919050565b60006119d082611989565b9050919050565b82818337600083830152505050565b60005b83811015611a045780820151818401526020810190506119e9565b83811115611a13576000848401525b50505050565b60006002820490506001821680611a3157607f821691505b60208210811415611a4557611a44611b5e565b5b50919050565b611a5482611bbc565b810181811067ffffffffffffffff82111715611a7357611a72611b8d565b5b80604052505050565b6000611a87826119a9565b91507fffffffffffffffffffffffffffffffffffffffffffffffffffffffffffffffff821415611aba57611ab9611b00565b5b600182019050919050565b6000819050919050565b6000611ada826119a9565b9150611ae5836119a9565b925082611af557611af4611b2f565b5b828206905092915050565b7f4e487b7100000000000000000000000000000000000000000000000000000000600052601160045260246000fd5b7f4e487b7100000000000000000000000000000000000000000000000000000000600052601260045260246000fd5b7f4e487b7100000000000000000000000000000000000000000000000000000000600052602260045260246000fd5b7f4e487b7100000000000000000000000000000000000000000000000000000000600052604160045260246000fd5b6000601f19601f8301169050919050565b7f596f7520617265206e6f7420746865206f776e65720000000000000000000000600082015250565b7f4265742061746c65617374203120746f6b656e00000000000000000000000000600082015250565b611c288161196b565b8114611c3357600080fd5b50565b611c3f8161197d565b8114611c4a57600080fd5b50565b611c56816119a9565b8114611c6157600080fd5b5056fea26469706673582212202b502a3a23cdf2cf0219ba76a36eec4e850d6c5844e31434c7175d6b0a39ba1964736f6c63430008010033",
  "immutableReferences": {},
  "source": "pragma solidity ^0.8.0;\r\n\r\nimport \"./SampleToken.sol\";\r\n\r\ncontract Lottery {\r\n\r\n  IERC20 public token;\r\n\r\n  event Transfer(address _from, address _destAddr, uint _amount);\r\n\r\n  struct Player {\r\n    string id;\r\n    string date;\r\n    address wallet_address;\r\n    uint amount;\r\n    uint entry;\r\n    string status;\r\n  }\r\n\r\n  /* mapping (address => Player) players; */\r\n  mapping (string => Player) players;\r\n\r\n  // List of players registered in lottery\r\n  uint public playerId;\r\n  string[] public playerIds;\r\n  address[] public playerEntry;\r\n  address public owner;\r\n\r\n  constructor(IERC20 _token) public {\r\n    token = _token;\r\n    owner = msg.sender;\r\n  }\r\n\r\n  modifier onlyOwner() {\r\n    require(owner == msg.sender, \"You are not the owner\");\r\n    _;\r\n  }\r\n\r\n  function getPlayers() public view returns (string[] memory) {\r\n    return playerIds;\r\n  }\r\n\r\n  function getPlayerById(string memory _id) view public returns (string memory, string memory, address, uint, uint, string memory) {\r\n     return (players[_id].id, players[_id].date, players[_id].wallet_address, players[_id].amount, players[_id].entry, players[_id].status);\r\n  }\r\n\r\n  /* function getPlayerByAddress(address _address) view public returns (string memory, string memory, address, uint, uint, string memory) {\r\n     return (players[_address].id, players[_address].date, players[_address].wallet_address, players[_address].amount, players[_address].entry, players[_address].status);\r\n  } */\r\n\r\n  function acceptToken(string memory _id, string memory _date, uint _amount, uint _entry, string memory _status) external {\r\n\r\n    address _from = msg.sender;\r\n    address _to = address(this);\r\n\r\n    // makes sure that the owner cannot participate in Lottery\r\n    require(_from != owner);\r\n    require(_amount > 0, \"Bet atleast 1 token\");\r\n\r\n    // transfer token from player to contract\r\n    token.transferFrom(_from, _to, _amount);\r\n\r\n    // sending participant details on array\r\n    players[_id].id = _id;\r\n    players[_id].date = _date;\r\n    players[_id].wallet_address = _from;\r\n    players[_id].amount = _amount;\r\n    players[_id].entry = _entry;\r\n    players[_id].status = _status;\r\n\r\n    // pushing the account conducting the transaction onto the players array as a payable address\r\n    playerIds.push(_id);\r\n    for (uint count; count < _entry; count++) {\r\n      playerEntry.push(_from);\r\n    }\r\n\r\n    emit Transfer(_from, _to, _amount);\r\n  }\r\n\r\n  function getTokenBalanceOf(address addr) public view returns (uint) {\r\n    return token.balanceOf(addr);\r\n  }\r\n\r\n  function getBalance() public view onlyOwner returns(uint) {\r\n    // returns the contract balance\r\n    return address(this).balance;\r\n  }\r\n\r\n  function random() internal view returns(uint) {\r\n    return uint(keccak256(abi.encodePacked(block.difficulty, block.timestamp, playerIds.length)));\r\n  }\r\n\r\n  function pickWinner() public onlyOwner {\r\n    // makes sure that we have enough players in the lottery\r\n    // require(players.length >= 3, \"Not enough players in the lottery\");\r\n\r\n    address _winner;\r\n\r\n    // selects the winner with the random number\r\n    _winner = playerEntry[random() % playerEntry.length];\r\n    uint _prize = (getTokenBalanceOf(address(this)) * 70) / 100;\r\n    uint _burn_token = (getTokenBalanceOf(address(this)) * 30) / 100;\r\n\r\n    // transfers balance to winner => 70% of lottery pool\r\n    token.transfer(_winner, _prize);\r\n\r\n    // burn the rest of the pool => 30% of lottery pool\r\n    token.transfer(owner, _burn_token);\r\n\r\n    // resets the players array once someone is picked\r\n    resetLottery();\r\n  }\r\n\r\n  function resetLottery() internal {\r\n    playerIds = new string[](0);\r\n    playerEntry = new address[](0);\r\n  }\r\n\r\n}\r\n",
  "sourcePath": "D:\\programming\\blockchain\\dapp\\project\\lottery-v3\\src\\contracts\\Lottery.sol",
  "compiler": {
    "name": "solc",
    "version": "0.8.1+commit.df193b15.Emscripten.clang"
  },
  "schemaVersion": "3.4.4",
  "updatedAt": "2022-01-12T11:20:58.722Z",
  "networkType": "ethereum",
  "devdoc": {
    "kind": "dev",
    "methods": {},
    "version": 1
  },
  "userdoc": {
    "kind": "user",
    "methods": {},
    "version": 1
  }
}