{
  "contractName": "Lottery",
  "abi": [
    {
      "inputs": [
        {
          "internalType": "contract IERC20",
          "name": "_token",
          "type": "address"
        }
      ],
      "stateMutability": "nonpayable",
      "type": "constructor"
    },
    {
      "anonymous": false,
      "inputs": [
        {
          "indexed": false,
          "internalType": "address",
          "name": "_from",
          "type": "address"
        },
        {
          "indexed": false,
          "internalType": "address",
          "name": "_destAddr",
          "type": "address"
        },
        {
          "indexed": false,
          "internalType": "uint256",
          "name": "_amount",
          "type": "uint256"
        }
      ],
      "name": "Transfer",
      "type": "event"
    },
    {
      "inputs": [],
      "name": "owner",
      "outputs": [
        {
          "internalType": "address",
          "name": "",
          "type": "address"
        }
      ],
      "stateMutability": "view",
      "type": "function",
      "constant": true
    },
    {
      "inputs": [
        {
          "internalType": "uint256",
          "name": "",
          "type": "uint256"
        }
      ],
      "name": "playerEntry",
      "outputs": [
        {
          "internalType": "address",
          "name": "",
          "type": "address"
        }
      ],
      "stateMutability": "view",
      "type": "function",
      "constant": true
    },
    {
      "inputs": [],
      "name": "playerId",
      "outputs": [
        {
          "internalType": "uint256",
          "name": "",
          "type": "uint256"
        }
      ],
      "stateMutability": "view",
      "type": "function",
      "constant": true
    },
    {
      "inputs": [
        {
          "internalType": "uint256",
          "name": "",
          "type": "uint256"
        }
      ],
      "name": "playerIds",
      "outputs": [
        {
          "internalType": "string",
          "name": "",
          "type": "string"
        }
      ],
      "stateMutability": "view",
      "type": "function",
      "constant": true
    },
    {
      "inputs": [],
      "name": "token",
      "outputs": [
        {
          "internalType": "contract IERC20",
          "name": "",
          "type": "address"
        }
      ],
      "stateMutability": "view",
      "type": "function",
      "constant": true
    },
    {
      "inputs": [],
      "name": "getPlayerEntries",
      "outputs": [
        {
          "internalType": "address[]",
          "name": "",
          "type": "address[]"
        }
      ],
      "stateMutability": "view",
      "type": "function",
      "constant": true
    },
    {
      "inputs": [],
      "name": "getPlayers",
      "outputs": [
        {
          "internalType": "string[]",
          "name": "",
          "type": "string[]"
        }
      ],
      "stateMutability": "view",
      "type": "function",
      "constant": true
    },
    {
      "inputs": [
        {
          "internalType": "string",
          "name": "_id",
          "type": "string"
        }
      ],
      "name": "getPlayerById",
      "outputs": [
        {
          "internalType": "string",
          "name": "",
          "type": "string"
        },
        {
          "internalType": "string",
          "name": "",
          "type": "string"
        },
        {
          "internalType": "address",
          "name": "",
          "type": "address"
        },
        {
          "internalType": "uint256",
          "name": "",
          "type": "uint256"
        },
        {
          "internalType": "uint256",
          "name": "",
          "type": "uint256"
        },
        {
          "internalType": "string",
          "name": "",
          "type": "string"
        }
      ],
      "stateMutability": "view",
      "type": "function",
      "constant": true
    },
    {
      "inputs": [
        {
          "internalType": "string",
          "name": "_id",
          "type": "string"
        },
        {
          "internalType": "string",
          "name": "_date",
          "type": "string"
        },
        {
          "internalType": "uint256",
          "name": "_amount",
          "type": "uint256"
        },
        {
          "internalType": "uint256",
          "name": "_entry",
          "type": "uint256"
        },
        {
          "internalType": "string",
          "name": "_status",
          "type": "string"
        }
      ],
      "name": "acceptToken",
      "outputs": [],
      "stateMutability": "nonpayable",
      "type": "function"
    },
    {
      "inputs": [
        {
          "internalType": "address",
          "name": "addr",
          "type": "address"
        }
      ],
      "name": "getTokenBalanceOf",
      "outputs": [
        {
          "internalType": "uint256",
          "name": "",
          "type": "uint256"
        }
      ],
      "stateMutability": "view",
      "type": "function",
      "constant": true
    },
    {
      "inputs": [],
      "name": "getBalance",
      "outputs": [
        {
          "internalType": "uint256",
          "name": "",
          "type": "uint256"
        }
      ],
      "stateMutability": "view",
      "type": "function",
      "constant": true
    },
    {
      "inputs": [
        {
          "internalType": "address",
          "name": "_winner",
          "type": "address"
        }
      ],
      "name": "pickWinner",
      "outputs": [],
      "stateMutability": "nonpayable",
      "type": "function"
    }
  ],
  "bytecode": "0x60806040523480156200001157600080fd5b5060405162001e6f38038062001e6f8339818101604052810190620000379190620000d6565b806000806101000a81548173ffffffffffffffffffffffffffffffffffffffff021916908373ffffffffffffffffffffffffffffffffffffffff16021790555033600560006101000a81548173ffffffffffffffffffffffffffffffffffffffff021916908373ffffffffffffffffffffffffffffffffffffffff1602179055505062000164565b600081519050620000d0816200014a565b92915050565b600060208284031215620000e957600080fd5b6000620000f984828501620000bf565b91505092915050565b60006200010f826200012a565b9050919050565b6000620001238262000102565b9050919050565b600073ffffffffffffffffffffffffffffffffffffffff82169050919050565b620001558162000116565b81146200016157600080fd5b50565b611cfb80620001746000396000f3fe608060405234801561001057600080fd5b50600436106100b45760003560e01c80638da5cb5b116100715780638da5cb5b1461018f578063b150fc40146101ad578063b6c857ab146101cb578063c012b11214610200578063c5a8b47014610230578063fc0c546a1461024c576100b4565b80630f4f915f146100b957806312065fe0146100e95780631b38345714610107578063713c0e1a1461012357806383894548146101415780638b5b9ccc14610171575b600080fd5b6100d360048036038101906100ce9190611422565b61026a565b6040516100e091906116af565b60405180910390f35b6100f16102a9565b6040516100fe9190611861565b60405180910390f35b610121600480360381019061011c9190611363565b610341565b005b61012b6106e9565b6040516101389190611861565b60405180910390f35b61015b600480360381019061015691906112d0565b6106ef565b6040516101689190611861565b60405180910390f35b6101796107a2565b604051610186919061174c565b60405180910390f35b61019761087b565b6040516101a491906116af565b60405180910390f35b6101b56108a1565b6040516101c2919061172a565b60405180910390f35b6101e560048036038101906101e09190611322565b61092f565b6040516101f7969594939291906117ab565b60405180910390f35b61021a60048036038101906102159190611422565b610bdb565b6040516102279190611789565b60405180910390f35b61024a600480360381019061024591906112d0565b610c87565b005b610254610eec565b604051610261919061176e565b60405180910390f35b6004818154811061027a57600080fd5b906000526020600020016000915054906101000a900473ffffffffffffffffffffffffffffffffffffffff1681565b60003373ffffffffffffffffffffffffffffffffffffffff16600560009054906101000a900473ffffffffffffffffffffffffffffffffffffffff1673ffffffffffffffffffffffffffffffffffffffff161461033b576040517f08c379a000000000000000000000000000000000000000000000000000000000815260040161033290611821565b60405180910390fd5b47905090565b60003390506000309050600560009054906101000a900473ffffffffffffffffffffffffffffffffffffffff1673ffffffffffffffffffffffffffffffffffffffff168273ffffffffffffffffffffffffffffffffffffffff1614156103a657600080fd5b600085116103e9576040517f08c379a00000000000000000000000000000000000000000000000000000000081526004016103e090611841565b60405180910390fd5b60008054906101000a900473ffffffffffffffffffffffffffffffffffffffff1673ffffffffffffffffffffffffffffffffffffffff166323b872dd8383886040518463ffffffff1660e01b8152600401610446939291906116ca565b602060405180830381600087803b15801561046057600080fd5b505af1158015610474573d6000803e3d6000fd5b505050506040513d601f19601f8201168201806040525081019061049891906112f9565b50866001886040516104aa9190611698565b908152602001604051809103902060000190805190602001906104ce929190611023565b50856001886040516104e09190611698565b90815260200160405180910390206001019080519060200190610504929190611023565b50816001886040516105169190611698565b908152602001604051809103902060020160006101000a81548173ffffffffffffffffffffffffffffffffffffffff021916908373ffffffffffffffffffffffffffffffffffffffff160217905550846001886040516105769190611698565b9081526020016040518091039020600301819055508360018860405161059c9190611698565b908152602001604051809103902060040181905550826001886040516105c29190611698565b908152602001604051809103902060050190805190602001906105e6929190611023565b50600387908060018154018082558091505060019003906000526020600020016000909190919091509080519060200190610622929190611023565b5060005b848110156106a4576004839080600181540180825580915050600190039060005260206000200160009091909190916101000a81548173ffffffffffffffffffffffffffffffffffffffff021916908373ffffffffffffffffffffffffffffffffffffffff160217905550808061069c90611b18565b915050610626565b507fddf252ad1be2c89b69c2b068fc378daa952ba7f163c4a11628f55a4df523b3ef8282876040516106d8939291906116ca565b60405180910390a150505050505050565b60025481565b60008060009054906101000a900473ffffffffffffffffffffffffffffffffffffffff1673ffffffffffffffffffffffffffffffffffffffff166370a08231836040518263ffffffff1660e01b815260040161074b91906116af565b60206040518083038186803b15801561076357600080fd5b505afa158015610777573d6000803e3d6000fd5b505050506040513d601f19601f8201168201806040525081019061079b919061144b565b9050919050565b60606003805480602002602001604051908101604052809291908181526020016000905b828210156108725783829060005260206000200180546107e590611ab5565b80601f016020809104026020016040519081016040528092919081815260200182805461081190611ab5565b801561085e5780601f106108335761010080835404028352916020019161085e565b820191906000526020600020905b81548152906001019060200180831161084157829003601f168201915b5050505050815260200190600101906107c6565b50505050905090565b600560009054906101000a900473ffffffffffffffffffffffffffffffffffffffff1681565b6060600480548060200260200160405190810160405280929190818152602001828054801561092557602002820191906000526020600020905b8160009054906101000a900473ffffffffffffffffffffffffffffffffffffffff1673ffffffffffffffffffffffffffffffffffffffff16815260200190600101908083116108db575b5050505050905090565b606080600080600060606001876040516109499190611698565b908152602001604051809103902060000160018860405161096a9190611698565b908152602001604051809103902060010160018960405161098b9190611698565b908152602001604051809103902060020160009054906101000a900473ffffffffffffffffffffffffffffffffffffffff1660018a6040516109cd9190611698565b90815260200160405180910390206003015460018b6040516109ef9190611698565b90815260200160405180910390206004015460018c604051610a119190611698565b9081526020016040518091039020600501858054610a2e90611ab5565b80601f0160208091040260200160405190810160405280929190818152602001828054610a5a90611ab5565b8015610aa75780601f10610a7c57610100808354040283529160200191610aa7565b820191906000526020600020905b815481529060010190602001808311610a8a57829003601f168201915b50505050509550848054610aba90611ab5565b80601f0160208091040260200160405190810160405280929190818152602001828054610ae690611ab5565b8015610b335780601f10610b0857610100808354040283529160200191610b33565b820191906000526020600020905b815481529060010190602001808311610b1657829003601f168201915b50505050509450808054610b4690611ab5565b80601f0160208091040260200160405190810160405280929190818152602001828054610b7290611ab5565b8015610bbf5780601f10610b9457610100808354040283529160200191610bbf565b820191906000526020600020905b815481529060010190602001808311610ba257829003601f168201915b5050505050905095509550955095509550955091939550919395565b60038181548110610beb57600080fd5b906000526020600020016000915090508054610c0690611ab5565b80601f0160208091040260200160405190810160405280929190818152602001828054610c3290611ab5565b8015610c7f5780601f10610c5457610100808354040283529160200191610c7f565b820191906000526020600020905b815481529060010190602001808311610c6257829003601f168201915b505050505081565b3373ffffffffffffffffffffffffffffffffffffffff16600560009054906101000a900473ffffffffffffffffffffffffffffffffffffffff1673ffffffffffffffffffffffffffffffffffffffff1614610d17576040517f08c379a0000000000000000000000000000000000000000000000000000000008152600401610d0e90611821565b60405180910390fd5b600060646046610d26306106ef565b610d3091906119ad565b610d3a919061197c565b905060006064601e610d4b306106ef565b610d5591906119ad565b610d5f919061197c565b905060008054906101000a900473ffffffffffffffffffffffffffffffffffffffff1673ffffffffffffffffffffffffffffffffffffffff1663a9059cbb84846040518363ffffffff1660e01b8152600401610dbc929190611701565b602060405180830381600087803b158015610dd657600080fd5b505af1158015610dea573d6000803e3d6000fd5b505050506040513d601f19601f82011682018060405250810190610e0e91906112f9565b5060008054906101000a900473ffffffffffffffffffffffffffffffffffffffff1673ffffffffffffffffffffffffffffffffffffffff1663a9059cbb600560009054906101000a900473ffffffffffffffffffffffffffffffffffffffff16836040518363ffffffff1660e01b8152600401610e8c929190611701565b602060405180830381600087803b158015610ea657600080fd5b505af1158015610eba573d6000803e3d6000fd5b505050506040513d601f19601f82011682018060405250810190610ede91906112f9565b50610ee7610f10565b505050565b60008054906101000a900473ffffffffffffffffffffffffffffffffffffffff1681565b600067ffffffffffffffff811115610f51577f4e487b7100000000000000000000000000000000000000000000000000000000600052604160045260246000fd5b604051908082528060200260200182016040528015610f8457816020015b6060815260200190600190039081610f6f5790505b5060039080519060200190610f9a9291906110a9565b50600067ffffffffffffffff811115610fdc577f4e487b7100000000000000000000000000000000000000000000000000000000600052604160045260246000fd5b60405190808252806020026020018201604052801561100a5781602001602082028036833780820191505090505b5060049080519060200190611020929190611109565b50565b82805461102f90611ab5565b90600052602060002090601f0160209004810192826110515760008555611098565b82601f1061106a57805160ff1916838001178555611098565b82800160010185558215611098579182015b8281111561109757825182559160200191906001019061107c565b5b5090506110a59190611193565b5090565b8280548282559060005260206000209081019282156110f8579160200282015b828111156110f75782518290805190602001906110e7929190611023565b50916020019190600101906110c9565b5b50905061110591906111b0565b5090565b828054828255906000526020600020908101928215611182579160200282015b828111156111815782518260006101000a81548173ffffffffffffffffffffffffffffffffffffffff021916908373ffffffffffffffffffffffffffffffffffffffff16021790555091602001919060010190611129565b5b50905061118f9190611193565b5090565b5b808211156111ac576000816000905550600101611194565b5090565b5b808211156111d057600081816111c791906111d4565b506001016111b1565b5090565b5080546111e090611ab5565b6000825580601f106111f25750611211565b601f0160209004906000526020600020908101906112109190611193565b5b50565b6000611227611222846118a1565b61187c565b90508281526020810184848401111561123f57600080fd5b61124a848285611a73565b509392505050565b60008135905061126181611c80565b92915050565b60008151905061127681611c97565b92915050565b600082601f83011261128d57600080fd5b813561129d848260208601611214565b91505092915050565b6000813590506112b581611cae565b92915050565b6000815190506112ca81611cae565b92915050565b6000602082840312156112e257600080fd5b60006112f084828501611252565b91505092915050565b60006020828403121561130b57600080fd5b600061131984828501611267565b91505092915050565b60006020828403121561133457600080fd5b600082013567ffffffffffffffff81111561134e57600080fd5b61135a8482850161127c565b91505092915050565b600080600080600060a0868803121561137b57600080fd5b600086013567ffffffffffffffff81111561139557600080fd5b6113a18882890161127c565b955050602086013567ffffffffffffffff8111156113be57600080fd5b6113ca8882890161127c565b94505060406113db888289016112a6565b93505060606113ec888289016112a6565b925050608086013567ffffffffffffffff81111561140957600080fd5b6114158882890161127c565b9150509295509295909350565b60006020828403121561143457600080fd5b6000611442848285016112a6565b91505092915050565b60006020828403121561145d57600080fd5b600061146b848285016112bb565b91505092915050565b600061148083836114a0565b60208301905092915050565b600061149883836115a0565b905092915050565b6114a981611a07565b82525050565b6114b881611a07565b82525050565b60006114c9826118f2565b6114d3818561192d565b93506114de836118d2565b8060005b8381101561150f5781516114f68882611474565b975061150183611913565b9250506001810190506114e2565b5085935050505092915050565b6000611527826118fd565b611531818561193e565b935083602082028501611543856118e2565b8060005b8581101561157f5784840389528151611560858261148c565b945061156b83611920565b925060208a01995050600181019050611547565b50829750879550505050505092915050565b61159a81611a4f565b82525050565b60006115ab82611908565b6115b5818561194f565b93506115c5818560208601611a82565b6115ce81611c1d565b840191505092915050565b60006115e482611908565b6115ee8185611960565b93506115fe818560208601611a82565b61160781611c1d565b840191505092915050565b600061161d82611908565b6116278185611971565b9350611637818560208601611a82565b80840191505092915050565b6000611650601583611960565b915061165b82611c2e565b602082019050919050565b6000611673601383611960565b915061167e82611c57565b602082019050919050565b61169281611a45565b82525050565b60006116a48284611612565b915081905092915050565b60006020820190506116c460008301846114af565b92915050565b60006060820190506116df60008301866114af565b6116ec60208301856114af565b6116f96040830184611689565b949350505050565b600060408201905061171660008301856114af565b6117236020830184611689565b9392505050565b6000602082019050818103600083015261174481846114be565b905092915050565b60006020820190508181036000830152611766818461151c565b905092915050565b60006020820190506117836000830184611591565b92915050565b600060208201905081810360008301526117a381846115d9565b905092915050565b600060c08201905081810360008301526117c581896115d9565b905081810360208301526117d981886115d9565b90506117e860408301876114af565b6117f56060830186611689565b6118026080830185611689565b81810360a083015261181481846115d9565b9050979650505050505050565b6000602082019050818103600083015261183a81611643565b9050919050565b6000602082019050818103600083015261185a81611666565b9050919050565b60006020820190506118766000830184611689565b92915050565b6000611886611897565b90506118928282611ae7565b919050565b6000604051905090565b600067ffffffffffffffff8211156118bc576118bb611bee565b5b6118c582611c1d565b9050602081019050919050565b6000819050602082019050919050565b6000819050602082019050919050565b600081519050919050565b600081519050919050565b600081519050919050565b6000602082019050919050565b6000602082019050919050565b600082825260208201905092915050565b600082825260208201905092915050565b600082825260208201905092915050565b600082825260208201905092915050565b600081905092915050565b600061198782611a45565b915061199283611a45565b9250826119a2576119a1611b90565b5b828204905092915050565b60006119b882611a45565b91506119c383611a45565b9250817fffffffffffffffffffffffffffffffffffffffffffffffffffffffffffffffff04831182151516156119fc576119fb611b61565b5b828202905092915050565b6000611a1282611a25565b9050919050565b60008115159050919050565b600073ffffffffffffffffffffffffffffffffffffffff82169050919050565b6000819050919050565b6000611a5a82611a61565b9050919050565b6000611a6c82611a25565b9050919050565b82818337600083830152505050565b60005b83811015611aa0578082015181840152602081019050611a85565b83811115611aaf576000848401525b50505050565b60006002820490506001821680611acd57607f821691505b60208210811415611ae157611ae0611bbf565b5b50919050565b611af082611c1d565b810181811067ffffffffffffffff82111715611b0f57611b0e611bee565b5b80604052505050565b6000611b2382611a45565b91507fffffffffffffffffffffffffffffffffffffffffffffffffffffffffffffffff821415611b5657611b55611b61565b5b600182019050919050565b7f4e487b7100000000000000000000000000000000000000000000000000000000600052601160045260246000fd5b7f4e487b7100000000000000000000000000000000000000000000000000000000600052601260045260246000fd5b7f4e487b7100000000000000000000000000000000000000000000000000000000600052602260045260246000fd5b7f4e487b7100000000000000000000000000000000000000000000000000000000600052604160045260246000fd5b6000601f19601f8301169050919050565b7f596f7520617265206e6f7420746865206f776e65720000000000000000000000600082015250565b7f4265742061746c65617374203120746f6b656e00000000000000000000000000600082015250565b611c8981611a07565b8114611c9457600080fd5b50565b611ca081611a19565b8114611cab57600080fd5b50565b611cb781611a45565b8114611cc257600080fd5b5056fea26469706673582212203255ce284b74cbab9415edbdb208d9eba792cb5bca09b9e620c697c87de4e7b864736f6c63430008010033",
  "immutableReferences": {},
  "source": "pragma solidity ^0.8.0;\r\n\r\nimport \"./SampleToken.sol\";\r\n\r\ncontract Lottery {\r\n\r\n  IERC20 public token;\r\n\r\n  event Transfer(address _from, address _destAddr, uint _amount);\r\n\r\n  struct Player {\r\n    string id;\r\n    string date;\r\n    address wallet_address;\r\n    uint amount;\r\n    uint entry;\r\n    string status;\r\n  }\r\n\r\n  /* mapping (address => Player) players; */\r\n  mapping (string => Player) players;\r\n\r\n  // List of players registered in lottery\r\n  uint public playerId;\r\n  string[] public playerIds;\r\n  address[] public playerEntry;\r\n  address public owner;\r\n\r\n  constructor(IERC20 _token) public {\r\n    token = _token;\r\n    owner = msg.sender;\r\n  }\r\n\r\n  modifier onlyOwner() {\r\n    require(owner == msg.sender, \"You are not the owner\");\r\n    _;\r\n  }\r\n\r\n  function getPlayerEntries() public view returns (address[] memory) {\r\n    return playerEntry;\r\n  }\r\n\r\n  function getPlayers() public view returns (string[] memory) {\r\n    return playerIds;\r\n  }\r\n\r\n  function getPlayerById(string memory _id) view public returns (string memory, string memory, address, uint, uint, string memory) {\r\n     return (players[_id].id, players[_id].date, players[_id].wallet_address, players[_id].amount, players[_id].entry, players[_id].status);\r\n  }\r\n\r\n  function acceptToken(string memory _id, string memory _date, uint _amount, uint _entry, string memory _status) external {\r\n\r\n    address _from = msg.sender;\r\n    address _to = address(this);\r\n\r\n    // makes sure that the owner cannot participate in Lottery\r\n    require(_from != owner);\r\n    require(_amount > 0, \"Bet atleast 1 token\");\r\n\r\n    // transfer token from player to contract\r\n    token.transferFrom(_from, _to, _amount);\r\n\r\n    // sending participant details on array\r\n    players[_id].id = _id;\r\n    players[_id].date = _date;\r\n    players[_id].wallet_address = _from;\r\n    players[_id].amount = _amount;\r\n    players[_id].entry = _entry;\r\n    players[_id].status = _status;\r\n\r\n    // pushing the account conducting the transaction onto the players array as a payable address\r\n    playerIds.push(_id);\r\n    for (uint count; count < _entry; count++) {\r\n      playerEntry.push(_from);\r\n    }\r\n\r\n    emit Transfer(_from, _to, _amount);\r\n  }\r\n\r\n  function getTokenBalanceOf(address addr) public view returns (uint) {\r\n    return token.balanceOf(addr);\r\n  }\r\n\r\n  function getBalance() public view onlyOwner returns(uint) {\r\n    // returns the contract balance\r\n    return address(this).balance;\r\n  }\r\n\r\n  function random() internal view returns(uint) {\r\n    return uint(keccak256(abi.encodePacked(block.difficulty, block.timestamp, playerIds.length)));\r\n  }\r\n\r\n  function pickWinner(address _winner) public onlyOwner {\r\n    // makes sure that we have enough players in the lottery\r\n    // require(players.length >= 3, \"Not enough players in the lottery\");\r\n\r\n    // selects the winner with the random number\r\n    // _winner = playerEntry[random() % playerEntry.length];\r\n    uint _prize = (getTokenBalanceOf(address(this)) * 70) / 100;\r\n    uint _burn_token = (getTokenBalanceOf(address(this)) * 30) / 100;\r\n\r\n    // transfers balance to winner => 70% of lottery pool\r\n    token.transfer(_winner, _prize);\r\n\r\n    // burn the rest of the pool => 30% of lottery pool\r\n    token.transfer(owner, _burn_token);\r\n\r\n    // resets the players array once someone is picked\r\n    resetLottery();\r\n  }\r\n\r\n  function resetLottery() internal {\r\n    playerIds = new string[](0);\r\n    playerEntry = new address[](0);\r\n  }\r\n\r\n}\r\n",
  "sourcePath": "D:\\programming\\blockchain\\dapp\\project\\lottery-v3\\src\\contracts\\Lottery.sol",
  "compiler": {
    "name": "solc",
    "version": "0.8.1+commit.df193b15.Emscripten.clang"
  },
  "schemaVersion": "3.4.4",
  "updatedAt": "2022-01-14T12:49:27.583Z",
  "networkType": "ethereum",
  "devdoc": {
    "kind": "dev",
    "methods": {},
    "version": 1
  },
  "userdoc": {
    "kind": "user",
    "methods": {},
    "version": 1
  }
}