{
  "contractName": "Lottery",
  "abi": [
    {
      "inputs": [
        {
          "internalType": "contract IERC20",
          "name": "_token",
          "type": "address"
        }
      ],
      "stateMutability": "nonpayable",
      "type": "constructor"
    },
    {
      "anonymous": false,
      "inputs": [
        {
          "indexed": false,
          "internalType": "address",
          "name": "_from",
          "type": "address"
        },
        {
          "indexed": false,
          "internalType": "address",
          "name": "_destAddr",
          "type": "address"
        },
        {
          "indexed": false,
          "internalType": "uint256",
          "name": "_amount",
          "type": "uint256"
        }
      ],
      "name": "Transfer",
      "type": "event"
    },
    {
      "inputs": [],
      "name": "owner",
      "outputs": [
        {
          "internalType": "address",
          "name": "",
          "type": "address"
        }
      ],
      "stateMutability": "view",
      "type": "function",
      "constant": true
    },
    {
      "inputs": [
        {
          "internalType": "uint256",
          "name": "",
          "type": "uint256"
        }
      ],
      "name": "players",
      "outputs": [
        {
          "internalType": "address payable",
          "name": "",
          "type": "address"
        }
      ],
      "stateMutability": "view",
      "type": "function",
      "constant": true
    },
    {
      "inputs": [],
      "name": "token",
      "outputs": [
        {
          "internalType": "contract IERC20",
          "name": "",
          "type": "address"
        }
      ],
      "stateMutability": "view",
      "type": "function",
      "constant": true
    },
    {
      "inputs": [],
      "name": "getPlayers",
      "outputs": [],
      "stateMutability": "nonpayable",
      "type": "function"
    },
    {
      "inputs": [
        {
          "internalType": "uint256",
          "name": "amount",
          "type": "uint256"
        }
      ],
      "name": "acceptToken",
      "outputs": [],
      "stateMutability": "nonpayable",
      "type": "function"
    },
    {
      "inputs": [
        {
          "internalType": "address",
          "name": "addr",
          "type": "address"
        }
      ],
      "name": "getTokenBalanceOf",
      "outputs": [
        {
          "internalType": "uint256",
          "name": "",
          "type": "uint256"
        }
      ],
      "stateMutability": "view",
      "type": "function",
      "constant": true
    },
    {
      "inputs": [],
      "name": "getBalance",
      "outputs": [
        {
          "internalType": "uint256",
          "name": "",
          "type": "uint256"
        }
      ],
      "stateMutability": "view",
      "type": "function",
      "constant": true
    },
    {
      "inputs": [],
      "name": "pickWinner",
      "outputs": [],
      "stateMutability": "nonpayable",
      "type": "function"
    }
  ],
  "bytecode": "0x60806040523480156200001157600080fd5b506040516200118e3803806200118e8339818101604052810190620000379190620000d6565b806000806101000a81548173ffffffffffffffffffffffffffffffffffffffff021916908373ffffffffffffffffffffffffffffffffffffffff16021790555033600260006101000a81548173ffffffffffffffffffffffffffffffffffffffff021916908373ffffffffffffffffffffffffffffffffffffffff1602179055505062000164565b600081519050620000d0816200014a565b92915050565b600060208284031215620000e957600080fd5b6000620000f984828501620000bf565b91505092915050565b60006200010f826200012a565b9050919050565b6000620001238262000102565b9050919050565b600073ffffffffffffffffffffffffffffffffffffffff82169050919050565b620001558162000116565b81146200016157600080fd5b50565b61101a80620001746000396000f3fe608060405234801561001057600080fd5b50600436106100885760003560e01c80638da5cb5b1161005b5780638da5cb5b146100ef578063aa3907ea1461010d578063f71d96cb14610129578063fc0c546a1461015957610088565b806312065fe01461008d5780635d495aea146100ab57806383894548146100b55780638b5b9ccc146100e5575b600080fd5b610095610177565b6040516100a29190610d00565b60405180910390f35b6100b361020f565b005b6100cf60048036038101906100ca9190610a5d565b6104f3565b6040516100dc9190610d00565b60405180910390f35b6100ed6105a6565b005b6100f761061c565b6040516101049190610be6565b60405180910390f35b61012760048036038101906101229190610aaf565b610642565b005b610143600480360381019061013e9190610aaf565b61083d565b6040516101509190610c01565b60405180910390f35b61016161087c565b60405161016e9190610ca5565b60405180910390f35b60003373ffffffffffffffffffffffffffffffffffffffff16600260009054906101000a900473ffffffffffffffffffffffffffffffffffffffff1673ffffffffffffffffffffffffffffffffffffffff1614610209576040517f08c379a000000000000000000000000000000000000000000000000000000000815260040161020090610cc0565b60405180910390fd5b47905090565b3373ffffffffffffffffffffffffffffffffffffffff16600260009054906101000a900473ffffffffffffffffffffffffffffffffffffffff1673ffffffffffffffffffffffffffffffffffffffff161461029f576040517f08c379a000000000000000000000000000000000000000000000000000000000815260040161029690610cc0565b60405180910390fd5b6000600180805490506102b06108a0565b6102ba9190610ebe565b815481106102f1577f4e487b7100000000000000000000000000000000000000000000000000000000600052603260045260246000fd5b9060005260206000200160009054906101000a900473ffffffffffffffffffffffffffffffffffffffff16905060006064604661032d306104f3565b6103379190610d5d565b6103419190610d2c565b905060006064601e610352306104f3565b61035c9190610d5d565b6103669190610d2c565b905060008054906101000a900473ffffffffffffffffffffffffffffffffffffffff1673ffffffffffffffffffffffffffffffffffffffff1663a9059cbb84846040518363ffffffff1660e01b81526004016103c3929190610c1c565b602060405180830381600087803b1580156103dd57600080fd5b505af11580156103f1573d6000803e3d6000fd5b505050506040513d601f19601f820116820180604052508101906104159190610a86565b5060008054906101000a900473ffffffffffffffffffffffffffffffffffffffff1673ffffffffffffffffffffffffffffffffffffffff1663a9059cbb600260009054906101000a900473ffffffffffffffffffffffffffffffffffffffff16836040518363ffffffff1660e01b8152600401610493929190610c7c565b602060405180830381600087803b1580156104ad57600080fd5b505af11580156104c1573d6000803e3d6000fd5b505050506040513d601f19601f820116820180604052508101906104e59190610a86565b506104ee6108da565b505050565b60008060009054906101000a900473ffffffffffffffffffffffffffffffffffffffff1673ffffffffffffffffffffffffffffffffffffffff166370a08231836040518263ffffffff1660e01b815260040161054f9190610be6565b60206040518083038186803b15801561056757600080fd5b505afa15801561057b573d6000803e3d6000fd5b505050506040513d601f19601f8201168201806040525081019061059f9190610ad8565b9050919050565b60005b60018054905081101561061957600181815481106105f0577f4e487b7100000000000000000000000000000000000000000000000000000000600052603260045260246000fd5b9060005260206000200160009054906101000a905050808061061190610e6b565b9150506105a9565b50565b600260009054906101000a900473ffffffffffffffffffffffffffffffffffffffff1681565b60003390506000309050600260009054906101000a900473ffffffffffffffffffffffffffffffffffffffff1673ffffffffffffffffffffffffffffffffffffffff168273ffffffffffffffffffffffffffffffffffffffff1614156106a757600080fd5b600083116106ea576040517f08c379a00000000000000000000000000000000000000000000000000000000081526004016106e190610ce0565b60405180910390fd5b60008054906101000a900473ffffffffffffffffffffffffffffffffffffffff1673ffffffffffffffffffffffffffffffffffffffff166323b872dd8383866040518463ffffffff1660e01b815260040161074793929190610c45565b602060405180830381600087803b15801561076157600080fd5b505af1158015610775573d6000803e3d6000fd5b505050506040513d601f19601f820116820180604052508101906107999190610a86565b506001829080600181540180825580915050600190039060005260206000200160009091909190916101000a81548173ffffffffffffffffffffffffffffffffffffffff021916908373ffffffffffffffffffffffffffffffffffffffff1602179055507fddf252ad1be2c89b69c2b068fc378daa952ba7f163c4a11628f55a4df523b3ef82828560405161083093929190610c45565b60405180910390a1505050565b6001818154811061084d57600080fd5b906000526020600020016000915054906101000a900473ffffffffffffffffffffffffffffffffffffffff1681565b60008054906101000a900473ffffffffffffffffffffffffffffffffffffffff1681565b600044426001805490506040516020016108bc93929190610ba9565b6040516020818303038152906040528051906020012060001c905090565b600067ffffffffffffffff81111561091b577f4e487b7100000000000000000000000000000000000000000000000000000000600052604160045260246000fd5b6040519080825280602002602001820160405280156109495781602001602082028036833780820191505090505b506001908051906020019061095f929190610962565b50565b8280548282559060005260206000209081019282156109db579160200282015b828111156109da5782518260006101000a81548173ffffffffffffffffffffffffffffffffffffffff021916908373ffffffffffffffffffffffffffffffffffffffff16021790555091602001919060010190610982565b5b5090506109e891906109ec565b5090565b5b80821115610a055760008160009055506001016109ed565b5090565b600081359050610a1881610f9f565b92915050565b600081519050610a2d81610fb6565b92915050565b600081359050610a4281610fcd565b92915050565b600081519050610a5781610fcd565b92915050565b600060208284031215610a6f57600080fd5b6000610a7d84828501610a09565b91505092915050565b600060208284031215610a9857600080fd5b6000610aa684828501610a1e565b91505092915050565b600060208284031215610ac157600080fd5b6000610acf84828501610a33565b91505092915050565b600060208284031215610aea57600080fd5b6000610af884828501610a48565b91505092915050565b610b0a81610e11565b82525050565b610b1981610dc9565b82525050565b610b2881610db7565b82525050565b610b3781610e23565b82525050565b6000610b4a601583610d1b565b9150610b5582610f4d565b602082019050919050565b6000610b6d601383610d1b565b9150610b7882610f76565b602082019050919050565b610b8c81610e07565b82525050565b610ba3610b9e82610e07565b610eb4565b82525050565b6000610bb58286610b92565b602082019150610bc58285610b92565b602082019150610bd58284610b92565b602082019150819050949350505050565b6000602082019050610bfb6000830184610b1f565b92915050565b6000602082019050610c166000830184610b10565b92915050565b6000604082019050610c316000830185610b01565b610c3e6020830184610b83565b9392505050565b6000606082019050610c5a6000830186610b1f565b610c676020830185610b1f565b610c746040830184610b83565b949350505050565b6000604082019050610c916000830185610b1f565b610c9e6020830184610b83565b9392505050565b6000602082019050610cba6000830184610b2e565b92915050565b60006020820190508181036000830152610cd981610b3d565b9050919050565b60006020820190508181036000830152610cf981610b60565b9050919050565b6000602082019050610d156000830184610b83565b92915050565b600082825260208201905092915050565b6000610d3782610e07565b9150610d4283610e07565b925082610d5257610d51610f1e565b5b828204905092915050565b6000610d6882610e07565b9150610d7383610e07565b9250817fffffffffffffffffffffffffffffffffffffffffffffffffffffffffffffffff0483118215151615610dac57610dab610eef565b5b828202905092915050565b6000610dc282610de7565b9050919050565b6000610dd482610de7565b9050919050565b60008115159050919050565b600073ffffffffffffffffffffffffffffffffffffffff82169050919050565b6000819050919050565b6000610e1c82610e47565b9050919050565b6000610e2e82610e35565b9050919050565b6000610e4082610de7565b9050919050565b6000610e5282610e59565b9050919050565b6000610e6482610de7565b9050919050565b6000610e7682610e07565b91507fffffffffffffffffffffffffffffffffffffffffffffffffffffffffffffffff821415610ea957610ea8610eef565b5b600182019050919050565b6000819050919050565b6000610ec982610e07565b9150610ed483610e07565b925082610ee457610ee3610f1e565b5b828206905092915050565b7f4e487b7100000000000000000000000000000000000000000000000000000000600052601160045260246000fd5b7f4e487b7100000000000000000000000000000000000000000000000000000000600052601260045260246000fd5b7f596f7520617265206e6f7420746865206f776e65720000000000000000000000600082015250565b7f4265742061746c65617374203120746f6b656e00000000000000000000000000600082015250565b610fa881610db7565b8114610fb357600080fd5b50565b610fbf81610ddb565b8114610fca57600080fd5b50565b610fd681610e07565b8114610fe157600080fd5b5056fea26469706673582212208da825bb187ee3a5fac6ad367cfe806960d5afecbb51c360a98c015440764cc264736f6c63430008010033",
  "immutableReferences": {},
  "source": "pragma solidity ^0.8.0;\r\n\r\nimport \"./SampleToken.sol\";\r\n\r\ncontract Lottery {\r\n\r\n  IERC20 public token;\r\n\r\n  event Transfer(address _from, address _destAddr, uint _amount);\r\n\r\n  // List of players registered in lottery\r\n  address payable[] public players;\r\n  address public owner;\r\n\r\n  constructor(IERC20 _token) public {\r\n    token = _token;\r\n    owner = msg.sender;\r\n  }\r\n\r\n  modifier onlyOwner() {\r\n    require(owner == msg.sender, \"You are not the owner\");\r\n    _;\r\n  }\r\n\r\n  function getPlayers() public {\r\n    for (uint count = 0; count < players.length; count++) {\r\n      players[count];\r\n    }\r\n  }\r\n\r\n  function acceptToken(uint amount) external {\r\n\r\n    address from = msg.sender;\r\n    address to = address(this);\r\n\r\n    // makes sure that the owner cannot participate in Lottery\r\n    require(from != owner);\r\n    require(amount > 0, \"Bet atleast 1 token\");\r\n\r\n    // transfer token from player to contract\r\n    token.transferFrom(from, to, amount);\r\n\r\n    // pushing the account conducting the transaction onto the players array as a payable address\r\n    players.push(payable(from));\r\n\r\n    emit Transfer(from, to, amount);\r\n  }\r\n\r\n  function getTokenBalanceOf(address addr) public view returns (uint) {\r\n    return token.balanceOf(addr);\r\n  }\r\n\r\n  function getBalance() public view onlyOwner returns(uint) {\r\n    // returns the contract balance\r\n    return address(this).balance;\r\n  }\r\n\r\n  function random() internal view returns(uint) {\r\n    return uint(keccak256(abi.encodePacked(block.difficulty, block.timestamp, players.length)));\r\n  }\r\n\r\n  function pickWinner() public onlyOwner {\r\n    // makes sure that we have enough players in the lottery\r\n    // require(players.length >= 3, \"Not enough players in the lottery\");\r\n\r\n    address payable winner;\r\n\r\n    // selects the winner with the random number\r\n    winner = players[random() % players.length];\r\n    uint prize = (getTokenBalanceOf(address(this)) * 70) / 100;\r\n    uint burn_token = (getTokenBalanceOf(address(this)) * 30) / 100;\r\n\r\n    // transfers balance to winner => 70% of lottery pool\r\n    token.transfer(winner, prize);\r\n\r\n    // burn the rest of the pool => 30% of lottery pool\r\n    token.transfer(owner, burn_token);\r\n\r\n    // resets the players array once someone is picked\r\n    resetLottery();\r\n  }\r\n\r\n  function resetLottery() internal {\r\n    players = new address payable[](0);\r\n  }\r\n\r\n}\r\n",
  "sourcePath": "C:\\Users\\lloyd.montero\\Documents\\blckchn\\lottery\\practice_apps\\lottery-v3\\src\\contracts\\Lottery.sol",
  "compiler": {
    "name": "solc",
    "version": "0.8.1+commit.df193b15.Emscripten.clang"
  },
  "schemaVersion": "3.4.3",
  "updatedAt": "2022-01-05T10:05:26.995Z",
  "networkType": "ethereum",
  "devdoc": {
    "kind": "dev",
    "methods": {},
    "version": 1
  },
  "userdoc": {
    "kind": "user",
    "methods": {},
    "version": 1
  }
}