{
  "contractName": "SampleToken",
  "abi": [
    {
      "inputs": [
        {
          "internalType": "uint256",
          "name": "total",
          "type": "uint256"
        }
      ],
      "stateMutability": "nonpayable",
      "type": "constructor"
    },
    {
      "anonymous": false,
      "inputs": [
        {
          "indexed": true,
          "internalType": "address",
          "name": "owner",
          "type": "address"
        },
        {
          "indexed": true,
          "internalType": "address",
          "name": "spender",
          "type": "address"
        },
        {
          "indexed": false,
          "internalType": "uint256",
          "name": "value",
          "type": "uint256"
        }
      ],
      "name": "Approval",
      "type": "event"
    },
    {
      "anonymous": false,
      "inputs": [
        {
          "indexed": true,
          "internalType": "address",
          "name": "from",
          "type": "address"
        },
        {
          "indexed": true,
          "internalType": "address",
          "name": "to",
          "type": "address"
        },
        {
          "indexed": false,
          "internalType": "uint256",
          "name": "value",
          "type": "uint256"
        }
      ],
      "name": "Transfer",
      "type": "event"
    },
    {
      "inputs": [
        {
          "internalType": "address",
          "name": "",
          "type": "address"
        }
      ],
      "name": "balances",
      "outputs": [
        {
          "internalType": "uint256",
          "name": "",
          "type": "uint256"
        }
      ],
      "stateMutability": "view",
      "type": "function",
      "constant": true
    },
    {
      "inputs": [],
      "name": "decimals",
      "outputs": [
        {
          "internalType": "uint8",
          "name": "",
          "type": "uint8"
        }
      ],
      "stateMutability": "view",
      "type": "function",
      "constant": true
    },
    {
      "inputs": [],
      "name": "name",
      "outputs": [
        {
          "internalType": "string",
          "name": "",
          "type": "string"
        }
      ],
      "stateMutability": "view",
      "type": "function",
      "constant": true
    },
    {
      "inputs": [],
      "name": "symbol",
      "outputs": [
        {
          "internalType": "string",
          "name": "",
          "type": "string"
        }
      ],
      "stateMutability": "view",
      "type": "function",
      "constant": true
    },
    {
      "inputs": [],
      "name": "totalSupply",
      "outputs": [
        {
          "internalType": "uint256",
          "name": "",
          "type": "uint256"
        }
      ],
      "stateMutability": "view",
      "type": "function",
      "constant": true
    },
    {
      "inputs": [
        {
          "internalType": "address",
          "name": "tokenOwner",
          "type": "address"
        }
      ],
      "name": "balanceOf",
      "outputs": [
        {
          "internalType": "uint256",
          "name": "",
          "type": "uint256"
        }
      ],
      "stateMutability": "view",
      "type": "function",
      "constant": true
    },
    {
      "inputs": [
        {
          "internalType": "address",
          "name": "receiver",
          "type": "address"
        },
        {
          "internalType": "uint256",
          "name": "numTokens",
          "type": "uint256"
        }
      ],
      "name": "transfer",
      "outputs": [
        {
          "internalType": "bool",
          "name": "",
          "type": "bool"
        }
      ],
      "stateMutability": "nonpayable",
      "type": "function"
    },
    {
      "inputs": [
        {
          "internalType": "address",
          "name": "delegate",
          "type": "address"
        },
        {
          "internalType": "uint256",
          "name": "numTokens",
          "type": "uint256"
        }
      ],
      "name": "approve",
      "outputs": [
        {
          "internalType": "bool",
          "name": "",
          "type": "bool"
        }
      ],
      "stateMutability": "nonpayable",
      "type": "function"
    },
    {
      "inputs": [
        {
          "internalType": "address",
          "name": "owner",
          "type": "address"
        },
        {
          "internalType": "address",
          "name": "delegate",
          "type": "address"
        }
      ],
      "name": "allowance",
      "outputs": [
        {
          "internalType": "uint256",
          "name": "",
          "type": "uint256"
        }
      ],
      "stateMutability": "view",
      "type": "function",
      "constant": true
    },
    {
      "inputs": [
        {
          "internalType": "address",
          "name": "owner",
          "type": "address"
        },
        {
          "internalType": "address",
          "name": "buyer",
          "type": "address"
        },
        {
          "internalType": "uint256",
          "name": "numTokens",
          "type": "uint256"
        }
      ],
      "name": "transferFrom",
      "outputs": [
        {
          "internalType": "bool",
          "name": "",
          "type": "bool"
        }
      ],
      "stateMutability": "nonpayable",
      "type": "function"
    },
    {
      "inputs": [
        {
          "internalType": "address",
          "name": "account",
          "type": "address"
        },
        {
          "internalType": "uint256",
          "name": "value",
          "type": "uint256"
        }
      ],
      "name": "burn",
      "outputs": [],
      "stateMutability": "nonpayable",
      "type": "function"
    },
    {
      "inputs": [
        {
          "internalType": "address",
          "name": "account",
          "type": "address"
        },
        {
          "internalType": "uint256",
          "name": "value",
          "type": "uint256"
        }
      ],
      "name": "burnFrom",
      "outputs": [
        {
          "internalType": "bool",
          "name": "",
          "type": "bool"
        }
      ],
      "stateMutability": "nonpayable",
      "type": "function"
    }
  ],
  "bytecode": "0x608060405234801561001057600080fd5b506040516112bb3803806112bb83398181016040528101906100329190610099565b806002819055506002546000803373ffffffffffffffffffffffffffffffffffffffff1673ffffffffffffffffffffffffffffffffffffffff16815260200190815260200160002081905550506100e3565b600081519050610093816100cc565b92915050565b6000602082840312156100ab57600080fd5b60006100b984828501610084565b91505092915050565b6000819050919050565b6100d5816100c2565b81146100e057600080fd5b50565b6111c9806100f26000396000f3fe608060405234801561001057600080fd5b50600436106100b45760003560e01c806370a082311161007157806370a08231146101a357806379cc6790146101d357806395d89b41146102035780639dc29fac14610221578063a9059cbb1461023d578063dd62ed3e1461026d576100b4565b806306fdde03146100b9578063095ea7b3146100d757806318160ddd1461010757806323b872dd1461012557806327e235e314610155578063313ce56714610185575b600080fd5b6100c161029d565b6040516100ce9190610f9f565b60405180910390f35b6100f160048036038101906100ec9190610ee2565b6102d6565b6040516100fe9190610f84565b60405180910390f35b61010f6103c8565b60405161011c9190610fc1565b60405180910390f35b61013f600480360381019061013a9190610e93565b6103d2565b60405161014c9190610f84565b60405180910390f35b61016f600480360381019061016a9190610e2e565b61074d565b60405161017c9190610fc1565b60405180910390f35b61018d610765565b60405161019a9190610fdc565b60405180910390f35b6101bd60048036038101906101b89190610e2e565b61076a565b6040516101ca9190610fc1565b60405180910390f35b6101ed60048036038101906101e89190610ee2565b6107b2565b6040516101fa9190610f84565b60405180910390f35b61020b610960565b6040516102189190610f9f565b60405180910390f35b61023b60048036038101906102369190610ee2565b610999565b005b61025760048036038101906102529190610ee2565b610afc565b6040516102649190610f84565b60405180910390f35b61028760048036038101906102829190610e57565b610cde565b6040516102949190610fc1565b60405180910390f35b6040518060400160405280600b81526020017f53616d706c65546f6b656e00000000000000000000000000000000000000000081525081565b600081600160003373ffffffffffffffffffffffffffffffffffffffff1673ffffffffffffffffffffffffffffffffffffffff16815260200190815260200160002060008573ffffffffffffffffffffffffffffffffffffffff1673ffffffffffffffffffffffffffffffffffffffff168152602001908152602001600020819055508273ffffffffffffffffffffffffffffffffffffffff163373ffffffffffffffffffffffffffffffffffffffff167f8c5be1e5ebec7d5bd14f71427d1e84f3dd0314c0f7b2291e5b200ac8c7c3b925846040516103b69190610fc1565b60405180910390a36001905092915050565b6000600254905090565b60008060008573ffffffffffffffffffffffffffffffffffffffff1673ffffffffffffffffffffffffffffffffffffffff1681526020019081526020016000205482111561041f57600080fd5b600160008573ffffffffffffffffffffffffffffffffffffffff1673ffffffffffffffffffffffffffffffffffffffff16815260200190815260200160002060003373ffffffffffffffffffffffffffffffffffffffff1673ffffffffffffffffffffffffffffffffffffffff168152602001908152602001600020548211156104a857600080fd5b6104f9826000808773ffffffffffffffffffffffffffffffffffffffff1673ffffffffffffffffffffffffffffffffffffffff16815260200190815260200160002054610d6590919063ffffffff16565b6000808673ffffffffffffffffffffffffffffffffffffffff1673ffffffffffffffffffffffffffffffffffffffff168152602001908152602001600020819055506105ca82600160008773ffffffffffffffffffffffffffffffffffffffff1673ffffffffffffffffffffffffffffffffffffffff16815260200190815260200160002060003373ffffffffffffffffffffffffffffffffffffffff1673ffffffffffffffffffffffffffffffffffffffff16815260200190815260200160002054610d6590919063ffffffff16565b600160008673ffffffffffffffffffffffffffffffffffffffff1673ffffffffffffffffffffffffffffffffffffffff16815260200190815260200160002060003373ffffffffffffffffffffffffffffffffffffffff1673ffffffffffffffffffffffffffffffffffffffff1681526020019081526020016000208190555061069b826000808673ffffffffffffffffffffffffffffffffffffffff1673ffffffffffffffffffffffffffffffffffffffff16815260200190815260200160002054610db290919063ffffffff16565b6000808573ffffffffffffffffffffffffffffffffffffffff1673ffffffffffffffffffffffffffffffffffffffff168152602001908152602001600020819055508273ffffffffffffffffffffffffffffffffffffffff168473ffffffffffffffffffffffffffffffffffffffff167fddf252ad1be2c89b69c2b068fc378daa952ba7f163c4a11628f55a4df523b3ef8460405161073a9190610fc1565b60405180910390a3600190509392505050565b60006020528060005260406000206000915090505481565b601281565b60008060008373ffffffffffffffffffffffffffffffffffffffff1673ffffffffffffffffffffffffffffffffffffffff168152602001908152602001600020549050919050565b6000600160008473ffffffffffffffffffffffffffffffffffffffff1673ffffffffffffffffffffffffffffffffffffffff16815260200190815260200160002060003373ffffffffffffffffffffffffffffffffffffffff1673ffffffffffffffffffffffffffffffffffffffff1681526020019081526020016000205482111561083d57600080fd5b6108cc82600160008673ffffffffffffffffffffffffffffffffffffffff1673ffffffffffffffffffffffffffffffffffffffff16815260200190815260200160002060003373ffffffffffffffffffffffffffffffffffffffff1673ffffffffffffffffffffffffffffffffffffffff16815260200190815260200160002054610d6590919063ffffffff16565b600160008573ffffffffffffffffffffffffffffffffffffffff1673ffffffffffffffffffffffffffffffffffffffff16815260200190815260200160002060003373ffffffffffffffffffffffffffffffffffffffff1673ffffffffffffffffffffffffffffffffffffffff168152602001908152602001600020819055506109568383610999565b6001905092915050565b6040518060400160405280600381526020017f534d54000000000000000000000000000000000000000000000000000000000081525081565b6000808373ffffffffffffffffffffffffffffffffffffffff1673ffffffffffffffffffffffffffffffffffffffff168152602001908152602001600020548111156109e457600080fd5b6109f981600254610d6590919063ffffffff16565b600281905550610a50816000808573ffffffffffffffffffffffffffffffffffffffff1673ffffffffffffffffffffffffffffffffffffffff16815260200190815260200160002054610d6590919063ffffffff16565b6000808473ffffffffffffffffffffffffffffffffffffffff1673ffffffffffffffffffffffffffffffffffffffff16815260200190815260200160002081905550600073ffffffffffffffffffffffffffffffffffffffff168273ffffffffffffffffffffffffffffffffffffffff167fddf252ad1be2c89b69c2b068fc378daa952ba7f163c4a11628f55a4df523b3ef83604051610af09190610fc1565b60405180910390a35050565b60008060003373ffffffffffffffffffffffffffffffffffffffff1673ffffffffffffffffffffffffffffffffffffffff16815260200190815260200160002054821115610b4957600080fd5b610b9a826000803373ffffffffffffffffffffffffffffffffffffffff1673ffffffffffffffffffffffffffffffffffffffff16815260200190815260200160002054610d6590919063ffffffff16565b6000803373ffffffffffffffffffffffffffffffffffffffff1673ffffffffffffffffffffffffffffffffffffffff16815260200190815260200160002081905550610c2d826000808673ffffffffffffffffffffffffffffffffffffffff1673ffffffffffffffffffffffffffffffffffffffff16815260200190815260200160002054610db290919063ffffffff16565b6000808573ffffffffffffffffffffffffffffffffffffffff1673ffffffffffffffffffffffffffffffffffffffff168152602001908152602001600020819055508273ffffffffffffffffffffffffffffffffffffffff163373ffffffffffffffffffffffffffffffffffffffff167fddf252ad1be2c89b69c2b068fc378daa952ba7f163c4a11628f55a4df523b3ef84604051610ccc9190610fc1565b60405180910390a36001905092915050565b6000600160008473ffffffffffffffffffffffffffffffffffffffff1673ffffffffffffffffffffffffffffffffffffffff16815260200190815260200160002060008373ffffffffffffffffffffffffffffffffffffffff1673ffffffffffffffffffffffffffffffffffffffff16815260200190815260200160002054905092915050565b600082821115610d9e577f4e487b7100000000000000000000000000000000000000000000000000000000600052600160045260246000fd5b8183610daa9190611069565b905092915050565b6000808284610dc19190611013565b905083811015610dfa577f4e487b7100000000000000000000000000000000000000000000000000000000600052600160045260246000fd5b8091505092915050565b600081359050610e1381611165565b92915050565b600081359050610e288161117c565b92915050565b600060208284031215610e4057600080fd5b6000610e4e84828501610e04565b91505092915050565b60008060408385031215610e6a57600080fd5b6000610e7885828601610e04565b9250506020610e8985828601610e04565b9150509250929050565b600080600060608486031215610ea857600080fd5b6000610eb686828701610e04565b9350506020610ec786828701610e04565b9250506040610ed886828701610e19565b9150509250925092565b60008060408385031215610ef557600080fd5b6000610f0385828601610e04565b9250506020610f1485828601610e19565b9150509250929050565b610f27816110af565b82525050565b6000610f3882610ff7565b610f428185611002565b9350610f528185602086016110f2565b610f5b81611154565b840191505092915050565b610f6f816110db565b82525050565b610f7e816110e5565b82525050565b6000602082019050610f996000830184610f1e565b92915050565b60006020820190508181036000830152610fb98184610f2d565b905092915050565b6000602082019050610fd66000830184610f66565b92915050565b6000602082019050610ff16000830184610f75565b92915050565b600081519050919050565b600082825260208201905092915050565b600061101e826110db565b9150611029836110db565b9250827fffffffffffffffffffffffffffffffffffffffffffffffffffffffffffffffff0382111561105e5761105d611125565b5b828201905092915050565b6000611074826110db565b915061107f836110db565b92508282101561109257611091611125565b5b828203905092915050565b60006110a8826110bb565b9050919050565b60008115159050919050565b600073ffffffffffffffffffffffffffffffffffffffff82169050919050565b6000819050919050565b600060ff82169050919050565b60005b838110156111105780820151818401526020810190506110f5565b8381111561111f576000848401525b50505050565b7f4e487b7100000000000000000000000000000000000000000000000000000000600052601160045260246000fd5b6000601f19601f8301169050919050565b61116e8161109d565b811461117957600080fd5b50565b611185816110db565b811461119057600080fd5b5056fea2646970667358221220c89e0b1d07650d81afca7b2514afa0fe55e5d1cdc88fd58454ff9b010ebdf4a364736f6c63430008010033",
  "immutableReferences": {},
  "source": "pragma solidity ^0.8.0;\r\n\r\ninterface IERC20 {\r\n\r\n    function totalSupply() external view returns (uint256);\r\n    function balanceOf(address account) external view returns (uint256);\r\n    function allowance(address owner, address spender) external view returns (uint256);\r\n\r\n    function transfer(address recipient, uint256 amount) external returns (bool);\r\n    function approve(address spender, uint256 amount) external returns (bool);\r\n    function transferFrom(address sender, address recipient, uint256 amount) external returns (bool);\r\n    function burnFrom(address account, uint256 amount) external returns (bool);\r\n\r\n\r\n    event Transfer(address indexed from, address indexed to, uint256 value);\r\n    event Approval(address indexed owner, address indexed spender, uint256 value);\r\n}\r\n\r\n\r\ncontract SampleToken is IERC20 {\r\n    using SafeMath for uint256;\r\n\r\n    string public constant name = \"SampleToken\";\r\n    string public constant symbol = \"SMT\";\r\n    uint8 public constant decimals = 18;\r\n\r\n    mapping(address => uint256) public balances;\r\n    mapping(address => mapping (address => uint256)) allowed;\r\n\r\n    uint256 totalSupply_;\r\n\r\n    constructor(uint256 total) public {\r\n        totalSupply_ = total;\r\n        balances[msg.sender] = totalSupply_;\r\n    }\r\n\r\n    function totalSupply() public override view returns (uint256) {\r\n        return totalSupply_;\r\n    }\r\n\r\n    function balanceOf(address tokenOwner) public override view returns (uint256) {\r\n        return balances[tokenOwner];\r\n    }\r\n\r\n    function transfer(address receiver, uint256 numTokens) public override returns (bool) {\r\n        require(numTokens <= balances[msg.sender]);\r\n        balances[msg.sender] = balances[msg.sender].sub(numTokens);\r\n        balances[receiver] = balances[receiver].add(numTokens);\r\n        emit Transfer(msg.sender, receiver, numTokens);\r\n        return true;\r\n    }\r\n\r\n    function approve(address delegate, uint256 numTokens) public override returns (bool) {\r\n        allowed[msg.sender][delegate] = numTokens;\r\n        emit Approval(msg.sender, delegate, numTokens);\r\n        return true;\r\n    }\r\n\r\n    function allowance(address owner, address delegate) public override view returns (uint) {\r\n        return allowed[owner][delegate];\r\n    }\r\n\r\n    function transferFrom(address owner, address buyer, uint256 numTokens) public override returns (bool) {\r\n        require(numTokens <= balances[owner]);\r\n        require(numTokens <= allowed[owner][msg.sender]);\r\n\r\n        balances[owner] = balances[owner].sub(numTokens);\r\n        allowed[owner][msg.sender] = allowed[owner][msg.sender].sub(numTokens);\r\n        balances[buyer] = balances[buyer].add(numTokens);\r\n        emit Transfer(owner, buyer, numTokens);\r\n        return true;\r\n    }\r\n\r\n    function burn(address account, uint256 value) public {\r\n        // require(account != 0);\r\n        require(value <= balances[account]);\r\n\r\n        totalSupply_ = totalSupply_.sub(value);\r\n        balances[account] = balances[account].sub(value);\r\n        emit Transfer(account, address(0), value);\r\n    }\r\n\r\n    function burnFrom(address account, uint256 value) public override returns (bool) {\r\n        require(value <= allowed[account][msg.sender]);\r\n\r\n        // Should https://github.com/OpenZeppelin/zeppelin-solidity/issues/707 be accepted,\r\n        // this function needs to emit an event with the updated approval.\r\n        allowed[account][msg.sender] = allowed[account][msg.sender].sub(\r\n        value);\r\n        burn(account, value);\r\n\r\n        return true;\r\n  }\r\n}\r\n\r\nlibrary SafeMath {\r\n    function sub(uint256 a, uint256 b) internal pure returns (uint256) {\r\n      assert(b <= a);\r\n      return a - b;\r\n    }\r\n\r\n    function add(uint256 a, uint256 b) internal pure returns (uint256) {\r\n      uint256 c = a + b;\r\n      assert(c >= a);\r\n      return c;\r\n    }\r\n}\r\n",
  "sourcePath": "C:\\Users\\lloyd.montero\\Documents\\blckchn\\lottery\\practice_apps\\lottery-v3\\src\\contracts\\SampleToken.sol",
  "compiler": {
    "name": "solc",
    "version": "0.8.1+commit.df193b15.Emscripten.clang"
  },
  "schemaVersion": "3.4.3",
  "updatedAt": "2022-01-04T12:02:47.079Z",
  "networkType": "ethereum",
  "devdoc": {
    "kind": "dev",
    "methods": {},
    "version": 1
  },
  "userdoc": {
    "kind": "user",
    "methods": {},
    "version": 1
  }
}